S01200004144434558414D504C452E737265633E
S214400000A8064020D9014000D5014000D501400057
S214400010D5014000D5014000D50140000000000059
S214400020000000000000000000000000D501400075
S214400030D501400000000000D5014000D501400039
S214400040D5014000D5014000D5014000D501400013
S214400050D5014000D5014000D5014000D501400003
S214400060D501400000000000D5014000D501400009
S214400070D5014000D5014000D5014000D5014000E3
S214400080D5014000D5014000D5014000D5014000D3
S214400090D5014000D5014000D5014000D5014000C3
S2144000A0D5014000D5014000D5014000D5014000B3
S2144000B0D5014000D5014000D5014000D5014000A3
S2144000C0D5014000D5014000D5014000D501400093
S2144000D0D5014000D5014000D5014000D501400083
S2144000E0D5014000D5014000D5014000D501400073
S2144000F0D5014000D5014000D5014000D501400063
S214400100D5014000D5014000D5014000D501400052
S214400110D5014000D501400000000000000000006E
S214400120D5014000D5014000D5014000D501400032
S214400130D5014000D5014000D5014000D501400022
S2144001400000000000000000D5014000D50140003E
S214400150D501400010B5054C237833B9044B13B194
S2144001600448AFF300800123237010BD6400402094
S21440017000000000C81340000C4B43B10C480D492A
S21440018010B5AFF300800C48036823B910BD0A4889
S214400190036833B97047094B002BF7D0BDE81040D1
S2144001A01847064B002BF5D0184700BF000000004C
S2144001B0C813400068004020C813400000000000FC
S2144001C008B5024B9847024B984708BD15034000B8
S2144001D06D0A4000FEE7000008B5104B104A9A42F0
S2144001E009D00E4B0E4A03E01168196004330432FE
S2144001F00C498B42F8D30C4B02E000221A600433C1
S2144002000A4A9342F9D30A4A0A4B23F07F03936083
S214400210094B9847094B9847FEE700BF000040202F
S214400220C81340006400402064004020A4004020E2
S21440023000ED00E0000040008D0A4000A1094000AB
S214400240044B9B6913F0005F03D14FF00052014B03
S2144002501A61704700060E4008B5044B98470022C6
S21440026003490448044B984708BD00BF410240007C
S21440027000C003409C004020410340000F4B1A6FD3
S21440028022F400121A675A6F22F400125A674FF48B
S21440029000125A600A4AD2F8143143F01003C2F8EA
S2144002A01431084B1A6F42F010021A675A6F42F028
S2144002B010025A6710225A60704700BF000E0E4068
S2144002C00080084000100E40044B9B6913F4804F9A
S2144002D003D14FF48042014B1A61704700060E402E
S2144002E008B5064B9847064B9847064B9847024634
S2144002F005490648064B984708BD00BFC90240005E
S2144003007D0240009D094000008002409000402051
S214400310BD04400008B5064B9847064A536843F468
S21440032000435360044B9847044B984708BD00BFB2
S2144003308506400050180E4059024000E102400039
S21440034038B504460D46002818BF002914BF0120C2
S214400350002039220349044B984729462046034B40
S214400360984738BD54124000310540004D064000C5
S214400370EFF31083036072B6BFF35F8F7047BFF32F
S2144003805F8F036883F310887047000070B5164689
S21440039004460D46002818BF002914BF012000203F
S2144003A034220449044B984723683246294620465F
S2144003B0984770BD701240003105400070B5164633
S2144003C004460D46002818BF002914BF012000200F
S2144003D03D220449044B98476368324629462046E6
S2144003E0984770BD7012400031054000F8B516467B
S2144003F005460F46002818BF002902D00ABB002039
S21440040000E00020F1221049104B984705F10804FF
S21440041020460F4B98470028F8D00025795D2046A7
S2144004200C4B984720460A4B98470028FAD001358F
S214400430B542F3D32046084B98470028FAD02846C2
S214400440F8BD0120DEE700BF8412400031054000C1
S21440045025094000DD0840004D0940002DE9F041E7
S214400460174605468846002818BF002902D0D2B94C
S214400470002000E000204FF486720C490C4B984751
S214400480002605F1080420460A4B98470028F8D075
S2144004902046094B984708F806000136BE42F0D37E
S2144004A03046BDE8F0810120E5E700BF84124000F9
S2144004B031054000750940000109400038B5044642
S2144004C00D46002818BF002914BF01200020342202
S2144004D00749084B9847294604F10800064B9847B9
S2144004E0034618B9054A6260054A2260184638BD78
S2144004F08412400031054000710840005D04400011
S214400500ED03400010B5044653220649003018BF9C
S2144005100120054B984704F10800044B98470020FB
S21440052010BD00BF8412400031054000A9084000BD
S21440053000B900BE704700000346064A126822B162
S214400540044A10680344136070470349014A116027
S214400550F6E700BF80004020A80640204FF0FF305E
S21440056070474FF400534B600020704700207047A0
S21440057064231D4A03FB01235A6842609A688260DE
S214400580DA68C2601A6902615A6902659A69426508
S214400590DA6902661A6AC0F894205A6AC0F8A0203F
S2144005A09A6AC0F8D020DA6AC0F8D4201B6BC0F82C
S2144005B0D83000220B2A14D810B4426601EB8103CF
S2144005C003EB830313440C33074C04EB83035B6851
S2144005D0C3660132D2B20B2AEFD900205DF8044B35
S2144005E070470020704700BFA012400008B5094B76
S2144005F098420AD003F52033984208D0A3220649F1
S2144006000020064B9847002008BD002008BD01206A
S21440061008BD00BF00C00340041340003105400041
S21440062008B5084B9847002313B10023184608BD69
S214400630642202FB03F204498A5C9042F6D00133FE
S214400640DBB2F1E7ED054000A012400038B50C469D
S21440065005464FF48D720749003018BF0120064BFF
S21440066098472C602046054B984701462046044B49
S214400670984738BD0413400031054000210640002D
S2144006807105400000B583B001A80E4B98470E4A4E
S214400690D2F8883043F47003C2F88830BFF34F8FE7
S2144006A0BFF36F8F01A8094B9847094A136823F494
S2144006B0706343F4C0631360064B984703B05DF81D
S2144006C004FB00BF7103400000ED00E07F034000E4
S2144006D0000C0E40750740000E490A6A22F00202DE
S2144006E00D4B13430B620B4B9B6E13F0010FFAD06E
S2144006F0084B196A094A0A431A62996A084A0A4024
S2144007009A62084A9A62034B9B6E13F0020FFAD025
S214400710704700BF00060E40013E3700000037011C
S214400720FFFF00F8013F1820114A136B23F07003B7
S21440073013630F4B9B6E13F0080FFAD00C4A136BE3
S21440074023F4407343F480731363094B9B6E13F09A
S214400750080FFAD0064A136B23F0030343F0020354
S2144007601363034B9B6E13F0080FFAD0704700BF1D
S21440077000060E4008B5024B9847024B984708BD06
S214400780D90640002907400010B504464FF40A72C7
S2144007900549003018BF0120044B984704482044C0
S2144007A0C0F3873010BD00BF28134000310540001D
S2144007B000C0FDBF10B5044640F282220E4900300C
S2144007C018BF01200D4B984720460D4B98470023F5
S2144007D043B14FF4237208490020084B9847002342
S2144007E0184610BD03EB43018A0006498A5C9042D6
S2144007F0F6D00133DBB2EBE728134000310540006A
S214400800890740001C13400010B5044640F2992268
S2144008101149003018BF0120104B98472046104B16
S2144008209847104BC4F8E430002363606362A362C9
S214400830AC2222604FF4807222604FF40022226085
S21440084000EB40008100084A0A4452686260074A4A
S2144008502262184610BD00BF2813400031054000F4
S214400860B5074000004153551C134000E801020004
S214400870F8B50C46094E0746BA223146003018BF36
S2144008800120074DA847BB223146201C18BF012037
S214400890A8473C602046034B9847F8BD28134000C5
S2144008A0310540000908400070B50A4E04464FF432
S2144008B081723146003018BF0120074DA847246892
S2144008C040F2C2223146201C18BF0120A8475023C0
S2144008D0236070BD281340003105400038B50C46F3
S2144008E0054640F2A5120449003018BF0120034BCC
S2144008F098472B68DC6138BD28134000310540001E
S21440090010B5044640F2B7120449003018BF012023
S214400910034B984723689869C0B210BD281340001F
S2144009203105400010B504464FF4E07205490030EA
S21440093018BF0120044B984723685869C0F340000D
S21440094010BD00BF281340003105400010B50446D6
S21440095040F2C9120549003018BF0120044B9847A1
S21440096023685869C0F3402010BD00BF28134000DC
S2144009703105400010B5044640F2DB120549003010
S21440098018BF0120044B98472368586900F00100BF
S21440099010BD00BF281340003105400000207047BE
S2144009A008B5014B9847FEE7C101400058B908B565
S2144009B00B4611461846054B9847002800DB08BDF5
S2144009C04FF0FF3008BD4FF0FF307047250A40001B
S2144009D0013802280BD808B50B4611461846054B79
S2144009E09847002800DB08BD4FF0FF3008BD4FF0A9
S2144009F0FF307047490A400070B50646064D2B68E2
S214400A0000219868054CA0472B6800215868A047ED
S214400A10034B1E6070BD00BF00004020E50A40004A
S214400A208400402008B5064B1B6833B10A46014691
S214400A3092B21846034B984708BD002008BD00BF39
S214400A4084004020BD03400008B5064B1B6833B108
S214400A500A46014692B21846034B984708BD002006
S214400A6008BD00BF840040208D03400010B5044CF4
S214400A702046044B98472046034B984710BD00BF7E
S214400A809000402005054000F909400070B50D4E25
S214400A900D4CA41BA4100025A54209D10B4E0C4CAE
S214400AA000F082FCA41BA4100025A54205D170BD11
S214400AB056F8253098470135EEE756F825309847E2
S214400AC00135F2E7B4134000B4134000B4134000BD
S214400AD0B813400002440346934200D1704703F8DF
S214400AE0011BF9E700294FF480630CBF0222002265
S214400AF000F000B82DE9F7431D46514B1E680446EA
S214400B000F46904626B1B36913B9304600F092F9C5
S214400B104C4B9C4252D17468B8F1020F06D0B8F1E3
S214400B20010F00F28980002DC0F2868021463046B3
S214400B3000F016F9616B41B104F14403994202D0CA
S214400B40304600F02DFA002363630023A361636000
S214400B50A3891B0603D52169304600F021FAA389F4
S214400B6023F44A6323F00303B8F1020FA3815DD058
S214400B7001AB6A462146304600F0E6F9A3891843A1
S214400B80A0812DBB009D284600F002FA07460028AB
S214400B904ED1DDF80090A9453CD14FF0FF30A389F7
S214400BA043F00203A3810023A36004F147032360BC
S214400BB023610123636103B0BDE8F083224B9C426E
S214400BC001D1B468A8E7214B9C4208BFF468A3E76C
S214400BD0002FD8D0B36913B9304600F02BF9B8F1DE
S214400BE0010F08BFA389276004BF43F00103A38118
S214400BF0A389276113F0080065611BD013F001003C
S214400C0018BF6D424FF000031DBFA360A561184694
S214400C10A560D0E7484600F0BBF907460028BCD0A0
S214400C20A38943F08003A3814D46D3E70020B6E76F
S214400C30A946F5E7A060BEE74FF0FF30BBE700BF30
S214400C4000004020681340008813400048134000CE
S214400C508A892DE9F041054610070C465AD44B6860
S214400C60002B05DC0B6C002B02DC0020BDE8F0817D
S214400C70E66A002EF9D0002312F480522F682B60CB
S214400C8033D0606DA3895A0705D56368C01A636B75
S214400C900BB1236CC01A00230246E66A216A284636
S214400CA0B047431CA38906D129681D294BD82B4A37
S214400CB0CA40D60747D500226260D904226922601E
S214400CC004D5421C01D12B6803B96065616B2F6067
S214400CD00029CAD004F14403994202D0284600F0C5
S214400CE05FF900206063BDE8F081216A0123284651
S214400CF0B047411CC6D12B68002BC3D01D2B01D05A
S214400D00162B01D12F60B0E7A38943F04003A3819F
S214400D10BDE8F0810F69002FA7D093070E6808BF83
S214400D204B690F6018BF0023A6EB07088B60B8F12D
S214400D30000F9ADD43463A46216AA66A2846B047DF
S214400D40002807DCA38943F04003A3814FF0FF301F
S214400D50BDE8F0810744A8EB0008E8E70100402022
S214400D6038B50B6905460C46DBB118B183690BB93B
S214400D7000F060F80C4B9C4209D16C68B4F90C301A
S214400D807BB121462846BDE83840FFF761BF074B98
S214400D909C4201D1AC68F1E7054B9C4208BFEC6829
S214400DA0ECE7002038BD00BF6813400088134000C1
S214400DB048134000014900F0A9B800BF610D40004B
S214400DC0002310B504460360436083608181436618
S214400DD0C281036143618361194608225C30FFF794
S214400DE079FE054B6362054BA362054BE362054BF8
S214400DF02462236310BD00BF191140003B11400020
S214400E00731140009711400070B54A1E682555433F
S214400E100E4605F1740100F011F9044640B1002178
S214400E2080E842000C30A06005F16802FFF752FEF1
S214400E30204670BD836910B5044633BB8364C364E3
S214400E400365124B124A1B688262984204BF012314
S214400E50836100F01FF86060204600F01BF8A06039
S214400E60204600F017F80022E06004216068FFF793
S214400E70A7FF01220921A068FFF7A2FF0222122144
S214400E80E068FFF79DFF0123A36110BD44134000B7
S214400E90B50D4000F8B51C4B1E68B369074613B93C
S214400EA03046FFF7C7FF4836B4687368013B03D542
S214400EB0336833B13668F7E7B4F90C506DB168342F
S214400EC0F4E704213846FFF79FFF30600028F1D151
S214400ED00C233B6004462046F8BD4FF6FF73E38183
S214400EE00123A38165662560A5606560256165610F
S214400EF0A5610822294604F15C00FFF7EBFD656317
S214400F00A563A564E564E6E7441340002DE9F8438D
S214400F108046894600F14804002614B93046BDE8AC
S214400F20F883A5686768013F01D52468F5E7AB8973
S214400F30012B07D9B5F90E30013303D02946404678
S214400F40C84706436835EEE770B50E46B1F90E1051
S214400F50002990B014461D4607DA00232B60B3895B
S214400F601A0610D44FF480630EE001AA00F03AF956
S214400F700028F2DB029A02F47042A2F500535A426D
S214400F805A412A60EEE740230020236010B070BD2F
S214400F90024B0146186800F051B800BF00004020E0
S214400FA038B50546002945D051F8043C0C1F002BA7
S214400FB0B8BFE41800F03AF91F4A1368104633B930
S214400FC0636014602846BDE8384000F030B9A3425C
S214400FD00CD921686218934204BF1A685B68636044
S214400FE004BF521822600460ECE713465A680AB100
S214400FF0A242FAD919685818A0420BD12068014479
S214401000581882421960DDD1106852685A6001440F
S2144010101960D7E702D90C232B60D3E72068211844
S2144010208A4204BF11685268626004BF0918216092
S2144010305C60C7E738BD00BF8800402070B5CD1C57
S21440104025F0030508350C2D38BF0C25002D064627
S21440105001DBA94203D90C233360002070BD00F0A9
S214401060E5F8234A1468214691B9224C23681BB9F7
S214401070304600F041F820602946304600F03CF803
S214401080431C26D10C233360304600F0D0F8E4E70A
S2144010900B685B1B1AD40B2B0FD90B60CD50CC18AA
S2144010A0304600F0C4F804F10B00231D20F0070082
S2144010B0C31A1BD05A42E25070BD8C420DBF6368C3
S2144010C04B686360136018BF0C46E9E70C464968F6
S2144010D0CAE7C41C24F00304A04205D0211A3046B7
S2144010E000F00AF80130CDD02560D9E770BD00BFCA
S2144010F0880040208C00402038B5064C002305462A
S21440110008462360FFF718FA431C02D1236803B150
S2144011102B6038BDA000402010B50C46B1F90E102B
S21440112000F086F80028ABBF636DA3891B1823F434
S2144011308053ACBF6365A38110BD2DE9F0411F46C7
S2144011408B89DB0505460C46164605D5022300224C
S214401150B1F90E1000F058F8A389B4F90E1023F434
S2144011608053A38132463B462846BDE8F04100F016
S21440117017B810B50C46B1F90E1000F045F8431CF0
S214401180A38915BF606523F4805343F48053A3813D
S21440119018BFA38110BDB1F90E1000F013B80000BF
S2144011A038B5074C054608461146002222601A46C6
S2144011B0FFF70EFC431C02D1236803B12B6038BDF9
S2144011C0A000402038B5064C00230546084623605C
S2144011D0FFF7C4F9431C02D1236803B12B6038BD26
S2144011E0A000402038B5074C002305460846114667
S2144011F02360FFF7B6F9431C02D1236803B12B6086
S21440120038BD00BFA000402038B5074C054608460C
S2144012101146002222601A46FFF7A8F9431C02D165
S214401220236803B12B6038BDA0004020704770474C
S21440123038B5074C054608461146002222601A4635
S214401240FFF7B4FB431C02D1236803B12B6038BDC3
S214401250A00040202E2E2F68616C2F7372632F687B
S214401260616C5F6164635F73796E632E6300000038
S2144012702E2E2F68616C2F7372632F68616C5F69C6
S2144012806F2E63002E2E2F68616C2F7372632F684B
S214401290616C5F75736172745F73796E632E630001
S2144012A0000000000031842F00000003FFFFFFFF16
S2144012B0FFFF0000000000000000000000000000EB
S2144012C00C010000000000000000000000000000CC
S2144012D000000000000200000002000000020000C3
S2144012E000020000000200000002000000020000B1
S2144012F000020000000200000002000000020000A1
S214401300000200002E2E2F68706C2F616665632FDA
S21440131068706C5F616665632E63000001000000C4
S214401320C0081000E80102002E2E2F68706C2F7542
S214401330736172742F68706C5F75736172742E631C
S21440134000000000040040200000000000000000F4
S2144013500000000000000000000000000000000048
S2144013600000000000000000000000000000000038
S2144013700000000000000000000000000000000028
S2144013800000000000000000000000000000000018
S2144013900000000000000000000000000000000008
S2144013A00000000000000000F8B500BFF8BC08BC14
S2144013B09E46704779014000F8B500BFF8BC08BCAF
S20C4013C09E46704755014000AF
S2144013C804004020000000006813400088134000D6
S2144013D84813400000000000000000000000000025
S2144013E800000000000000000000000000000000B0
S2144013F800000000000000000000000000000000A0
S214401408000000000000000000000000000000008F
S214401418000000000000000000000000000000007F
S208401428000000007B
S804400000BB
