S01B000054434C6974654472697665724578616D706C652E73726563AC
S214400000780A4020E5014000E1014000E10140005F
S214400010E1014000E1014000E10140000000000035
S214400020000000000000000000000000E101400069
S214400030E101400000000000E1014000E101400015
S214400040E1014000E1014000E1014000E1014000E3
S214400050E1014000E1014000E1014000E1014000D3
S214400060E101400000000000E1014000E1014000E5
S214400070E1014000E1014000E1014000E1014000B3
S214400080E1014000E1014000E1014000E1014000A3
S214400090E1014000E1014000E1014000E101400093
S2144000A0E1014000E1014000E1014000E101400083
S2144000B0E1014000E1014000E1014000E101400073
S2144000C0E1014000E1014000E1014000E101400063
S2144000D0E1014000E1014000E1014000E101400053
S2144000E0E1014000E1014000E1014000E101400043
S2144000F0E1014000E1014000E1014000A50440006C
S214400100E1014000E1014000E1014000E101400022
S214400110E1014000E1014000000000000000000056
S214400120E1014000E1014000E1014000E101400002
S214400130E1014000E1014000E1014000E1014000F2
S214400140E1014000E1014000E1014000E1014000E2
S214400150E1014000E1014000E1014000E1014000D2
S214400160E1014000E101400010B5054C237833B969
S214400170044B13B10448AFF300800123237010BD35
S2144001802C04402000000000800640000C4B43B189
S2144001900C480D4910B5AFF300800C48036823B9EE
S2144001A010BD0A48036833B97047094B002BF7D097
S2144001B0BDE810401847064B002BF5D0184700BF47
S2144001C000000000800640003004402080064000CA
S2144001D00000000008B5014B984708BDB502400036
S2144001E0FEE7000008B5104B104A9A4209D00E4B65
S2144001F00E4A03E011681960043304320C498B42FE
S214400200F8D30C4B02E000221A6004330A4A9342A9
S214400210F9D30A4A0A4B23F07F039360094B984769
S214400220094B9847FEE700BF00004020800640008C
S2144002302C0440202C0440207804402000ED00E0B0
S21440024000004000E9044000C5044000064B1A6F19
S21440025042F080421A675A6F22F080425A674FF047
S21440026080425A60704700BF00120E40104BD3F8D1
S214400270083113F4004F04D14FF400420C4BC3F83E
S21440028000210B4BD3F8083113F4803F04D14FF4D0
S2144002908032074BC3F80021054BD3F8083113F4DE
S2144002A0003F04D14FF40032014BC3F800217047A1
S2144002B000060E4008B50E4B98470E4B9B6913F44C
S2144002C0806F03D14FF480620A4B1A610A4A536822
S2144002D043F400435360094B4FF400021A631A611B
S2144002E01A60074B9847074B9847074B984708BDF7
S2144002F02903400000060E4050180E40000E0E40E7
S2144003006D0240004D0240002D044000EFF3108384
S214400310036072B6BFF35F8F7047BFF35F8F0368AB
S21440032083F310887047000000B583B001A80E4BD9
S21440033098470E4AD2F8883043F47003C2F88830A3
S214400340BFF34F8FBFF36F8F01A8094B9847094AF9
S214400350136823F4706343F4A0631360064B984716
S21440036003B05DF804FB00BF0D03400000ED00E065
S2144003701B034000000C0E40190440000E490A6A58
S21440038022F002020D4B13430B620B4B9B6E13F095
S214400390010FFAD0084B196A094A0A431A62996A49
S2144003A0084A0A409A62084A9A62034B9B6E13F0C8
S2144003B0020FFAD0704700BF00060E40013E3700DD
S2144003C000003701FFFF00F8013F1820114A136B69
S2144003D023F0700313630F4B9B6E13F0080FFAD095
S2144003E00C4A136B23F4407343F480731363094B36
S2144003F09B6E13F0080FFAD0064A136B23F00303E4
S21440040043F002031363034B9B6E13F0080FFAD0BE
S214400410704700BF00060E4008B5024B9847024B97
S214400420984708BD7D034000CD034000154B012290
S214400430C3F8C0200F22C3F8C42044F205025A6015
S2144004404FF4FA72DA61102159626FF01001996226
S2144004500D495964DA650D4AC3F8842040F24A22B1
S214400460C3F89C2000200A4B18600A4B4FF4004209
S214400470C3F88420BFF34F8FBFF36F8FC3F8842138
S2144004805A6070470040014006C4000C03C00C0090
S2144004904804402000E100E0022902D889010523F3
S2144004A04350704708B5044B1B6A04481840044B39
S2144004B01B6803B1984708BD00400140FF00070095
S2144004C04804402008B5054B9847054D022128466C
S2144004D0044CA04701212846A047FEE7D50140002E
S2144004E0004001409904400070B50F4E0F4D761BFA
S2144004F0B61018BF002405D0013455F8043B984781
S214400500A642F9D10A4E0B4D761B00F0A7F8B6105E
S21440051018BF002406D0013455F8043B9847A6423D
S214400520F9D170BD70BD00BF680640006806400047
S2144005307006400068064000024B13B1024800F0C7
S21440054005B87047000000005905400000230146EA
S2144005501A46184600F01EB838B50A4C0A4D641BB9
S214400560A4100AD004F18043013B05EB8305013C0F
S21440057055F804399847002CF9D1BDE8384000F0CA
S21440058077B800BF800640007C064000704700BF3A
S214400590704700BF2DE9F8432C4D0646286898461C
S2144005A00F469146FFF7F2FF294B1C68D4F84831B6
S2144005B0002B3ED05A681F2A1CDC02F1010E76B191
S2144005C003EB82010124C1F88890D3F88801944057
S2144005D02043022EC3F88801C1F8088123D0023296
S2144005E0C3F804E0286843F82270FFF7D1FF0020E4
S2144005F0BDE8F883174B0BB34FF4C870AFF30080D9
S2144006000346D8B1D4F848210260002141600A462A
S214400610C4F848014FF0010EC0F88811C0F88C119C
S214400620002EDCD0CCE7D3F88C110C43C3F88C41B9
S214400630D5E704F5A673C4F84831BBE72868FFF74A
S214400640A7FF4FF0FF30BDE8F88300BF28044020E6
S214400650580640000000000000004020F8B500BFEB
S214400660F8BC08BC9E467047390540008D014000E6
S214400670F8B500BFF8BC08BC9E467047690140000C
S21440068000000000EC02402054034020BC03402001
S2144006900000000000000000000000000000000015
S2144006A00000000000000000000000000000000005
S2144006B000000000000000000000000000000000F5
S2144006C000000000000000000000000000000000E5
S2144006D000000000000000000000000000000000D5
S2144006E000000000000000000000000000000000C5
S2144006F000000000000000000000000000000000B5
S21440070000000000000000000000000000000000A4
S2144007100000000000000000000000000000000094
S2144007200000000000000000010000000000000083
S2144007300E33CDAB34126DE6ECDE05000B00000048
S2144007400000000000000000000000000000000064
S2144007500000000000000000000000000000000054
S2144007600000000000000000000000000000000044
S2144007700000000000000000000000000000000034
S210400AA00000000000000000540440204D
S804400000BB
