:020000040040BA
:1000000030084020E5014000E1014000E1014000EE
:10001000E1014000E1014000E1014000000000007A
:10002000000000000000000000000000E1014000AE
:10003000E101400000000000E1014000E10140005A
:10004000E1014000E1014000E1014000E101400028
:10005000E1014000E1014000E1014000E101400018
:10006000E101400000000000E1014000E10140002A
:10007000E1014000E10140000D0C4000E1014000C1
:10008000E1014000E1014000E1014000E1014000E8
:10009000E1014000E1014000E1014000E1014000D8
:1000A000E1014000E1014000E1014000E1014000C8
:1000B000E1014000E1014000E1014000E1014000B8
:1000C000E1014000E1014000E1014000E1014000A8
:1000D000E1014000E1014000E1014000E101400098
:1000E000E1014000E1014000E1014000E101400088
:1000F000E1014000E1014000E1014000E101400078
:10010000E1014000E1014000E1014000E101400067
:10011000E1014000E101400000000000000000009B
:10012000E1014000E1014000E1014000E101400047
:10013000E1014000E1014000E1014000E101400037
:10014000E1014000E1014000E1014000E101400027
:10015000E1014000E1014000E1014000E101400017
:10016000E1014000E101400010B5054C237833B9AE
:10017000044B13B10448AFF300800123237010BD7A
:10018000DC00402000000000940E40000C4B43B106
:100190000C480D4910B5AFF300800C48036823B933
:1001A00010BD0A48036833B97047094B002BF7D0DC
:1001B000BDE810401847064B002BF5D0184700BF8C
:1001C00000000000940E4000E0004020940E40002B
:1001D0000000000008B5014B984708BD050340002A
:1001E000FEE7000008B5104B104A9A4209D00E4BAA
:1001F0000E4A03E011681960043304320C498B4243
:10020000F8D30C4B02E000221A6004330A4A9342EE
:10021000F9D30A4A0A4B23F07F039360094B9847AE
:10022000094B9847FEE700BF00004020940E4000B5
:10023000DC004020DC0040203002402000ED00E0E7
:1002400000004000750D4000B50C400008B50248A4
:10025000024B984708BD00BF10E000E04D0340008E
:10026000044B9B6913F4804F03D14FF48042014B40
:100270001A61704700060E400F4B1A6F22F40012ED
:100280001A675A6F22F400125A674FF400125A602C
:100290000A4AD2F8143143F01003C2F81431084B63
:1002A0001A6F42F010021A675A6F42F010025A6732
:1002B00010225A60704700BF000E0E4000800840B8
:1002C00000100E4010B582B0074B9847074B984777
:1002D000074B984700901023064A07490748084CE7
:1002E000A04702B010BD00BF61024000790240008B
:1002F000090C4000F800402000800240E00140204E
:100300001505400008B5064B9847064A536843F464
:1003100000435360044B9847044B984708BD00BF07
:100320003D07400050180E404D024000C5024000FD
:10033000EFF31083036072B6BFF35F8F7047BFF3B4
:100340005F8F036883F310887047000008B5024B85
:100350001860024B984708BD08014020550840002E
:1003600070B5164604460D46002818BF002914BF74
:100370000120002034220449044B98472368324668
:1003800029462046984770BDE40D400049064000CC
:1003900070B5164604460D46002818BF002914BF44
:1003A000012000203D220449044B984763683246EF
:1003B00029462046984770BDE40D4000490640009C
:1003C00008B500238362C3691BB1A0F1080210467F
:1003D000984708BD08B500238362436A1BB1A0F1AA
:1003E00008021046984708BD38B50446A0F1080534
:1003F0002C30034B9847236A0BB12846984738BDE9
:10040000D906400070B5154604460E46002818BFB0
:10041000002902D0DAB9002000E0002040F23B12AF
:100420000D490E4B9847B4F84420B4F84C309A422A
:100430000FD1A664A4F84C500023A4F84430012343
:10044000236304F10800064B9847284670BD01203D
:10045000E4E76FF01B0070BDF80D40004906400056
:10046000350B400010B50446838FB0F8442093420A
:1004700009D0026C591C8187D15C044B98472046F7
:10048000034B984710BD034B984710BD110B40001C
:10049000350B4000590B40002DE9F04182B0174662
:1004A00005468846002818BF002902D0A2B90020BE
:1004B00000E000204FF4AC721049114B984701A89E
:1004C000104B9847343528460F4B9847064601A8ED
:1004D0000E4B9847002407E00120EBE70134A4B25B
:1004E000414428460A4B98472146A64201D9BC42BE
:1004F000F4D3204602B0BDE8F08100BFF80D400003
:100500004906400031034000190740003F03400006
:1005100095064000F8B515461E4604460F460028CD
:1005200018BF002908D0131C18BF012316B10BB146
:10053000012002E0002000E000203A221049114B87
:1005400098473246294604F134000F4B9847A0B92A
:10055000394604F108000D4B9847034658B90C4A38
:1005600062600C4A22600C4AA2600C4AE2600C4AAB
:1005700022610C4A62611846F8BD6FF00C03FAE77D
:10058000F80D40004906400051064000310A400085
:10059000990440000504400065044000E903400060
:1005A000C1034000D503400010B50446612206494E
:1005B000003018BF0120054B984704F10800044B98
:1005C0009847002010BD00BFF80D400049064000CC
:1005D000DD0A400070B50C461646054683221749D1
:1005E000003018BF0120164B9847012C10D024B1C1
:1005F000022C18D06FF00C0070BDAE62321C18BF18
:100600000122012105F108000E4B9847002070BD22
:100610006E62321C18BF0122022105F10800094B4D
:100620009847002070BDEE62321C18BF01220321E2
:1006300005F10800034B9847002070BDF80D4000FD
:1006400049064000810B400000B900BE7047000021
:1006500070B5154604460E46002818BF002902D082
:100660007AB9002000E0002028220849084B98476A
:100670006B1E1D4207D163600020A060E060266011
:1006800070BD0120F0E76FF00C0070BD180E400047
:100690004906400038B504460D46002818BF002919
:1006A00014BF01200020402209490A4B9847E26804
:1006B000A3689A4209D0226861680B40D35C2B7012
:1006C000A3680133A360002038BD6FF0090038BD76
:1006D000180E40004906400038B50D460446512228
:1006E0000B49003018BF01200A4B98472268E36885
:1006F00061680B40D554E368A2689A1A61688A421F
:1007000001D9591AA1600133E360002038BD00BF50
:10071000180E40004906400010B5044667220549FE
:10072000003018BF0120044B9847E068A368C01A46
:1007300010BD00BF180E40004906400000B583B050
:1007400001A80E4B98470E4AD2F8883043F4700344
:10075000C2F88830BFF34F8FBFF36F8F01A8094BEA
:100760009847094A136823F4706343F4C063136025
:10077000064B984703B05DF804FB00BF310340000F
:1007800000ED00E03F034000000C0E402D0840004B
:100790000E490A6A22F002020D4B13430B620B4B07
:1007A0009B6E13F0010FFAD0084B196A094A0A43ED
:1007B0001A62996A084A0A409A62084A9A62034B86
:1007C0009B6E13F0020FFAD0704700BF00060E4078
:1007D000013E370000003701FFFF00F8013F1820FD
:1007E000114A136B23F0700313630F4B9B6E13F0CE
:1007F000080FFAD00C4A136B23F4407343F4807350
:100800001363094B9B6E13F0080FFAD0064A136B63
:1008100023F0030343F002031363034B9B6E13F0B7
:10082000080FFAD0704700BF00060E4008B5024B13
:100830009847024B984708BD91074000E1074000E8
:10084000034B6FF07F425A6005221A60704700BF69
:1008500010E000E008B5014B984708BD4108400092
:10086000034B984200D07047024B1960FBE700BF72
:10087000008002400C01402010B5044640F22F22B7
:100880000549003018BF0120044B98470448204414
:10089000C0F3873010BD00BF480E4000490640003D
:1008A00000C0FDBF10B504464FF42D720E49003054
:1008B00018BF01200D4B984720460D4B9847002349
:1008C00043B140F2BE2208490020084B984700235C
:1008D000184610BD03EB43018A0006498A5C90422A
:1008E000F6D00133DBB2EBE7480E4000490640008A
:1008F000790840003C0E400010B5044640F2CB227F
:100900001149003018BF0120104B98472046104B6A
:100910009847104BC4F8E430002363606362A3621D
:10092000AC2222604FF4807222604FF400222260D9
:1009300000EB40008100084A0A4452686260074A9E
:100940002262184610BD00BF480E40004906400014
:10095000A5084000004153553C0E4000F400010042
:1009600010B50446AE220649003018BF0120054BE1
:1009700098472046044B98470D30C0B210BD00BFC9
:10098000480E4000490640007908400010B5044672
:1009900040F289222349003018BF0120224B98479A
:1009A000A3695A6912F0020F03D01A6912F0020FFC
:1009B00018D15A6912F4007F03D01A6912F4007F2B
:1009C00016D15A6912F0010F1FD01A6912F0010FE7
:1009D0001BD05969154A114211D09A694FF480729F
:1009E0001A6010BD0222DA6023682046984710BDC5
:1009F0004FF40072DA60A3682046984710BD626821
:100A00009969C9B22046904710BD5969074A1142F9
:100A100000D110BD4FF480721A60E36820469847F9
:100A2000F7E700BF480E400049064000E000000123
:100A300070B50C460646D1222249003018BF01206D
:100A4000214B98472046214B9847054608B1284638
:100A500070BDB461314620461D4B984720461D4B62
:100A6000984743B2002B0DDB5B0900F01F00012209
:100A700002FA00F02033184A42F82300BFF34F8FE8
:100A8000BFF36F8F2046134B984743B2002B09DB0F
:100A90005B0900F01F00012202FA00F060330E4AE9
:100AA00042F8230020460B4B984743B2002BCEDB85
:100AB0005B0900F01F00012202FA00F0064A42F82A
:100AC0002300C4E7480E400049064000F9084000F2
:100AD000610840006109400000E100E070B50A4E85
:100AE000044640F213123146003018BF0120074D72
:100AF000A847A4694FF43D723146201C18BF01205D
:100B0000A8475023236070BD480E400049064000AE
:100B100038B50C46054640F2B5120449003018BFFE
:100B20000120034B9847AB69DC6138BD480E40009B
:100B30004906400010B5044640F21D220449003029
:100B400018BF0120034B9847A36902229A6010BD89
:100B5000480E40004906400010B5044640F22622E7
:100B60000549003018BF0120044B9847A3694FF492
:100B700000729A6010BD00BF480E40004906400058
:100B800070B50C46164605464FF414721B490030EA
:100B900018BF01201A4B9847C6B1022C18BF002C71
:100BA00004D0012C0AD0032C0CD070BDAB690222FA
:100BB0009A60AB694FF400729A6070BDAB69012214
:100BC0009A6070BDAB690F4A9A6070BD022C18BF65
:100BD000002C07D0012C0DD0032CE6D1AB69094ABB
:100BE000DA60E2E7AB690222DA60AB694FF40072C7
:100BF000DA6070BDAB690122DA6070BD480E40005A
:100C000049064000E00000010020704708B5024B93
:100C10001868024B984708BD0C0140208D09400020
:100C20007047000000B583B001220DF107011E4896
:100C30001E4B9847C0B21E4B1B7893B99DF80720F6
:100C40000D2A18BF0A2A27D0194B0121197000213B
:100C50005970597819440A715A781044C0B25870C2
:100C60001AE0134A53789DF807101344197153780A
:100C70001844C0B250700A2918BF0D2907D10123AA
:100C800082F8CC305378023BDBB282F8CD30084B8F
:100C90005B78DBB2C82B02D003B05DF804FB002206
:100CA000034B5A70F8E700BFE00140209103400079
:100CB0001001402080B584B0224B9847224D234A32
:100CC00001212846224CA047224A00212846A0475D
:100CD0002846214B9847214B01AC93E8070084E854
:100CE00007000C22214628461D4B984700230193FC
:100CF0006360A3601B4B1B78DBB2012BFAD1194B4D
:100D000093F8CC30DBB2012BF4D1164E002586F8D7
:100D1000CC50344604F8045BDFF85480C8273A46C8
:100D2000214608F10E00104B984796F8CD2010325E
:100D3000414605480A4B98473A46294620460B4B00
:100D40009847D7E7D5014000E0014020210C400042
:100D5000D5054000250C4000A9054000640E400068
:100D60006103400010014020BD0D4000D30D400044
:100D70000000402070B50D4E0D4CA41BA4100025A2
:100D8000A54209D10B4E0C4C00F074F8A41BA41022
:100D90000025A54205D170BD56F82530984701358C
:100DA000EEE756F8253098470135F2E7800E40000F
:100DB000800E4000800E4000840E400010B5431E9F
:100DC0000A44914200D110BD11F8014B03F8014FC4
:100DD000F7E702440346934200D1704703F8011B32
:100DE000F9E700002E2E2F68616C2F7372632F6855
:100DF000616C5F696F2E63002E2E2F68616C2F73FC
:100E000072632F68616C5F75736172745F6173796F
:100E10006E632E63000000002E2E2F68616C2F750C
:100E200074696C732F7372632F7574696C735F725E
:100E3000696E676275666665722E63000100000068
:100E4000C0081000F40001002E2E2F68706C2F7562
:100E5000736172742F68706C5F75736172742E6346
:100E600000000000737461727420747970696E6799
:100E700000000000F8B500BFF8BC08BC9E467047F3
:100E80008D014000F8B500BFF8BC08BC9E46704715
:040E900069014000B4
:100E9400596F7572206D6573736167653A20000040
:100EA400000000000000000000000000000000003E
:100EB400000000000000000000000000000000002E
:100EC400000000000000000000000000000000001E
:100ED400000000000000000000000000000000000E
:100EE40000000000000000000000000000000000FE
:100EF40000000000000000000000000000000000EE
:100F040000000000000000000000000000000000DD
:100F140000000000000000000000000000000000CD
:100F240000000000000000000000000000000000BD
:100F340000000000000000000000000000000000AD
:100F4400000000000000000000000000000000009D
:100F5400000000000000000000000000000000008D
:0C0F640000000000000000005945530090
:0400000500400000B7
:00000001FF
