:020000040040BA
:1000000010074020E5014000E1014000E10140000F
:10001000E1014000E1014000E1014000000000007A
:10002000000000000000000000000000E1014000AE
:10003000E101400000000000E1014000E10140005A
:10004000E1014000E1014000E1014000E101400028
:10005000E1014000E1014000E1014000E101400018
:10006000E10140000000000019094000E1014000EA
:10007000E1014000E1014000E1014000E1014000F8
:10008000E1014000E1014000E1014000E1014000E8
:10009000E1014000E1014000E1014000E1014000D8
:1000A000E1014000E1014000E1014000E1014000C8
:1000B000E1014000E1014000E1014000E1014000B8
:1000C000E1014000E1014000C90E4000E1014000B3
:1000D000E1014000E1014000E1014000E101400098
:1000E000E1014000E1014000E1014000E101400088
:1000F000E1014000E1014000E1014000E101400078
:10010000E1014000E1014000E1014000E101400067
:10011000E1014000E101400000000000000000009B
:10012000E1014000E1014000E1014000E101400047
:10013000E1014000E1014000E1014000E101400037
:10014000E1014000E1014000E1014000E101400027
:10015000E1014000E1014000E1014000E101400017
:10016000E1014000E101400010B5054C237833B9AE
:10017000044B13B10448AFF300800123237010BD7A
:100180000000402000000000A81540000C4B43B1C7
:100190000C480D4910B5AFF300800C48036823B933
:1001A00010BD0A48036833B97047094B002BF7D0DC
:1001B000BDE810401847064B002BF5D0184700BF8C
:1001C00000000000A815400004004020A8154000D1
:1001D0000000000008B5014B984708BDF902400037
:1001E000FEE7000008B5104B104A9A4209D00E4BAA
:1001F0000E4A03E011681960043304320C498B4243
:10020000F8D30C4B02E000221A6004330A4A9342EE
:10021000F9D30A4A0A4B23F07F039360094B9847AE
:10022000094B9847FEE700BF00004020A81540009A
:1002300000004020000040201001402000ED00E0C0
:1002400000004000D914400095144000064B1A6F7E
:1002500042F080421A675A6F22F080425A674FF08C
:1002600080425A60704700BF00120E40104BD3F816
:10027000083113F4004F04D14FF400420C4BC3F883
:1002800000210B4BD3F8083113F4803F04D14FF415
:100290008032074BC3F80021054BD3F8083113F423
:1002A000003F04D14FF40032014BC3F800217047E6
:1002B00000060E4008B50248024B984708BD00BF33
:1002C00010E000E069034000054BD3F8083113F05B
:1002D000040F03D10422024BC3F80021704700BF72
:1002E00000060E4008B5024B9847024B984708BDE0
:1002F000C90240005106400008B50B4B98470B4A15
:10030000536843F4004353600822094B5A61094B78
:100310009847094B9847094B9847094B9847094B11
:100320009847094B984708BDC506400050180E4035
:1003300000100E406D0240004D024000150A4000C2
:10034000B5024000E5024000C1034000EFF3108316
:10035000036072B6BFF35F8F7047BFF35F8F0368B0
:1003600083F310887047000008B5024B1860024BF9
:10037000984708BD1C004020090A400038B50125F7
:10038000002407E00D4A52F83330B3B1984738BD26
:100390000139CDB2AC4210D82B195B1013F0FF011C
:1003A0000BD1DBB2054A02EBC30252688242E9D0AC
:1003B0008242EDD20131CCB2ECE738BD20004020C2
:1003C00008B500231BB10848084B984708BD084AE8
:1003D00002EBC3014FF0FF304860002142F83310B8
:1003E00001339BB2EEE700BF7D03400025094000CA
:1003F000200040200023032B21DC134A02EB431290
:10040000517881421DD010B409E001335BB2032B57
:100410000FDC0D4A02EB4312517881420BD05A0196
:10042000094CA25C002AF0D100F00F028A42ECD104
:1004300001E04FF0FF3318465DF8044B70474FF072
:10044000FF331846704700BF280040200020704747
:1004500038B504460D46094B9847094B03EB40134A
:100460009B78032B01D0002038BD054B03EB4010D7
:10047000836929462046984738BD00BFF5034000F0
:10048000280040202DE9F04184B007460D469046F3
:10049000484B98470446484E06EB4016002D4FD176
:1004A000454A43010020F070D35C7BB1424B03EB23
:1004B000441301229A70404B03EB4414E369424613
:1004C000E1783846984704B0BDE8F081B37896F9F2
:1004D0000C40032B08D0F36906F10C020021707860
:1004E00098470223B370EEE7F36906F10C0201218D
:1004F0007078984770B10523B3700223F370002C15
:1005000006DB707840F0800001212C4B9847DAE739
:100510007078F9E70423B370737800220192029295
:1005200094420ADB43F080038DF80C3001238DF8F0
:100530000D3001A8224B9847C5E703F00F03F3E7FE
:10054000012D0AD0022D1CD0032D2AD01A4B03EB0B
:10055000401306229A70DA70ADE7174A4301D118AA
:100560000220C870D35C2BB1134B03EB441305225C
:100570009A70A0E70B469870002138460F4B9847B9
:1005800099E70D4A4301D1180420C870D35C2BB100
:10059000094B03EB441301229A708CE702238B7002
:1005A00091E7054B03EB401300229A700522DA70A5
:1005B00081E700BFF50340002800402019114000EA
:1005C000D11240002DE9F04105461D4B98470646E3
:1005D000440104F108031B4C1C4404342146284602
:1005E000194B9847C0B2082809D001212846174C5A
:1005F000A047012145F08000A047BDE8F08100211F
:100600002846124FB84745F0800800214046B847B9
:100610000C4B03EB461301229A705B692146284676
:10062000984708B1BDE8F081064B03EB4616052359
:10063000B37001212846B84701214046B847F1E789
:10064000F5034000280040205112400019114000DD
:1006500010B5124B984700281EDB8022002110485D
:10066000104B984700220AE00D4B03EB4213FF2189
:1006700059700D4959619961D9610132D2B2032A89
:10068000F2D90A4900200A4CA0470A490120A04794
:1006900009490220A047002010BD00BFC91040003A
:1006A00028004020371540004D044000C50540009B
:1006B00041144000510440008504400000B900BED0
:1006C0007047000000B583B001A80E4B98470E4A52
:1006D000D2F8883043F47003C2F88830BFF34F8FEC
:1006E000BFF36F8F01A8094B9847094A136823F499
:1006F000706343F4C0631360064B984703B05DF822
:1007000004FB00BF4D03400000ED00E05B03400030
:10071000000C0E40E109400030B400258D4210D29B
:10072000012200231F2B0AD850F82540224202D173
:1007300052000133F6E703EB451030BC704701353A
:10074000ECE74FF0FF30F8E710B586B000230193D7
:1007500002930393049305931B4B1868F8221B49DB
:10076000003018BF01201A4B98471A4AD36C926C7C
:10077000134001931FE0144B1B68204698476311F8
:1007800004F01F04012202FA04F406AA02EB830318
:1007900053F8142C22EA040243F8142C052101A872
:1007A0000D4B98470446B4F1FF3FE4D1094AD16CA0
:1007B000936C0B4001932BB1052101A8064B984780
:1007C0000446F0E706B010BDA80040206C154000BC
:1007D000BD064000000E0E401907400010B504464B
:1007E000D2220549003018BF0120044B9847044825
:1007F0002044C0F3472010BD6C154000BD064000EA
:1008000000F2F1BF10B50446E0220D49003018BFD8
:1008100001200C4B984720460B4B9847002313B1FF
:100820004FF0FF3010BDC3EBC3018A0007498A5C5B
:10083000904202D00133DBB2F1E758B210BD00BFE5
:100840006C154000BD064000DD0740004815400023
:1008500038B504464FF4AA722949003018BF012068
:10086000284B98472046284B9847002843DB274DC4
:10087000C200111A8B002B449968C4F8B010D968D3
:10088000C4F8C0101B69C4F8C4300023C4F8D030C9
:10089000101A83002B445B69C4F8D43020461C4BEB
:1008A0009847284490F91C30002B0CDB5A0903F0C0
:1008B0001F00012181402032164840F82210BFF36A
:1008C0004F8FBFF36F8F002B08DB5A0903F01F0017
:1008D0000121814060320F4840F82210002B0DDBCF
:1008E000590903F01F03012202FA03F3094A42F8EF
:1008F0002130002038BD6FF0100038BD002038BD19
:100900006C154000BD064000050840004815400039
:10091000DD07400000E100E008B5014B984708BD45
:100920004907400010B504460348044B9847044B60
:100930001C60002010BD00BF000E0E40510840009A
:10094000A80040200E490A6A22F002020D4B134310
:100950000B620B4B9B6E13F0010FFAD0084B196A18
:10096000094A0A431A62996A084A0A409A62084A7E
:100970009A62034B9B6E13F0020FFAD0704700BFD0
:1009800000060E40013E370000003701FFFF00F86F
:10099000013F1820114A136B23F0700313630F4BB0
:1009A0009B6E13F0080FFAD00C4A136B23F44073BC
:1009B00043F480731363094B9B6E13F0080FFAD056
:1009C000064A136B23F0030343F002031363034B44
:1009D0009B6E13F0080FFAD0704700BF00060E4060
:1009E00008B5024B9847024B984708BD450940009F
:1009F00095094000034B6FF07F425A6005221A6050
:100A0000704700BF10E000E008B5014B984708BDF3
:100A1000F5094000064B0122C3F8C0204FF41642EE
:100A20005A60044A5A64044AC3F88420002070477C
:100A30000040014003840C0006C0000C022902D8CB
:100A40008901052343507047022902D889010223F6
:100A5000435070477047002070470000837C03F0CC
:100A60000F03C27C02F00701012909D0174A03F1E4
:100A70005800042142F82010883342F823107047B0
:100A800010B512F0400F0ED0C27C6FF38612C27404
:100A90000E4903F16402012441F8224003F1580297
:100AA000022441F82240C27C6FF3C302C274074A99
:100AB00003F15804182142F82410883342F8231017
:100AC000034B9B68807C984710BD00BF00800340AB
:100AD000AC00402038B5847CFF2C03D0C37C13F0DD
:100AE000400F00D138BDC27C6FF38612C274034A36
:100AF000156982682046A847F4E700BFAC00402093
:100B000070B5154B1A6822F080021A601A6822F03C
:100B10007F021A601A6842F080021A60002417E00F
:100B20000E4EA5002B1998001030304403210430DC
:100B30000B4B98472A1993003344FF2283F8262051
:100B40002544AB001E44002386F827300134E4B26C
:100B5000032CE5D970BD00BF00800340AC004020ED
:100B6000D50A400008B5837C03F00F038833402189
:100B7000034A42F823100121024B984708BD00BFE9
:100B800000800340D50A4000F8B5837CC27C12F097
:100B9000400F31D003F00F0387684568AF4223D080
:100BA000ED1BB5F5803F28D8290402F09006802E71
:100BB00027D002F00702022A26D041F014015A1E63
:100BC000D2B206683744284C02F1310604EB06160F
:100BD000776041F0210104EB0214D4F81C4314F0B7
:100BE000100F15D082684260C27C02F09002902AF9
:100BF0001DD000211D4B9847F8BD00214FF48035D2
:100C0000D3E741F00801DAE7028A9542D7D8D4E762
:100C1000154C04EB0212C2F8181382682A44826051
:100C2000C5605A1E4FF000739340A361F8BD0E4992
:100C300003F15802012041F8220003F14C0251F85F
:100C4000222012F4803F03D003F1640241F8220015
:100C5000054903F17C02012041F822004FF4805243
:100C600002FA03F38B61F8BD00800340D50A40000F
:100C7000837CFF2B16D010B503F00F04C37C13F058
:100C8000400F08D041B164340121074B43F82410D0
:100C90001146064B984710BD58340221024B43F8C9
:100CA0002410F5E7704700BF00800340D50A4000DC
:100CB00010B5837C03F00F0358332024044941F816
:100CC0002340C17C0422C909024B984710BD00BFD4
:100CD00000800340710C4000F8B50446857C05F0A7
:100CE0000F053D4800EBC530E268268A40F2FF332D
:100CF0009E422AD0731E1BB213409AB294F813E09E
:100D00000EF00707A1686368994245D31EF0100FE3
:100D10001DD00022E260E37C62F30413E3742F4AE7
:100D200005F15803012142F82310082142F823104D
:100D300005F17C0342F82310012F4BD088354FF486
:100D40008042264B43F82520F8BD33B2D4E705F1A5
:100D500088030120214941F82300874204D04FF441
:100D6000805303FA05F54D61A1686160238A9A42B8
:100D700004D0002120461A4B9847F8BDE37C6FF35E
:100D80008613E374174BDB68A07C984710BBE37CA9
:100D900043F04003E374ECE79BB28AB29B1A9BB228
:100DA0009E4200D31E462368324619440E4B984794
:100DB000E660A3681E44A66005F158030121074AB6
:100DC00042F823108F4205D088354FF48042034B00
:100DD00043F82520F8BD00BF000010A000800340AC
:100DE000D50A4000AC004020211540002DE9F0411B
:100DF0000446867C06F00F062F4A06F14C0352F893
:100E00002330C3F30A53858801896D1A2B4901EBFE
:100E1000C631C77C07F0070706F158004FF0020EF5
:100E200042F820E0002B3AD0ADB29D4234D31D46AB
:100E30004FF000082068A3682A461844204B9847C2
:100E4000A3682B44A360E56006F188034FF480415A
:100E5000194A42F823102B46228A934222D2E37C7D
:100E60006FF30413E374012358EA030312D006F16D
:100E700088030221104A42F82310012F04D04FF4B6
:100E8000805303FA06F65661A3686360002120468A
:100E90000C4B9847BDE8F0814FF00108CAE74FF0CE
:100EA0000008D9E7A26863689A4201D20023DBE711
:100EB00000234FF00108D7E700800340000010A096
:100EC00021154000D50A4000F8B5754B5A681D69D8
:100ED0001540C5F309366D0E0CBF01240024002E09
:100EE00014BF002404F001040CB900247DE01A466C
:100EF0005B689BB21269134013F0040F0FD113F01B
:100F0000020F13D113F0700F17D113F0080F20D177
:100F100013F0010F2CD10024002CE6D0F8BD0422E0
:100F20005F4B9A605F4B1B689847F5E702225C4B6A
:100F30009A605C4B1B689847EEE7594B70229A60A9
:100F40005A6101229A61574B5B6800210220984741
:100F5000E2E7534B08229A6070225A6101279F6191
:100F6000514B98474F4B5B68002138469847D3E771
:100F70004B4B01229A605A6170229A61494B5B681F
:100F8000002104209847C7E7837C03F00F03012268
:100F90009A40164227D0424903F14C0251F82220D0
:100FA000703351F82330DBB21A401CD012F0400FDE
:100FB00017D1C37C13F0400F4FD013F0800F58D1DE
:100FC00012F0200F66D112F0020F66D1C37C03F03D
:100FD0000703012B07D112F0040F04D0334B9847BD
:100FE00001E0334B98470134E4B2032C96D82D4AE4
:100FF000A3001919880001461030104404300A4437
:1010000092F82630FF2BEED0002EBDD1002DEAD075
:10101000631EDBB2052BE6D8837C03F00F035F1E53
:101020000122BA401542DED0FBB21901214A5258C2
:1010300012F0010FD7D14FF00071B940184A516139
:1010400002EB0313D3F81C23120C03D083689B1A02
:1010500083604360184B9847C5E712F0040F05D131
:1010600012F0400FBFD0124B9847BCE70F4B984788
:10107000B9E712F0010F0AD1C37C03F00703012B7B
:10108000B1D112F0040FAED0084B9847ABE70B4B31
:101090009847A8E70A4B9847A5E70A4B9847A2E765
:1010A00000800340AC004020010B40005D0A40007E
:1010B000650B40001C830340890B4000D90C4000A5
:1010C000B10C4000ED0D400008B50E4BD3F80038D0
:1010D00013F4004F13D10C4B0C4A1A605A609A60FB
:1010E0000B49D9601A610B4B9847064B4FF00072C1
:1010F000C3F800284FF450621A60002008BD6FF05A
:10110000100008BD00800340AC004020550A40009C
:10111000570A4000010B400000F00F0000EB800276
:1011200093001033484A1344032800F283800433A9
:1011300001290AD0B9B300EB80008200424B13446E
:1011400093F82700C0F3C000704700EB80039A00BB
:101150003D4B134493F8263003F00F03032B6CD858
:1011600000EB80029100384A0A4492F8272012F0DE
:10117000080F65D1344A0A4492F8271041F008015B
:1011800082F82710314A03F17C00402142F82010F8
:101190004FF4805101FA03F393614FF4002342F8B6
:1011A0002030002070479A7C02F00F02D97C11F0A9
:1011B000080F47D010B4254802F188014FF40024ED
:1011C00040F82140402440F8214002F14C0150F801
:1011D000211011F0400F14D0014602F1580041F8DF
:1011E00020404FF480309040CC690443CC61CC69FE
:1011F00024EA0000C86102F17C004FF4802441F829
:101200002040D97C01F00701012907D0DA7C6FF377
:10121000C302DA7400205DF8044B70474C320B496E
:1012200051F8222012F0400FF4D1DA7C6FF3C302A0
:10123000DA74EFE76FF0110070476FF00900704744
:101240000020704700207047AC0040200080034021
:1012500010B400F00F0000F14C021B4B53F8222099
:10126000C2F30A520C46B1FA81F14909032888BF3A
:1012700041F0010109BB00F14003134951F823304B
:1012800013F4C05F1CD100F14C0351F8233013F06C
:10129000040F03D100205DF8044B70470B4B03EBA8
:1012A000C03319685B682160636000F15803042053
:1012B000054941F823001046EDE76FF01100EAE719
:1012C0006FF01200E7E700BF00800340000010A0AD
:1012D0002DE9F04F85B0077A07F00F047FB24FEA8F
:1012E000D779524AA30019198D00103515440435D9
:1012F00089000A44968C40F2FF339E4201D0013EA1
:10130000B6B243681E4004EB84039A00474B134473
:1013100093F8273003F0070A032C00F2838013F0C0
:10132000080F03D0022005B0BDE8F08F804603A867
:101330003F4B984704EB84039A003C4B134493F8CB
:10134000273013F0400F28D1A30023449A00374BD5
:1013500003EB020B0BF120031946DB7943F040034A
:101360000191CB7103A8334B9847D8F80030CBF8E4
:101370001430D8F80430CBF818300023CBF81C30E8
:10138000CBF820300199CB7969F3C713CB7198F86A
:1013900009303BB186B3002105E003A8254B9847EF
:1013A0000120C0E7002104EB84039A001F4B134483
:1013B00093F8272061F3041283F82720631EDBB221
:1013C000052B1BD9BAF1010F04D04FF48053A34071
:1013D000194A9361184A04F1400152F8213023F46C
:1013E000007342F82130002F15DB7C340222124BAF
:1013F00043F82420002096E70121D4E70E4A403428
:1014000052F8243043F4007342F8243028460B4B42
:101410009847002087E77C340122074B43F82420BB
:10142000002080E76FF011007DE700BFAC00402096
:101430004D0340005B03400000800340890B4000E7
:101440000B4629B130B1012807D0022808D07047D7
:10145000054BF7E7054A93607047044AD36070472D
:10146000024A1361F3E700BF550A4000AC00402078
:101470004209074B03EB4223DA6B00F01F00012304
:1014800003FA00F0024214BF18460020704700BF64
:10149000000E0E4008B50A4B98470A480A4B984779
:1014A00003E001210748094B98472320084B984740
:1014B0000028F6D001210348064B9847F5E700BF06
:1014C000D50140000000014069034000490A400086
:1014D000711440003D0A400070B50D4E0D4CA41B28
:1014E000A4100025A54209D10B4E0C4C00F04CF87D
:1014F000A41BA4100025A54205D170BD56F82530C7
:1015000098470135EEE756F8253098470135F2E760
:101510009415400094154000941540009815400023
:1015200010B5431E0A44914200D110BD11F8014B81
:1015300003F8014FF7E702440346934200D1704796
:1015400003F8011BF9E700000000000000000000A4
:10155000000000000000000000000000000000008B
:10156000000000000A0B0C10110000002E2E2F6846
:10157000706C2F70696F2F68706C5F70696F5F653A
:1015800078742E6300000000F8B500BFF8BC08BCFA
:101590009E4670478D014000F8B500BFF8BC08BCFE
:0815A0009E46704769014000FE
:0400000500400000B7
:00000001FF
