S00E00004144435350492E7372656362
S21440000088174020E5014000E1014000E101400042
S214400010E1014000E1014000E10140000000000035
S214400020000000000000000000000000E101400069
S214400030E101400000000000E1014000E101400015
S214400040E1014000E1014000E1014000E1014000E3
S214400050E1014000E1014000E1014000E1014000D3
S214400060E101400000000000E1014000E1014000E5
S214400070E1014000E101400071144000E101400010
S214400080E1014000E1014000E1014000E1014000A3
S214400090E1014000E1014000E101400089104000DC
S2144000A0E1014000E1014000E1014000E101400083
S2144000B0E1014000E1014000E1014000E101400073
S2144000C0E1014000E1014000E1014000E101400063
S2144000D0E1014000E1014000E1014000E101400053
S2144000E0E1014000E1014000E1014000E101400043
S2144000F0E1014000E1014000E1014000E101400033
S214400100E1014000E1014000E1014000E101400022
S214400110E1014000E1014000000000000000000056
S214400120E1014000E1014000E1014000E101400002
S214400130E1014000E1014000E1014000E1014000F2
S214400140E1014000E1014000E1014000E1014000E2
S214400150E1014000E1014000E1014000E1014000D2
S214400160E1014000E101400010B5054C237833B969
S214400170044B13B10448AFF300800123237010BD35
S2144001802400402000000000F41840000C4B43B10F
S2144001900C480D4910B5AFF300800C48036823B9EE
S2144001A010BD0A48036833B97047094B002BF7D097
S2144001B0BDE810401847064B002BF5D0184700BF47
S2144001C000000000F418400028004020F4184000CA
S2144001D00000000008B5014B984708BD09044000E0
S2144001E0FEE7000008B5104B104A9A4209D00E4B65
S2144001F00E4A03E011681960043304320C498B42FE
S214400200F8D30C4B02E000221A6004330A4A9342A9
S214400210F9D30A4A0A4B23F07F039360094B984769
S214400220094B9847FEE700BF00004020F418400006
S21440023024004020240040208811402000ED00E0AB
S21440024000004000311740006516400008B5084BD6
S2144002509B6913F4000F03D14FF40002044B1A615C
S214400260044B9847024604490448054B984708BD46
S21440027000060E408510400000C00040CC014020E3
S21440028021074000114B1A6F42F480121A675A6FCA
S21440029022F480125A674FF480125A601A6F42F462
S2144002A000121A675A6F22F400125A674FF400126F
S2144002B05A601A6F42F480021A675A6F22F480021C
S2144002C05A674FF480025A60704700BF00140E40D1
S2144002D0044B9B6913F4001F03D14FF40012014BEB
S2144002E01A61704700060E4010B5084B9847084BF9
S2144002F09847084C01462046074B984707492046F2
S214400300074B9847074B984710BD00BFD1024000A7
S214400310350F400064014020ED044000008000405E
S2144003200D05400085024000054BD3F8083113F018
S214400330007F04D14FF00072014BC3F80021704794
S21440034000060E4008B5034B984703490348044B44
S214400350984708BD29034000000007405C01402044
S214400360C1044000044B9B6913F4804F03D14FF403
S2144003708042014B1A61704700060E400F4B1A6FC1
S21440038022F400121A675A6F22F400125A674FF48A
S21440039000125A600A4AD2F8143143F01003C2F8E9
S2144003A01431084B1A6F42F010021A675A6F42F027
S2144003B010025A6710225A60704700BF000E0E4067
S2144003C00080084000100E4010B582B0074B98479A
S2144003D0074B9847074B984700901023064A074913
S2144003E00748084CA04702B010BD00BF6503400058
S2144003F07D0340006D1440004000402000800240D5
S2144004007C0140209509400008B5084B9847084AAB
S214400410536843F400435360064B9847064B98474F
S214400420064B9847064B984708BD00BF350C400022
S21440043050180E40E90240004D024000450340007F
S214400440C9034000EFF31083036072B6BFF35F8FBB
S2144004507047BFF35F8F036883F3108870470000D0
S21440046070B5164604460D46002818BF002914BF2E
S2144004700120002034220449044B98472368324622
S21440048029462046984770BD78174000C90A400064
S21440049070B5164604460D46002818BF002914BFFE
S2144004A0012000203D220449044B984763683246A9
S2144004B029462046984770BD78174000C90A400034
S2144004C038B50D46044629220549003018BF01209C
S2144004D0044B984729462046034B984738BD00BFF3
S2144004E08C174000C90A40009D10400038B50D46A4
S2144004F0044639220349003018BF0120024B984772
S214400500256038BDA8174000C90A400038B50446E3
S2144005100D46002818BF002914BF012000204022A5
S21440052009490A4B9847204640F8045F2946084B3D
S2144005309847002807DB4FF40043A382054B23610E
S214400540054BE360002038BDA8174000C90A4000AC
S214400550590D400001064000C505400010B5044650
S21440056057220549003018BF0120044B9847201DEC
S214400570034B984710BD00BFA8174000C90A40006B
S214400580010E400030B585B005460C46002818BF21
S214400590002914BF01200020B3220749074B984783
S2144005A02368019363680293A368039301A9281DF7
S2144005B0034B984705B030BDA8174000C90A400015
S2144005C0350E400070B584B00E4615460446A3224C
S2144005D00849003018BF0120074B98470023029374
S2144005E00196039501A9A4F10C00044B984704B06A
S2144005F070BD00BFA8174000C90A400085054000EE
S21440060070B584B00E461546044687220849003029
S21440061018BF0120074B9847029600230193039585
S21440062001A9A4F10C00044B984704B070BD00BF6C
S214400630A8174000C90A40008505400038B5044662
S2144006400D46002818BF002914BF01200020BD22F7
S2144006500349044B98470C342C60002038BD00BF3B
S214400660A8174000C90A4000F8B5076817B13C46CD
S21440067000260BE00E4B9847F8BDA5682B449B1A06
S21440068001338D68AB4209D22646246834B163688C
S2144006909342F2D8A5689B1A2B44F2E7BC4203D09B
S2144006A03046044B9847F8BD014B9847F8BD00BF0D
S2144006B0E50A4000110B4000F8B54469066901366A
S2144006C00661037E13F0010F05D1037E13F0020F7F
S2144006D001D1054609E0037E43F002030376F8BDE8
S2144006E06F69E368204698473C469CB16368F31AB6
S2144006F0A26893420ED305F114073846064B984736
S214400700237C012BECD16660324621463846034BAB
S2144007109847E5E7F8BD00BF190B40006906400062
S21440072038B504460D46002818BF002914BF0120DE
S21440073000203B220549064B984729462046054B54
S214400740984700202061044B236038BDC417400002
S214400750C90A40009D0F4000B906400010B5044647
S21440076053220949003018BF0120084B98472046BD
S214400770074B984720B92046064B9847002010BDA7
S2144007806FF0100010BD00BFC4174000C90A4000FB
S214400790611040005910400070B582B004460D46C6
S2144007A0002818BF002914BF012000207A221D49C6
S2144007B01D4B9847237E43F00103237604F114062D
S2144007C029463046194B984788B923696B60226999
S2144007D029463046164B9847237E03F0FE03237681
S2144007E0237E13F0020F0ED1002002B070BD237E90
S2144007F003F0FE0323767F220A4900200A4B9847DF
S2144008006FF01100F1E701A80A4B9847237E03F0EA
S214400810FD0323762046084B984701A8074B984788
S2144008200020E2E7C4174000C90A4000CF0A400053
S21440083069064000450440006D10400053044000E7
S21440084008B500238362C3691BB1A0F108021046B5
S214400850984708BD08B500238362436A1BB1A0F1E0
S21440086008021046984708BD38B50446A0F108056A
S2144008702C30034B9847236A0BB12846984738BD1F
S214400880B10B400070B5154604460E46002818BF0A
S214400890002902D0DAB9002000E0002040F23B12E6
S2144008A00D490E4B9847B4F84420B4F84C309A4261
S2144008B00FD1A664A4F84C500023A4F8443001237A
S2144008C0236304F10800064B9847284670BD012074
S2144008D0E4E76FF01B0070BDDC174000C90A40001B
S2144008E09913400010B50446838FB0F844209342D5
S2144008F009D0026C591C8187D15C044B984720462E
S214400900034B984710BD034B984710BD75134000E6
S21440091099134000BD1340002DE9F04182B01746C0
S21440092005468846002818BF002902D0A2B90020F4
S21440093000E000204FF4AC721049114B984701A8D4
S214400940104B9847343528460F4B9847064601A823
S2144009500E4B9847002407E00120EBE70134A4B291
S214400960414428460A4B98472146A64201D9BC42F4
S214400970F4D3204602B0BDE8F08100BFDC1740004B
S214400980C90A400045044000F10B400053044000B3
S2144009906D0B4000F8B515461E4604460F46002827
S2144009A018BF002908D0131C18BF012316B10BB17D
S2144009B0012002E0002000E000203A221049114BBE
S2144009C098473246294604F134000F4B9847A0B961
S2144009D0394604F108000D4B9847034658B90C4A6F
S2144009E062600C4A22600C4AA2600C4AE2600C4AE2
S2144009F022610C4A62611846F8BD6FF00C03FAE7B4
S214400A00DC174000C90A4000290B40009512400000
S214400A101909400085084000E50840006908400084
S214400A20410840005508400010B50446612206497A
S214400A30003018BF0120054B984704F10800044BCE
S214400A409847002010BD00BFDC174000C90A400090
S214400A504113400070B50C4616460546832217499A
S214400A60003018BF0120164B9847012C10D024B1F7
S214400A70022C18D06FF00C0070BDAE62321C18BF4E
S214400A800122012105F108000E4B9847002070BD59
S214400A906E62321C18BF0122022105F10800094B84
S214400AA09847002070BDEE62321C18BF0122032119
S214400AB005F10800034B9847002070BDDC17400046
S214400AC0C90A4000E513400000B900BE70470368FD
S214400AD01BB18B4203D01B68FAE700207047012009
S214400AE07047000038B504460D46064B984780F0E0
S214400AF0010039220449C0B2044B984723682B6052
S214400B00256038BDCF0A4000FC174000C90A4000A7
S214400B1003680B600160704703681BB11A68026087
S214400B20184670470020704770B5154604460E4676
S214400B30002818BF002902D07AB9002000E0002023
S214400B4028220849084B98476B1E1D4207D1636010
S214400B500020A060E060266070BD0120F0E76FF0E6
S214400B600C0070BD1C184000C90A400038B5044649
S214400B700D46002818BF002914BF0120002040223F
S214400B8009490A4B9847E268A3689A4209D0226806
S214400B9061680B40D35C2B70A3680133A3600020D0
S214400BA038BD6FF0090038BD1C184000C90A400027
S214400BB038B50D46044651220B49003018BF012077
S214400BC00A4B98472268E36861680B40D554E3684F
S214400BD0A2689A1A61688A4201D9591AA1600133FB
S214400BE0E360002038BD00BF1C184000C90A400022
S214400BF010B5044667220549003018BF0120044B53
S214400C009847E068A368C01A10BD00BF1C18400093
S214400C10C90A400043B2002B09DB5B0900F01F0005
S214400C20012202FA00F04033014A42F8230070479E
S214400C3000E100E000B583B001A80E4B98470E4A8D
S214400C40D2F8883043F47003C2F88830BFF34F8F31
S214400C50BFF36F8F01A8094B9847094A136823F4DE
S214400C60706343F4C0631360064B984703B05DF867
S214400C7004FB00BF4504400000ED00E05304400084
S214400C80000C0E40250D40000E490A6A22F0020272
S214400C900D4B13430B620B4B9B6E13F0010FFAD0B8
S214400CA0084B196A094A0A431A62996A084A0A406E
S214400CB09A62084A9A62034B9B6E13F0020FFAD070
S214400CC0704700BF00060E40013E37000000370167
S214400CD0FFFF00F8013F1820114A136B23F0700302
S214400CE013630F4B9B6E13F0080FFAD00C4A136B2E
S214400CF023F4407343F480731363094B9B6E13F0E5
S214400D00080FFAD0064A136B23F0030343F002039E
S214400D101363034B9B6E13F0080FFAD0704700BF67
S214400D2000060E4008B5024B9847024B984708BD50
S214400D30890C4000D90C4000012303600020704716
S214400D40044B0344C3F30743052B01D000207047F0
S214400D50012070470080FFBF70B506460C46084627
S214400D60204B984700233BB300254FF49A721E4908
S214400D70002E18BF002C14BF012000201B4B9847A4
S214400D8055B3236913F4803F29D180232360346010
S214400D906A68174B13402360AB68164A1A40164BD6
S214400DA013436360EB6823632B8AF380EB6803F09E
S214400DB0F0033371002070BD03EB83018A000F49B6
S214400DC08A5C904202D00133DBB2CCE703EB83056A
S214400DD0AB000D461D44C8E76FF00C0070BD6FF0C9
S214400DE0100070BD410D400054184000C90A400034
S214400DF07CFFFFFE6FFFF1FF10000E004018400022
S214400E0010B5044668B103684BB101204FF4B9727F
S214400E100549064B98472068054B984710BD00206B
S214400E20F4E70020F2E700BF54184000C90A40002B
S214400E30390D40002DE9F04186B007460D4604685E
S214400E400B6801934B680293002303930493037942
S214400E508DF81430261C18BF012640F23122334943
S214400E6000280CBF002006F00100314B984723694C
S214400E7013F4803F22D16FF0130053E0002335E097
S214400E80507841EA00210232019201330393E16037
S214400E90D4F8108040F2222224493046244B98470A
S214400EA018F0080F38D06FF01200002836DB039891
S214400EB0AB68984202D3049A93422FD9236913F021
S214400EC0010FDBD0A3689BB2029A5AB1511C029123
S214400ED013709DF81420012A04D90A460131029164
S214400EE01B0A1370049B013304930123002BCFD1BC
S214400EF0039B049A9A42CBD3F988226912F0020FD8
S214400F00C6D0019A002AC0D0511C019111789DF894
S214400F1014000128B4D8B8E70020C6E7236913F4C4
S214400F20007FFBD006B0BDE8F08100BF54184000FB
S214400F30C90A40000020704700233BB1002070479C
S214400F4003EBC304A300084618440CE010B403EBBC
S214400F50C3018A0005498A588242F1D00133DBB288
S214400F60002BF4D000205DF8044B70470000402072
S214400F70034B984200D07047024B1960FBE700BF16
S214400F8000C000405000402008B5C3681B6A13F0FC
S214400F90100F00D108BD03689847FBE7F8B5074631
S214400FA00C460846274B984705468668FC609122C3
S214400FB025490120254B984716F4004F01D046F4AA
S214400FC0142666606B696361AB69A361EB68236353
S214400FD0EB69E361102363622B69C4F8D830394665
S214400FE020461B4B984795F90430002B0DDB5A09D9
S214400FF003F01F03012101FA03F32032154941F89B
S2144010002230BFF34F8FBFF36F8F95F90430002B1C
S21440101009DB5A0903F01F03012101FA03F360328A
S2144010200C4941F8223095F90430002B08DB590969
S21440103003F01F03012202FA03F3064A42F8213066
S2144010400020F8BD390F40006C184000C90A400027
S214401050710F400000E100E0C36805221A60704747
S214401060C368186AC0F300407047000008B5C068FF
S214401070024B98470079024B984708BD390F40000D
S214401080150C40000020704708B5024B1868024B0C
S214401090984708BD50004020890F400038B50446A8
S2144010A00D46002818BF002914BF01200020282222
S2144010B00349044B9847256020232371002038BD00
S2144010C080184000C90A4000034B984200D0704741
S2144010D0024B1960FBE700BF0080024054004020EE
S2144010E010B5044640F22F220549003018BF0120B3
S2144010F0044B984704482044C0F3873010BD00BFD7
S214401100A4184000C90A400000C0FDBF10B5044600
S2144011104FF42D720E49003018BF01200D4B9847F2
S21440112020460D4B9847002343B140F2BE22084963
S2144011300020084B98470023184610BD03EB430198
S2144011408A0006498A5C9042F6D00133DBB2EBE770
S214401150A4184000C90A4000E1104000981840001A
S21440116010B5044640F2CB221149003018BF01208A
S214401170104B98472046104B9847104BC4F8E43025
S214401180002363606362A362AC2222604FF48072E5
S21440119022604FF40022226000EB40008100084AA3
S2144011A00A445268626040F216522262184610BDE7
S2144011B0A4184000C90A40000D1140000041535594
S2144011C09818400010B50446AE220649003018BFB5
S2144011D00120054B98472046044B98470D30C0B237
S2144011E010BD00BFA4184000C90A4000E1104000EE
S2144011F010B5044640F289222349003018BF01202A
S214401200224B9847A3695A6912F0020F03D01A6915
S21440121012F0020F18D15A6912F4007F03D01A69EF
S21440122012F4007F16D15A6912F0010F1FD01A69C6
S21440123012F0010F1BD05969154A114211D09A6914
S2144012404FF480721A6010BD0222DA60236820468E
S214401250984710BD4FF40072DA60A368204698475E
S21440126010BD62689969C9B22046904710BD596959
S214401270074A114200D110BD4FF480721A60E368ED
S21440128020469847F7E700BFA4184000C90A400028
S214401290E000000170B50C460646D12222490030D7
S2144012A018BF0120214B98472046214B98470546BA
S2144012B008B1284670BDB461314620461D4B98475C
S2144012C020461D4B984743B2002B0DDB5B0900F0D0
S2144012D01F00012202FA00F02033184A42F8230089
S2144012E0BFF34F8FBFF36F8F2046134B984743B2E1
S2144012F0002B09DB5B0900F01F00012202FA00F018
S21440130060330E4A42F8230020460B4B984743B2C0
S214401310002BCEDB5B0900F01F00012202FA00F032
S214401320064A42F82300C4E7A4184000C90A400011
S21440133061114000C9104000C511400000E100E0C6
S21440134070B50A4E044640F213123146003018BFBC
S2144013500120074DA847A4694FF43D723146201C32
S21440136018BF0120A8475023236070BDA418400032
S214401370C90A400038B50C46054640F2B512044945
S214401380003018BF0120034B9847AB69DC6138BD7D
S214401390A4184000C90A400010B5044640F21D2279
S2144013A00449003018BF0120034B9847A369022226
S2144013B09A6010BDA4184000C90A400010B5044603
S2144013C040F226220549003018BF0120044B9847BA
S2144013D0A3694FF400729A6010BD00BFA418400085
S2144013E0C90A400070B50C46164605464FF41472BE
S2144013F01B49003018BF01201A4B9847C6B1022C33
S21440140018BF002C04D0012C0AD0032C0CD070BD81
S214401410AB6902229A60AB694FF400729A6070BD65
S214401420AB6901229A6070BDAB690F4A9A6070BD85
S214401430022C18BF002C07D0012C0DD0032CE6D16F
S214401440AB69094ADA60E2E7AB690222DA60AB6967
S2144014504FF40072DA6070BDAB690122DA6070BD8D
S214401460A4184000C90A4000E00000010020704770
S21440147008B5024B1868024B984708BD54004020F8
S214401480F11140000B490B6801330B604A6801328A
S2144014904A601D2A04D90A46012111720021516072
S2144014A0B3F57A7F05D3034B00221A60DA6801321F
S2144014B0DA607047580040207047000030B4164C41
S2144014C022694FF47A73154D03FB0151885401325B
S2144014D0134981FB0231D317C3EBA10303EB83030C
S2144014E05900531A642202FB03F323616269934254
S2144014F001D030BC70470132094981FB0231D31715
S214401500C3EBA10303EB83035900531A642202FB87
S21440151003F36361EDE700BF58004020E801402038
S2144015206766666670B584B003A91348134B984740
S214401530134B1B680193002519E004AB2B4413F8AA
S2144015400C4C630904F01F04012202FA04F40D4E09
S21440155006EB432674630DF10B0103980A4B98473C
S214401560346329469DF80B00084B98470135032DF8
S214401570E3DD04B070BD00BF640140203D0640007E
S214401580C0184000000E0E4091044000BD144000BC
S2144015900F4A53691269934217D04FF47A710D4A35
S2144015A001FB0020C05CC0B25A1C0B4981FB0231D3
S2144015B0D317C3EBA10303EB83035900531A6422EA
S2144015C002FB03F3024A53617047FF20704700BF97
S2144015D058004020E80140206766666630B585B012
S2144015E000240094019402948DF80C40194A137E0E
S2144015F08DF8003013688DF80130C3F307218DF85D
S2144016000210C3F307418DF803101B0E8DF804300B
S214401610D3688DF80530C3F307228DF80620C3F350
S21440162007428DF807201B0E8DF8083009E004F1BC
S2144016300905E0B2084B984704AB1D4405F8100C6A
S2144016400134032CF3DD0D2269460448044B9847C9
S21440165005B030BD58004020911540007C01402028
S2144016606104400030B585B0204B9847204901249E
S2144016704C62204B8B6281F82C401F4D1C31284613
S2144016801E4B984728461E4B98471E4B4FF080529D
S2144016901A614FF000521A614FF080421A614FF0C3
S2144016A000421A611848194B9847194D194A214665
S2144016B02846194B98472846184B984748B901ABD7
S2144016C0174A07CA83E807000C2219462846154BD6
S2144016D09847154B9847064B1B7A002BF9D0134B6F
S2144016E098470022024B1A72F3E700BFD50140002C
S2144016F05800402085144000CC0140209907400007
S2144017005D074000000E0E40640140205D0540002D
S2144017107C014020B9144000550A4000290A400088
S214401720C41840006104400025154000DD15400007
S21440173070B50D4E0D4CA41BA4100025A54209D132
S2144017400B4E0C4C00F0C6F8A41BA4100025A54276
S21440175005D170BD56F8253098470135EEE756F866
S214401760253098470135F2E7E0184000E018400081
S214401770E0184000E41840002E2E2F68616C2F734E
S21440178072632F68616C5F696F2E63002E2E2F6820
S214401790616C2F7372632F68616C5F72616E645FF9
S2144017A073796E632E6300002E2E2F68616C2F7344
S2144017B072632F68616C5F7370695F6D5F73796E7B
S2144017C0632E63002E2E2F68616C2F7372632F6812
S2144017D0616C5F74696D65722E6300002E2E2F68F3
S2144017E0616C2F7372632F68616C5F75736172747E
S2144017F05F6173796E632E63000000002E2E2F68A3
S214401800616C2F7574696C732F7372632F7574696E
S2144018106C735F6C6973742E630000002E2E2F6805
S214401820616C2F7574696C732F7372632F7574694E
S2144018306C735F72696E676275666665722E63006A
S21440184000000000000000800100000002DC96045A
S214401850FFFF00002E2E2F68706C2F7370692F6864
S214401860706C5F7370692E63000000002E2E2F6828
S214401870706C2F74632F68706C5F74632E63000007
S2144018802E2E2F68706C2F74726E672F68706C5F88
S21440189074726E672E63000001000000C0091000DD
S2144018A0160500002E2E2F68706C2F7573617274AB
S2144018B02F68706C5F75736172742E630000000051
S2144018C01C1D1E1F53657269616C207265616479C8
S2144018D000000000F8B500BFF8BC08BC9E46704744
S2144018E08D014000F8B500BFF8BC08BC9E46704766
S2084018F06901400005
S2144018F400C000401700000001C0000000000000C7
S214401904000000009F240000000000003E49000044
S208401914000000008A
S804400000BB
