S00E00004144435350492E7372656362
S214400000C01B40208D034000890340008903400008
S2144000108903400089034000890340000000000037
S21440002000000000000000000000000089034000BF
S2144000308903400000000000890340008903400017
S214400040890340008903400089034000890340003B
S214400050890340008903400089034000890340002B
S21440006089034000000000008903400089034000E7
S2144000708903400089034000C916400089034000B8
S21440008089034000890340008903400089034000FB
S214400090890340008903400089034000C91240009C
S2144000A08903400089034000DD1240008903400078
S2144000B089034000890340008903400089034000CB
S2144000C089034000890340008903400089034000BB
S2144000D089034000890340008903400089034000AB
S2144000E0890340008903400089034000890340009B
S2144000F0890340008903400089034000890340008B
S214400100890340008903400089034000890340007A
S2144001108903400089034000000000000000000002
S214400120890340008903400089034000890340005A
S214400130890340008903400089034000890340004A
S214400140890340008903400089034000890340003A
S214400150890340008903400089034000890340002A
S214400160890340008903400010B5054C237833B915
S214400170044B13B10448AFF300800123237010BD35
S2144001804C00402000000000BC1C40000C4B43B11B
S2144001900C480D4910B5AFF300800C48036823B9EE
S2144001A010BD0A48036833B97047094B002BF7D097
S2144001B0BDE810401847064B002BF5D0184700BF47
S2144001C000000000BC1C400050004020BC1C40000A
S2144001D00000000008B5014B984708BDE9054000FF
S2144001E084B070B504AC84E80F00114B93F8FA5213
S2144001F0092D19D81E4693F8F9424C20024604A908
S21440020000FB04300B4B9847621C0B4981FB0231C4
S214400210D317C3EBA10303EB83035900531A86F8A5
S214400220F932013586F8FA52BDE8704004B070479E
S21440023068004020291B4000676666662DE9F0434B
S214400240A7B005461A4B93F8FA4284B94C24224686
S21440025000210DEB0400174B984722460DEB040196
S2144002602846154B9847284627B0BDE8F0831E46DB
S21440027093F8F8924C273A4607FB09316846DFF870
S2144002803880C04709F101020C4981FB0231D3177F
S214400290C3EBA10303EB83035900531A86F8F832E5
S2144002A0013C86F8FA423A4669462846C047DAE7AD
S2144002B0680040203F1B4000291B4000676666667A
S2144002C0F0B484B004AC04E90F00124B93F89E637C
S2144002D0092E1BD81F4693F89D4303EB041505F5DE
S2144002E03F7504AB13E90F0085E80F00621C0A490E
S2144002F081FB0231D317C3EBA10303EB8303590001
S214400300531A87F89D33013687F89E6304B0F0BCD5
S214400310704700BF6800402067666666F0B589B0E3
S2144003200446174B93F89E635EB904AB00220492D2
S2144003300592069207920FCB84E80F00204609B03C
S214400340F0BD9E4693F89C7303EB071303F53F738B
S2144003500FCB8DE80F007A1C0A4981FB0231D31778
S214400360C3EBA10303EB83035900531A8EF89C3367
S214400370013E8EF89E639DE80F0084E80F00DDE79F
S2144003806800402067666666FEE7000008B5104BCA
S214400390104A9A4209D00E4B0E4A03E01168196083
S2144003A0043304320C498B42F8D30C4B02E0002253
S2144003B01A6004330A4A9342F9D30A4A0A4B23F096
S2144003C07F039360094B9847094B9847FEE700BF69
S2144003D000004020BC1C40004C0040204C00402008
S2144003E0BC15402000ED00E000004000E11A40004F
S2144003F0D518400008B5084B9B6913F4000F03D18D
S2144004004FF40002044B1A61044B984702460449D5
S2144004100448054B984708BD00060E40C5124000EC
S21440042000C00040000540200909400008B5084BC0
S2144004309B6913F0806F03D14FF08062044B1A61C2
S214400440044B9847024604490448054B984708BD64
S21440045000060E40C51240000000014074044020D3
S21440046009094000114B1A6F42F480121A675A6FFE
S21440047022F480125A674FF480125A601A6F42F480
S21440048000121A675A6F22F400125A674FF400128D
S2144004905A601A6F42F480021A675A6F22F480023A
S2144004A05A674FF480025A60704700BF00140E40EF
S2144004B0044B9B6913F4001F03D14FF40012014B09
S2144004C01A61704700060E4010B5084B9847084B17
S2144004D09847084C01462046074B98470749204610
S2144004E0074B9847074B984710BD00BFB1044000E4
S2144004F05911400098044020D50640000080004036
S214400500F506400065044000054BD3F8083113F06B
S214400510007F04D14FF00072014BC3F800217047B2
S21440052000060E4008B5034B984703490348044B62
S214400530984708BD09054000000007409004402049
S214400540A9064000044B9B6913F4804F03D14FF437
S2144005508042014B1A61704700060E400F4B1A6FDF
S21440056022F400121A675A6F22F400125A674FF4A8
S21440057000125A600A4AD2F8143143F01003C2F807
S2144005801431084B1A6F42F010021A675A6F42F045
S21440059010025A6710225A60704700BF000E0E4085
S2144005A00080084000100E4010B582B0074B9847B8
S2144005B0074B9847074B984700901023064A074931
S2144005C00748084CA04702B010BD00BF4505400094
S2144005D05D054000C51640000804402000800240EB
S2144005E0B0044020B90B400008B5094B9847094A6B
S2144005F0536843F400435360074B9847074B98476C
S214400600074B9847074B9847074B984708BD00BF8E
S214400610590E400050180E40C9044000F5034000F3
S2144006202D04400025054000A9054000EFF3108347
S214400630036072B6BFF35F8F7047BFF35F8F036888
S21440064083F310887047000070B5164604460D4682
S214400650002818BF002914BF012000203422044976
S214400660044B98472368324629462046984770BD33
S214400670501B4000ED0C400070B5164604460D4633
S214400680002818BF002914BF012000203D2204493D
S214400690044B98476368324629462046984770BDC3
S2144006A0501B4000ED0C400038B50D46044629224C
S2144006B00549003018BF0120044B9847294620467C
S2144006C0034B984738BD00BF641B4000ED0C40000C
S2144006D0F112400038B50D46044639220349003031
S2144006E018BF0120024B9847256038BD801B40004C
S2144006F0ED0C400038B504460D46002818BF0029CA
S21440070014BF01200020402209490A4B9847204642
S21440071040F8045F2946084B9847002807DB4FF40B
S2144007200043A382054B2361054BE360002038BDA0
S214400730801B4000ED0C40007D0F4000E907400064
S214400740AD07400010B5044657220549003018BF93
S2144007500120044B9847201D034B984710BD00BF0F
S214400760801B4000ED0C40002510400030B585B0A1
S21440077005460C46002818BF002914BF012000205B
S214400780B3220749074B984723680193636802934F
S214400790A368039301A9281D034B984705B030BDB5
S2144007A0801B4000ED0C40005910400070B584B0EE
S2144007B00E4615460446A3220849003018BF0120BD
S2144007C0074B9847002302930196039501A9A4F18D
S2144007D00C00044B984704B070BD00BF801B40001F
S2144007E0ED0C40006D07400070B584B00E461546CF
S2144007F0044687220849003018BF0120074B984717
S214400800029600230193039501A9A4F10C00044B22
S214400810984704B070BD00BF801B4000ED0C400000
S2144008206D07400038B504460D46002818BF00291D
S21440083014BF01200020BD220349044B98470C34C6
S2144008402C60002038BD00BF801B4000ED0C4000EF
S214400850F8B5076817B13C4600260BE00E4B9847A4
S214400860F8BDA5682B449B1A01338D68AB4209D26C
S2144008702646246834B163689342F2D8A5689B1A2A
S2144008802B44F2E7BC4203D03046044B9847F8BDB1
S214400890014B9847F8BD00BF090D4000350D40009C
S2144008A0F8B54469066901360661037E13F0010F08
S2144008B005D1037E13F0020F01D1054609E0037E01
S2144008C043F002030376F8BD6F69E3682046984715
S2144008D03C469CB16368F31AA26893420ED305F176
S2144008E014073846064B9847237C012BECD16660AC
S2144008F0324621463846034B9847E5E7F8BD00BFE9
S2144009003D0D40005108400038B504460D460028CD
S21440091018BF002914BF012000203B220549064B82
S214400920984729462046054B984700202061044BAF
S214400930236038BD9C1B4000ED0C4000D5114000A4
S214400940A108400010B5044653220949003018BF9C
S2144009500120084B98472046074B984720B9204629
S214400960064B9847002010BD6FF0100010BD00BF2A
S2144009709C1B4000ED0C4000A1124000911240002C
S21440098010B5044661220949003018BF0120084BC3
S21440099098472046074B984720B12046064B984735
S2144009A0002010BD6FF0100010BD00BF9C1B400023
S2144009B0ED0C4000A11240009912400070B582B084
S2144009C004460D46002818BF002914BF0120002009
S2144009D07A221D491D4B9847237E43F00103237618
S2144009E004F1140629463046194B984788B92369BE
S2144009F06B60226929463046164B9847237E03F0A3
S214400A00FE032376237E13F0020F0ED1002002B0A1
S214400A1070BD237E03F0FE0323767F220A49002022
S214400A200A4B98476FF01100F1E701A80A4B984728
S214400A30237E03F0FD0323762046084B984701A803
S214400A40074B98470020E2E79C1B4000ED0C400017
S214400A50F30C4000510840002D064000AD12400007
S214400A603B06400008B500238362C3691BB1A0F172
S214400A7008021046984708BD08B500238362436ABB
S214400A801BB1A0F108021046984708BD38B5044689
S214400A90A0F108052C30034B9847236A0BB1284633
S214400AA0984738BDD50D400070B5154604460E46ED
S214400AB0002818BF002902D0DAB9002000E0002044
S214400AC040F23B120D490E4B9847B4F84420B4F818
S214400AD04C309A420FD1A664A4F84C500023A4F898
S214400AE044300123236304F10800064B9847284608
S214400AF070BD0120E4E76FF01B0070BDB41B4000E2
S214400B00ED0C4000F115400010B50446838FB0F858
S214400B104420934209D0026C591C8187D15C044B17
S214400B2098472046034B984710BD034B984710BD47
S214400B30CD154000F1154000151640002DE9F04156
S214400B4082B0174605468846002818BF002902D0BE
S214400B50A2B9002000E000204FF4AC721049114BBF
S214400B60984701A8104B9847343528460F4B98476E
S214400B70064601A80E4B9847002407E00120EBE705
S214400B800134A4B2414428460A4B98472146A6421F
S214400B9001D9BC42F4D3204602B0BDE8F08100BF84
S214400BA0B41B4000ED0C40002D064000150E4000E2
S214400BB03B064000910D4000F8B515461E460446DB
S214400BC00F46002818BF002908D0131C18BF012361
S214400BD016B10BB1012002E0002000E000203A22CE
S214400BE01049114B98473246294604F134000F4BC2
S214400BF09847A0B9394604F108000D4B984703467C
S214400C0058B90C4A62600C4A22600C4AA2600C4AF0
S214400C10E2600C4A22610C4A62611846F8BD6FF0E9
S214400C200C03FAE7B41B4000ED0C40004D0D4000AD
S214400C30ED1440003D0B4000A90A4000090B40005F
S214400C408D0A4000650A4000790A400010B5044607
S214400C5061220649003018BF0120054B984704F131
S214400C600800044B9847002010BD00BFB41B40004E
S214400C70ED0C40009915400070B50C4616460546EA
S214400C8083221749003018BF0120164B9847012C85
S214400C9010D024B1022C18D06FF00C0070BDAE629C
S214400CA0321C18BF0122012105F108000E4B98475F
S214400CB0002070BD6E62321C18BF0122022105F171
S214400CC00800094B9847002070BDEE62321C18BFE2
S214400CD00122032105F10800034B9847002070BD10
S214400CE0B41B4000ED0C40003D16400000B900BE6D
S214400CF0704703681BB18B4203D01B68FAE700209D
S214400D00704701207047000038B504460D46064B34
S214400D10984780F0010039220449C0B2044B9847F6
S214400D2023682B60256038BDF30C4000D41B400080
S214400D30ED0C400003680B600160704703681BB110
S214400D401A680260184670470020704770B515460E
S214400D5004460E46002818BF002902D07AB9002063
S214400D6000E0002028220849084B98476B1E1D4289
S214400D7007D163600020A060E060266070BD01205F
S214400D80F0E76FF00C0070BDF41B4000ED0C400027
S214400D9038B504460D46002818BF002914BF012068
S214400DA00020402209490A4B9847E268A3689A42C5
S214400DB009D0226861680B40D35C2B70A36801336E
S214400DC0A360002038BD6FF0090038BDF41B40001A
S214400DD0ED0C400038B50D46044651220B49003014
S214400DE018BF01200A4B98472268E36861680B40A9
S214400DF0D554E368A2689A1A61688A4201D9591A9A
S214400E00A1600133E360002038BD00BFF41B400002
S214400E10ED0C400010B5044667220549003018BF67
S214400E200120044B9847E068A368C01A10BD00BF75
S214400E30F41B4000ED0C400043B2002B09DB5B097D
S214400E4000F01F00012202FA00F04033014A42F847
S214400E502300704700E100E000B583B001A80E4BC8
S214400E6098470E4AD2F8883043F47003C2F8883068
S214400E70BFF34F8FBFF36F8F01A8094B9847094ABE
S214400E80136823F4706343F4C0631360064B9847BB
S214400E9003B05DF804FB00BF2D06400000ED00E007
S214400EA03B064000000C0E40490F40000E490A6ABF
S214400EB022F002020D4B13430B620B4B9B6E13F05A
S214400EC0010FFAD0084B196A094A0A431A62996A0E
S214400ED0084A0A409A62084A9A62034B9B6E13F08D
S214400EE0020FFAD0704700BF00060E40013E3700A2
S214400EF000003701FFFF00F8013F1820114A136B2E
S214400F0023F0700313630F4B9B6E13F0080FFAD059
S214400F100C4A136B23F4407343F480731363094BFA
S214400F209B6E13F0080FFAD0064A136B23F00303A8
S214400F3043F002031363034B9B6E13F0080FFAD083
S214400F40704700BF00060E4008B5024B9847024B5C
S214400F50984708BDAD0E4000FD0E400001230360DB
S214400F6000207047044B0344C3F30743052B01D0CE
S214400F7000207047012070470080FFBF70B50646CE
S214400F800C460846204B984700233BB300254FF4B9
S214400F909A721E49002E18BF002C14BF0120002054
S214400FA01B4B984755B3236913F4803F29D18023C0
S214400FB0236034606A68174B13402360AB68164A58
S214400FC01A40164B13436360EB6823632B8AF38007
S214400FD0EB6803F0F0033371002070BD03EB830130
S214400FE08A000F498A5C904202D00133DBB2CCE7DC
S214400FF003EB8305AB000D461D44C8E76FF00C00BD
S21440100070BD6FF0100070BD650F40002C1C400096
S214401010ED0C40007CFFFFFE6FFFF1FF10000E005E
S214401020181C400010B5044668B103684BB1012057
S2144010304FF4B9720549064B98472068054B9847C8
S21440104010BD0020F4E70020F2E700BF2C1C400053
S214401050ED0C40005D0F40002DE9F04186B007469C
S2144010600D4604680B6801934B6802930023039374
S214401070049303798DF81430261C18BF012640F2DD
S2144010803122334900280CBF002006F00100314BC6
S2144010909847236913F4803F22D16FF0130053E042
S2144010A0002335E0507841EA0021023201920133B4
S2144010B00393E160D4F8108040F22222244930465F
S2144010C0244B984718F0080F38D06FF012000028CD
S2144010D036DB0398AB68984202D3049A93422FD9E2
S2144010E0236913F0010FDBD0A3689BB2029A5AB172
S2144010F0511C029113709DF81420012A04D90A4607
S214401100013102911B0A1370049B0133049301239F
S214401110002BCFD1039B049A9A42CBD3F9882269FD
S21440112012F0020FC6D0019A002AC0D0511C01917D
S21440113011789DF814000128B4D8B8E70020C6E717
S214401140236913F4007FFBD006B0BDE8F08100BFF2
S2144011502C1C4000ED0C4000002070470023012B63
S21440116015D810B403EBC3018A000A498A58824254
S21440117007D00133DBB2012BF4D900205DF8044BD5
S214401180704703EBC304A30008461844F6E7002064
S214401190704700BF00004020064B984203D0064BE5
S2144011A0984203D07047054B1960F8E7034B5960E7
S2144011B0F8E700BF00C0004000000140180440208F
S2144011C008B5C3681B6A13F0100F00D108BD03684A
S2144011D09847FBE7F8B507460C460846274B98471E
S2144011E005468668FC60962225490120254B98478F
S2144011F016F4004F01D046F4142666606B696361AE
S214401200AB69A361EB682363EB69E3611023636218
S2144012102B69C4F8D830394620461B4B984795F979
S2144012200430002B0DDB5A0903F01F03012101FA9D
S21440123003F32032154941F82230BFF34F8FBFF3F6
S2144012406F8F95F90430002B09DB5A0903F01F0312
S214401250012101FA03F360320C4941F8223095F936
S2144012600430002B08DB590903F01F03012202FA61
S21440127003F3064A42F821300020F8BD5D114000D5
S214401280441C4000ED0C40009911400000E100E095
S214401290C36805221A607047C36802221A60704706
S2144012A0C368186AC0F300407047000008B5C068BD
S2144012B0024B98470079024B984708BD5D114000A5
S2144012C0390E40000020704708B5024B1868024BA4
S2144012D0984708BD18044020C111400008B5024B8D
S2144012E05868024B984708BD18044020C11140007A
S2144012F038B504460D46002818BF002914BF012003
S214401300002028220349044B984725602023237158
S214401310002038BD581C4000ED0C4000034B98425E
S21440132000D07047024B1960FBE700BF00800240C8
S2144013302004402010B5044640F22F2205490030D4
S21440134018BF0120044B984704482044C0F3873018
S21440135010BD00BF7C1C4000ED0C400000C0FDBF2F
S21440136010B504464FF42D720E49003018BF0120C8
S2144013700D4B984720460D4B9847002343B140F20B
S214401380BE2208490020084B98470023184610BD47
S21440139003EB43018A0006498A5C9042F6D001334B
S2144013A0DBB2EBE77C1C4000ED0C40003513400000
S2144013B0701C400010B5044640F2CB221149003064
S2144013C018BF0120104B98472046104B9847104BAB
S2144013D0C4F8E430002363606362A362AC222260F8
S2144013E04FF4807222604FF40022226000EB4000EF
S2144013F08100084A0A4452686260074A22621846D8
S21440140010BD00BF7C1C4000ED0C40006113400046
S21440141000415355701C40005100030010B504466F
S214401420AE220649003018BF0120054B984720469B
S214401430044B98470D30C0B210BD00BF7C1C400026
S214401440ED0C40003513400010B5044640F28922AA
S2144014502349003018BF0120224B9847A3695A6998
S21440146012F0020F03D01A6912F0020F18D15A690F
S21440147012F4007F03D01A6912F4007F16D15A691D
S21440148012F0010F1FD01A6912F0010F1BD05969D4
S214401490154A114211D09A694FF480721A6010BDF5
S2144014A00222DA6023682046984710BD4FF4007247
S2144014B0DA60A3682046984710BD62689969C9B249
S2144014C02046904710BD5969074A114200D110BDC9
S2144014D04FF480721A60E36820469847F7E700BFEB
S2144014E07C1C4000ED0C4000E000000170B50C464E
S2144014F00646D1222249003018BF0120214B98478A
S2144015002046214B9847054608B1284670BDB46131
S214401510314620461D4B984720461D4B984743B2C0
S214401520002B0DDB5B0900F01F00012202FA00F0E1
S2144015302033184A42F82300BFF34F8FBFF36F8F14
S2144015402046134B984743B2002B09DB5B0900F05B
S2144015501F00012202FA00F060330E4A42F82300D0
S21440156020460B4B984743B2002BCEDB5B0900F07E
S2144015701F00012202FA00F0064A42F82300C4E7A0
S2144015807C1C4000ED0C4000B51340001D1340008D
S2144015901D14400000E100E070B50A4E044640F2DB
S2144015A013123146003018BF0120074DA847A469E2
S2144015B04FF43D723146201C18BF0120A8475023E7
S2144015C0236070BD7C1C4000ED0C400038B50C46D6
S2144015D0054640F2B5120449003018BF0120034BBF
S2144015E09847AB69DC6138BD7C1C4000ED0C400080
S2144015F010B5044640F21D220449003018BF0120B1
S214401600034B9847A36902229A6010BD7C1C400099
S214401610ED0C400010B5044640F226220549003045
S21440162018BF0120044B9847A3694FF400729A6094
S21440163010BD00BF7C1C4000ED0C400070B50C4651
S214401640164605464FF414721B49003018BF012059
S2144016501A4B9847C6B1022C18BF002C04D0012C58
S2144016600AD0032C0CD070BDAB6902229A60AB69DD
S2144016704FF400729A6070BDAB6901229A6070BDEB
S214401680AB690F4A9A6070BD022C18BF002C07D079
S214401690012C0DD0032CE6D1AB69094ADA60E2E7AB
S2144016A0AB690222DA60AB694FF40072DA6070BD53
S2144016B0AB690122DA6070BD7C1C4000ED0C400036
S2144016C0E00000010020704708B5024B1868024B46
S2144016D0984708BD20044020491440000D490B8817
S2144016E001339BB20B804A6801324A600A49097846
S2144016F0C9B28A4204D3074A0121117200215160BF
S214401700B3F57A7F05D3034B00221A80DA6801329C
S214401710DA6070472404402048004020054A138A77
S21440172001339BB21382B3F57A7F02D30022014B7A
S2144017301A827047240440207047000000B583B0EA
S21440174001220DF107010E480E4B98470E4B9B7C2D
S21440175023B1012B0AD003B05DF804FB9DF8073097
S214401760532BF8D10122084B9A74F4E79DF80720D2
S214401770064B5A70044B00229A740122DA74EAE748
S214401780B004402079064000240440204800402011
S214401790044A090101EB203052F82030013342F868
S2144017A0203070471C05402030B4164C62694FF418
S2144017B07A73154D03FB015188540132134981FB5E
S2144017C00231D317C3EBA10303EB83035900531A2B
S2144017D0642202FB03F36361A269934201D030BCEA
S2144017E070470132094981FB0231D317C3EBA1038D
S2144017F003EB83035900531A642202FB03F3A361ED
S214401800EDE700BF240440201C064020676666665D
S21440181070B584B003A91548154B9847154B1B68FF
S214401820019300251EE004AB2B4413F80C4C6309CF
S21440183004F01F04012202FA04F40F4E06EB43267E
S21440184074630DF10B0103980C4B9847346329469B
S2144018509DF80B000A4B9847E9B29DF80B00094BE0
S21440186098470135032DDEDD04B070BD9804402056
S21440187025084000981C4000000E0E4079064000A7
S214401880A9174000911740000F4A93695269934246
S21440189017D04FF47A710D4A01FB0020C05CC0B2ED
S2144018A05A1C0B4981FB0231D317C3EBA10303EB50
S2144018B083035900531A642202FB03F3024A9361DE
S2144018C07047FF20704700BF240440201C0640207D
S2144018D067666666F0B5A5B0664B9847664C0125C8
S2144018E06562664BA36284F82C50654F04F11C0178
S2144018F03846644EB0473846634B9847A563634BBB
S214401900E36384F8405004F130016148B047614BCE
S2144019105A78D2B29B78DBB29A420BD05D4B5B785A
S214401920DBB2022B24D15A48574B9847594A537832
S214401930DBB29370584B4FF080521A614FF0005212
S2144019401A614FF080421A614FF000421A615348C4
S214401950534B9847534C544A01212046534DA84771
S214401960534A00212046A8472046524B98473CE021
S2144019704748514B9847D9E7464B5B788DF84430FB
S2144019803D4BDA6812921B88ADF84C3000200CE0D4
S21440199002EB0013494951F8231024AC234403F8C2
S2144019A0421C01320F2AF3DD0130032801DC0022FD
S2144019B0F8E7402200214148414B98476C4615AD18
S2144019C00FCD0FC40FCD0FC40FCD0FC495E8070041
S2144019D084E8070011AB0FCB3A4CA047264BDB7C84
S2144019E0012B2DD00022244B1A72374B9847224B9E
S2144019F01B7A002BF9D0274B5B78DBB2012BBBD090
S214401A00022BEBD1234B5B788DF844301A4BDA68C7
S214401A1012921A88ADF84C201B8AADF84E3000243E
S214401A2007E0E0B2294B984724AB234403F8400C28
S214401A300134032CF5DD11AB0FCB254CA047CDE789
S214401A40144B5B78DBB2012B0AD0022BCAD111A80B
S214401A50204B9847102211A912481F4B9847C1E7C0
S214401A6011A81E4B98474C2211A90E481A4B98476E
S214401A70B8E700BFD501400024044020DD164000F2
S214401A8000054020BD094000450940001D174000A4
S214401A907404402048004020000E0E409804402029
S214401AA045074000B004402039174000790C4000FC
S214401AB03D1740004D0C4000810940001C05402069
S214401AC03F1B4000E10140001118400089184000CB
S214401AD0C10240001D034000490640003D02400050
S214401AE070B50D4E0D4CA41BA4100025A54209D17F
S214401AF00B4E0C4C00F0D2F8A41BA4100025A542B7
S214401B0005D170BD56F8253098470135EEE756F8B2
S214401B10253098470135F2E7A81C4000A81C400035
S214401B20A81C4000AC1C400010B5431E0A4491421D
S214401B3000D110BD11F8014B03F8014FF7E70244FE
S214401B400346934200D1704703F8011BF9E70000B3
S214401B502E2E2F68616C2F7372632F68616C5F69DD
S214401B606F2E63002E2E2F68616C2F7372632F6862
S214401B70616C5F72616E645F73796E632E630000A2
S214401B802E2E2F68616C2F7372632F68616C5F73A3
S214401B9070695F6D5F73796E632E63002E2E2F68BB
S214401BA0616C2F7372632F68616C5F74696D6572C8
S214401BB02E6300002E2E2F68616C2F7372632F6881
S214401BC0616C5F75736172745F6173796E632E6367
S214401BD0000000002E2E2F68616C2F7574696C73A0
S214401BE02F7372632F7574696C735F6C6973742E90
S214401BF0630000002E2E2F68616C2F7574696C731D
S214401C002F7372632F7574696C735F72696E676247
S214401C1075666665722E6300000000000000008056
S214401C200100000002169604FFFF00002E2E2F68CB
S214401C30706C2F7370692F68706C5F7370692E6359
S214401C40000000002E2E2F68706C2F74632F687073
S214401C506C5F74632E6300002E2E2F68706C2F749A
S214401C60726E672F68706C5F74726E672E630000CA
S214401C7001000000C0081000510003002E2E2F68FF
S214401C80706C2F75736172742F68706C5F757361BA
S214401C9072742E63000000001C1D1E1FF8B500BFA6
S214401CA0F8BC08BC9E4670478D014000F8B500BFA2
S210401CB0F8BC08BC9E4670476901400026
S214401CBC00C000401700000003C0000000000000F9
S214401CCC0000000049020000000000005D05000016
S214401CDC00000000000001401A00000003C0000095
S214401CEC0000000000000000490200000000000058
S210401CFC00000000000000000A0101008B
S804400000BB
