S00E00004144435350492E7372656362
S214400000781C4020B50C4000B10C4000B10C4000BC
S214400010B10C4000B10C4000B10C400000000000A4
S214400020000000000000000000000000B10C40008E
S214400030B10C400000000000B10C4000B10C400084
S214400040B10C4000B10C4000B10C4000B10C400077
S214400050B10C4000B10C4000B10C4000B10C400067
S214400060B10C400000000000B10C4000B10C400054
S214400070B10C4000B10C40008D204000B10C400057
S214400080B10C4000B10C4000B10C4000B10C400037
S214400090B10C4000B10C4000B10C40008D1C40003B
S2144000A0B10C4000B10C4000A11C4000B10C400017
S2144000B0B10C4000B10C4000B10C4000B10C400007
S2144000C0B10C4000B10C4000B10C4000B10C4000F7
S2144000D0B10C4000B10C4000B10C4000B10C4000E7
S2144000E0B10C4000B10C4000B10C4000B10C4000D7
S2144000F0B10C4000B10C4000B10C4000B10C4000C7
S214400100B10C4000B10C4000B10C4000B10C4000B6
S214400110B10C4000B10C40000000000000000000A0
S214400120B10C4000B10C4000B10C4000B10C400096
S214400130B10C4000B10C4000B10C4000B10C400086
S214400140B10C4000B10C4000B10C4000B10C400076
S214400150B10C4000B10C4000B10C4000B10C400066
S214400160B10C4000B10C400010B5054C237833B9B3
S214400170044B13B10448AFF300800123237010BD35
S214400180B400402000000000883B40000C4B43B1C8
S2144001900C480D4910B5AFF300800C48036823B9EE
S2144001A010BD0A48036833B97047094B002BF7D097
S2144001B0BDE810401847064B002BF5D0184700BF47
S2144001C000000000883B4000B8004020883B4000CC
S2144001D00000000008B5014B984708BD110F4000CD
S2144001E010B4047843781B01827843EA043343EA28
S2144001F012130B60C47803791B01427943EA043337
S21440020043EA12134B608279C37943EA02238B6038
S2144002105DF8044B704700002DE9F04F85B00D4661
S214400220354E4068B047CDE90001344C0022344B8F
S214400230A047804689462888B047CDE9020100227B
S214400240304BA047304F02460B4640464946B847DB
S214400250804689462D4EB5F90200B04702460B4609
S21440026040464946A04782468B460022284BDDE959
S2144002700001A047804689460022264BDDE9020160
S214400280A04702460B4640464946B84702460B46FC
S214400290A04780468946B5F90400B04702460B465B
S2144002A040464946A04702460B46504659461A4CD9
S2144002B0A04706460F46194B984768620022184BDF
S2144002C030463946174CA04704460D460022164B8A
S2144002D0164EB04748B90022154B20462946154EC3
S2144002E0B04720B10024124D01E000240E4D2046B8
S2144002F0294605B0BDE8F08F45294000312A400028
S2144003000000103F0000503FC926400065294000CD
S2144003100000E03E0000203FCD264000652F400014
S2144003200000B440852C4000000044C0152F40001B
S21440033000405540512F40002DE9F04F85B0824691
S2144003400C46834F486AB847824D0022824BA847E6
S2144003500022824B824EB047CDE9000102460B4652
S214400360A84780468946B4F91000B84702460B466F
S21440037040464946A84700224FF07C53A84780464F
S2144003808946B4F90E00B84702460B46DDE900013F
S214400390A847744E02460B46B04702460B464046B8
S2144003A04946B0470022704BA84780468946B4F974
S2144003B00C00B84700226D4BA84702460B46404605
S2144003C04946B047CDE90201B4F90A00B8470246AB
S2144003D00B46DDE90001A84702460B46DDE9000171
S2144003E0A84700224FF07B53A84780468946B4F979
S2144003F00800B84702460B46DDE90001A84702461A
S2144004000B4640464946B04700224FF07B53A8472C
S21440041000224FF07C53A8470022554BB047064673
S2144004200F46E088534B984702460B4630463946BF
S214400430A84780468946002200234F4DA8470028FB
S2144004406CD0DAF800004B4B9847454E02460B46B8
S21440045000204A49B04782468B463E4D0022484BD4
S214400460DDE90201A84702460B4650465946B047CA
S21440047031A3D3E90023A84742464B46414EB047F6
S21440048080468946324FB4F91600B84702460B46B6
S21440049040464946A84702460B4640464946A84776
S2144004A000224FF07853A84782468B46B4F9140092
S2144004B0B84702460B4640464946A84700224FF0FA
S2144004C07C53A847274E02460B4650465946B047EF
S2144004D082468B46B4F91200B84702460B46504651
S2144004E05946B0470022284BA84702460B4640468E
S2144004F04946B04704460D4611A3D3E90023234E90
S214400500B04778B910A3D3E90023204629461A4EAF
S214400510B04750B10CA5D5E9004506E008A5D5E999
S214400520004502E006A5D5E900452046294605B027
S214400530BDE8F08FAFF3008000000000006AB840CE
S21440054000000000004CDD400000000000DBFA40E8
S21440055065294000312A40000000E03F0040EF405F
S214400560C9264000CD2640000000D03F0000F040A5
S2144005700000F03F45294000512F40000000304128
S2144005800000303F852C40000000B03F152F400053
S2144005902DE9F04F87B083460D46DFF86881486AFC
S2144005A0C0474C4E00224C4BB047CDE90001B5F950
S2144005B01E00C047494C0022494BA047CDE90201E6
S2144005C0B5F92000C0470022464BA04702460B46DE
S2144005D0DDE90001A047DFF8309102460B46DDE931
S2144005E00201C847CDE902013F4FDBF80800B84793
S2144005F0DDE90223B047CDE90201B5F91A00C0474C
S21440060000223A4BA047CDE90401287FB847002294
S214400610374BA04702460B46DDE90001A0470022C3
S214400620344BC84782468B4695F92200C047002285
S2144006302F4BA04702460B46DDE90001A047024685
S2144006400B4650465946A04700222A4BC84780468C
S2144006508946DDE90423DDE90201A047CDE9000132
S21440066042464B4650465946A04702460B46DDE9B1
S2144006700001A04780468946287EB84702460B467A
S21440068040464946A04700224FF07B53A0470246CB
S2144006900B4600201749B04702460B46404649469F
S2144006A0A04704460D460022134B144EB04748B9A7
S2144006B00022002320462946114EB04720B1002490
S2144006C0002501E000240C4D2046294607B0BDE831
S2144006D0F08F00BFC926400000C0F240312A4000DB
S2144006E0000050400000103F452940000000F03E0A
S2144006F00000503E0000F03F00005940512F40009F
S214400700152F400065294000CD26400070B40124D6
S21440071007E06500013D065D4E55155D01F8145035
S21440072001349C42F5D370BC70474278037843EA64
S21440073002230B83C278837843EA02234B834279B1
S214400740037943EA02238B83C279837943EA0223FF
S214400750CB83427A037A43EA02230B84C27A837AB3
S21440076043EA02234B84427B037B43EA02238B8487
S214400770C27B837B43EA0223CB84427C037C43EAEE
S21440078002230B85C27C837C43EA02234B85427D51
S214400790037D43EA02238B85C27D837D43EA0223A1
S2144007A0CB85437E81F8303070474278037843EA01
S2144007B002234B86837881F8343090F903309BB21D
S2144007C01B011BB2027902F00F021343CB8690F94D
S2144007D005309BB21B011BB2027943EA12130B870A
S2144007E090F9063081F83A30704750B1C2685AB135
S2144007F0026962B143690BB1002070474FF0FF3089
S21440080070474FF0FF3070474FF0FF3070474FF063
S214400810FF3070472DE9F84305460E4691461C4684
S2144008201846104B98478046B0FA80F04009002E94
S21440083008BF002078B16378012B01D045F08005D1
S214400840E76863684A4631462846B847207228B962
S2144008504046BDE8F8834FF0FF38F9E76FF00108EF
S214400860F6E700BFEB07400030B589B004460023EA
S214400870019302930393049305930693ADF81C30BB
S21440088003461A2201A988200C4DA847054610B1F8
S214400890284609B030BD214601A8094B9847234653
S2144008A0072201A9E120054DA84705460028EFD1BB
S2144008B0214601A8034B9847EAE700BF15084000C9
S2144008C02B074000AB0740002DE9F04186B00446B8
S2144008D00F4615461E460A2A00D90A2530461E4BA4
S2144008E098478046B0FA80F04009002C08BF0020A8
S2144008F030B347B355B33B788DF804307378012B4B
S21440090008D0002304E0E25C02F07F02E2540133A8
S2144009109D42F8D8012D07D92B463A4601A92046D4
S2144009200E4FB8476D00013D376973682A4601A9E6
S2144009302078B847307260B9404606B0BDE8F081CE
S2144009404FF0FF38F8E74FF0FF38F5E76FF0020852
S214400950F2E76FF00108EFE7EB0740000D074000B5
S21440096070B582B00446E0238DF8073000238DF83A
S214400970063002A9B62301F8033D034601220DF1D5
S2144009800700144DA8470246E8B9052500E01D4675
S214400990636961684FF4FA609847234601220DF177
S2144009A00601F3200C4EB047024638B96B1EDBB248
S2144009B025B19DF8061011F0010FE8D19DF80630DC
S2144009C013F0010F02D1104602B070BD6FF0050261
S2144009D0F9E700BFC90840001508400030B583B0AD
S2144009E0044602A9002301F8013D03460122D02017
S2144009F00C4DA847034648B99DF80730602B0DD1EB
S214400A0023702046084B9847034610B1184603B05B
S214400A1030BD2046054B98470346F7E76FF0030383
S214400A20F4E700BF1508400061094000690840002F
S214400A30002918BF002A2BD0F8B50F46144653B3EA
S214400A401E46054600220023C4E90223C4E90023CB
S214400A50C4E9042310F0070F13D115F0010F05D099
S214400A60314638460E4B9847C4E9000115F0040F4E
S214400A7014D0314638460B4B9847C4E90401002051
S214400A80F8BD31463846084B9847C4E90201E4E7CA
S214400A904FF0FF3070474FF0FF30F8BD0020F8BDF4
S214400AA0390340009105400019024000F0B587B078
S214400AB0002404940594019402940394D1B10E4604
S214400AC0144605461346082204A9F7200B4FB8479C
S214400AD0034610B1184607B0F0BD01A904A8084B5C
S214400AE0984704F11803324601A92846054CA0470A
S214400AF00346EFE74FF0FF33ECE700BF1508400032
S214400B00E1014000310A400084B070B504AC84E88E
S214400B100F00114B93F8FA52092D19D81E4693F838
S214400B20F9424C20024604A900FB04300B4B984780
S214400B30621C0B4981FB0231D317C3EBA10303EBC5
S214400B4083035900531A86F8F932013586F8FA526B
S214400B50BDE8704004B07047D0004020FD2F4000F4
S214400B60676666662DE9F043A7B005461A4B93F8CC
S214400B70FA4284B94C24224600210DEB0400174B60
S214400B80984722460DEB04012846154B98472846C1
S214400B9027B0BDE8F0831E4693F8F8924C273A46B5
S214400BA007FB09316846DFF83880C04709F1010283
S214400BB00C4981FB0231D317C3EBA10303EB83033C
S214400BC05900531A86F8F832013C86F8FA423A46FB
S214400BD069462846C047DAE7D00040201330400038
S214400BE0FD2F400067666666F0B484B004AC04E946
S214400BF00F00124B93F89E63092E1BD81F4693F89E
S214400C009D4303EB041505F53F7504AB13E90F0050
S214400C1085E80F00621C0A4981FB0231D317C3EBFB
S214400C20A10303EB83035900531A87F89D3301361B
S214400C3087F89E6304B0F0BC704700BFD0004020E9
S214400C4067666666F0B589B00446174B93F89E63B0
S214400C505EB904AB002204920592069207920FCB2F
S214400C6084E80F00204609B0F0BD9E4693F89C737A
S214400C7003EB071303F53F730FCB8DE80F007A1C89
S214400C800A4981FB0231D317C3EBA10303EB83036D
S214400C905900531A8EF89C33013E8EF89E639DE8A9
S214400CA00F0084E80F00DDE7D000402067666666E8
S214400CB0FEE7000008B5104B104A9A4209D00E4B8A
S214400CC00E4A03E011681960043304320C498B4223
S214400CD0F8D30C4B02E000221A6004330A4A9342CF
S214400CE0F9D30A4A0A4B23F07F039360094B98478F
S214400CF0094B9847FEE700BF00004020883B400075
S214400D00B4004020B40040207816402000ED00E0BB
S214400D1000004000B52F40006D24400008B5084B49
S214400D209B6913F4000F03D14FF40002044B1A6181
S214400D30044B9847024604490448054B984708BD6B
S214400D4000060E40891C400000C000407805402048
S214400D505D12400008B5084B9B6913F0806F03D1C5
S214400D604FF08062044B1A61044B98470246044990
S214400D700448054B984708BD00060E40891C4000B5
S214400D8000000140EC0440205D124000114B1A6FF9
S214400D9042F480121A675A6F22F480125A674FF450
S214400DA080125A601A6F42F400121A675A6F22F481
S214400DB000125A674FF400125A601A6F42F48002CB
S214400DC01A675A6F22F480025A674FF480025A60BC
S214400DD0704700BF00140E40044B9B6913F4001F7D
S214400DE003D14FF40012014B1A61704700060E40C3
S214400DF010B5084B9847084B9847084C0146204684
S214400E00074B984707492046074B9847074B984754
S214400E1010BD00BFD90D40001D1B400010054020EE
S214400E20FD0F4000008000401D1040008D0D40002A
S214400E30054BD3F8083113F0007F04D14FF0007211
S214400E40014BC3F80021704700060E4008B5034B1F
S214400E50984703490348044B984708BD310E400065
S214400E600000074008054020D10F4000044B9B6916
S214400E7013F4804F03D14FF48042014B1A61704700
S214400E8000060E400F4B1A6F22F400121A675A6F74
S214400E9022F400125A674FF400125A600A4AD2F8F7
S214400EA0143143F01003C2F81431084B1A6F42F065
S214400EB010021A675A6F42F010025A6710225A60A0
S214400EC0704700BF000E0E400080084000100E40E5
S214400ED010B582B0074B9847074B9847074B984743
S214400EE000901023064A07490748084CA04702B01E
S214400EF010BD00BF6D0E4000850E400089204000AA
S214400F007004402000800240280540200D15400017
S214400F1008B5094B9847094A536843F40043536061
S214400F20074B9847074B9847074B9847074B9847B8
S214400F30074B984708BD00BFD117400050180E40D9
S214400F40F10D40001D0D4000550D40004D0E400077
S214400F50D10E4000EFF31083036072B6BFF35F8F8D
S214400F607047BFF35F8F036883F3108870470000B5
S214400F7070B5164604460D46002818BF002914BF13
S214400F800120002034220449044B98472368324607
S214400F9029462046984770BD2439400041164000F7
S214400FA070B5164604460D46002818BF002914BFE3
S214400FB0012000203D220449044B9847636832468E
S214400FC029462046984770BD2439400041164000C7
S214400FD038B50D46044629220549003018BF012081
S214400FE0044B984729462046034B984738BD00BFD8
S214400FF03839400041164000B51C400038B50D4613
S214401000044639220349003018BF0120024B984756
S214401010256038BD543940004116400038B5044676
S2144010200D46002818BF002914BF0120002040228A
S21440103009490A4B9847204640F8045F2946084B22
S2144010409847002807DB4FF40043A382054B2361F3
S214401050054BE360002038BD54394000411640003F
S214401060091940003D1140000111400010B50446EA
S21440107057220549003018BF0120044B9847201DD1
S214401080034B984710BD00BF5439400041164000FE
S214401090B119400038B50D46044663220549003074
S2144010A018BF0120044B98472946201D034B9847FC
S2144010B038BD00BF5439400041164000E519400095
S2144010C030B585B005460C46002818BF002914BF29
S2144010D001200020B3220749074B98472368019315
S2144010E063680293A368039301A9281D034B98479E
S2144010F005B030BD54394000411640001D1A40002E
S21440110070B584B00E4615460446A3220849003002
S21440111018BF0120074B984700230293019603957A
S21440112001A9A4F10C00044B984704B070BD00BF61
S2144011305439400041164000C110400070B584B09C
S2144011400E461546044687220849003018BF01203F
S214401150074B9847029600230193039501A9A4F1F3
S2144011600C00044B984704B070BD00BF5439400093
S21440117041164000C110400038B504460D460028D0
S21440118018BF002914BF01200020BD220349044B8C
S21440119098470C342C60002038BD00BF54394000BE
S2144011A041164000F8B5076817B13C4600260BE0EC
S2144011B00E4B9847F8BDA5682B449B1A01338D68A3
S2144011C0AB4209D22646246834B163689342F2D8CB
S2144011D0A5689B1A2B44F2E7BC4203D03046044B2A
S2144011E09847F8BD014B9847F8BD00BF5D164000D4
S2144011F089164000F8B54469066901360661037EE3
S21440120013F0010F05D1037E13F0020F01D10546FE
S21440121009E0037E43F002030376F8BD6F69E36896
S214401220204698473C469CB16368F31AA2689342AE
S2144012300ED305F114073846064B9847237C012BFE
S214401240ECD16660324621463846034B9847E5E780
S214401250F8BD00BF91164000A511400038B50446C1
S2144012600D46002818BF002914BF012000203B224D
S2144012700549064B984729462046054B9847002087
S2144012802061044B236038BD703940004116400051
S214401290991B4000F511400010B5044653220949F9
S2144012A0003018BF0120084B98472046074B984708
S2144012B020B92046064B9847002010BD6FF010001E
S2144012C010BD00BF7039400041164000651C40000C
S2144012D0551C400010B5044661220949003018BF2D
S2144012E00120084B98472046074B984720B1204698
S2144012F0064B9847002010BD6FF0100010BD00BF91
S2144013007039400041164000651C40005D1C40009E
S21440131070B582B004460D46002818BF002914BF99
S214401320012000207A221D491D4B9847237E43F01A
S2144013300103237604F1140629463046194B984794
S21440134088B923696B60226929463046164B984710
S214401350237E03F0FE032376237E13F0020F0ED186
S214401360002002B070BD237E03F0FE0323767F226A
S2144013700A4900200A4B98476FF01100F1E701A890
S2144013800A4B9847237E03F0FD0323762046084BFE
S214401390984701A8074B98470020E2E7703940007D
S2144013A04116400047164000A5114000550F40002A
S2144013B0711C4000630F400008B500238362C36978
S2144013C01BB1A0F108021046984708BD08B5002397
S2144013D08362436A1BB1A0F108021046984708BDD5
S2144013E038B50446A0F108052C30034B9847236ACD
S2144013F00BB12846984738BD2917400070B51546AA
S21440140004460E46002818BF002902D0DAB900204C
S21440141000E0002040F23B120D490E4B9847B4F8CE
S2144014204420B4F84C309A420FD1A664A4F84C50ED
S2144014300023A4F844300123236304F10800064B3C
S2144014409847284670BD0120E4E76FF01B0070BD4A
S2144014508839400041164000B51F400010B504468C
S214401460838FB0F84420934209D0026C591C818780
S214401470D15C044B98472046034B984710BD034B1E
S214401480984710BD911F4000B51F4000D91F40002F
S2144014902DE9F04182B0174605468846002818BF19
S2144014A0002902D0A2B9002000E000204FF4AC7220
S2144014B01049114B984701A8104B98473435284699
S2144014C00F4B9847064601A80E4B9847002407E066
S2144014D00120EBE70134A4B2414428460A4B984722
S2144014E02146A64201D9BC42F4D3204602B0BDE80C
S2144014F0F08100BF8839400041164000550F40003B
S21440150069174000630F4000E5164000F8B51546E1
S2144015101E4604460F46002818BF002908D0131C54
S21440152018BF012316B10BB1012002E0002000E0F5
S21440153000203A221049114B98473246294604F17A
S21440154034000F4B9847A0B9394604F108000D4BBC
S2144015509847034658B90C4A62600C4A22600C4AC7
S214401560A2600C4AE2600C4A22610C4A626118464C
S214401570F8BD6FF00C03FAE788394000411640008A
S214401580A1164000B11E400091144000FD134000DB
S2144015905D144000E1134000B9134000CD134000F5
S2144015A010B5044661220649003018BF0120054B9D
S2144015B0984704F10800044B9847002010BD00BF30
S2144015C088394000411640005D1F400070B50C460B
S2144015D01646054683221749003018BF0120164B91
S2144015E09847012C10D024B1022C18D06FF00C0074
S2144015F070BDAE62321C18BF0122012105F1080001
S2144016000E4B9847002070BD6E62321C18BF0122F8
S214401610022105F10800094B9847002070BDEE6294
S214401620321C18BF0122032105F10800034B9847DE
S214401630002070BD8839400041164000012040001F
S21440164000B900BE704703681BB18B4203D01B68CD
S214401650FAE70020704701207047000038B504467E
S2144016600D46064B984780F0010039220449C0B227
S214401670044B984723682B60256038BD47164000CA
S214401680A83940004116400003680B60016070476F
S21440169003681BB11A6802601846704700207047FE
S2144016A070B5154604460E46002818BF002902D0DD
S2144016B07AB9002000E0002028220849084B9847C5
S2144016C06B1E1D4207D163600020A060E06026606C
S2144016D070BD0120F0E76FF00C0070BDC8394000C7
S2144016E04116400038B504460D46002818BF00296C
S2144016F014BF01200020402209490A4B9847E2685F
S214401700A3689A4209D0226861680B40D35C2B706C
S214401710A3680133A360002038BD6FF0090038BDD0
S214401720C83940004116400038B50D46044651229F
S2144017300B49003018BF01200A4B98472268E368DF
S21440174061680B40D554E368A2689A1A61688A4279
S21440175001D9591AA1600133E360002038BD00BFAB
S214401760C83940004116400010B504466722054976
S214401770003018BF0120044B9847E068A368C01AA1
S21440178010BD00BFC8394000411640000346064A17
S214401790126822B1044A1068034413607047034934
S2144017A0014A1160F6E700BF80044020781C4020C4
S2144017B043B2002B09DB5B0900F01F00012202FA4E
S2144017C000F04033014A42F82300704700E100E051
S2144017D000B583B001A80E4B98470E4AD2F8883021
S2144017E043F47003C2F88830BFF34F8FBFF36F8F58
S2144017F001A8094B9847094A136823F4706343F4D9
S214401800C0631360064B984703B05DF804FB00BF07
S214401810550F400000ED00E0630F4000000C0E4006
S214401820C11840000E490A6A22F002020D4B1343CB
S2144018300B620B4B9B6E13F0010FFAD0084B196AE4
S214401840094A0A431A62996A084A0A409A62084A4A
S2144018509A62034B9B6E13F0020FFAD0704700BF9C
S21440186000060E40013E370000003701FFFF00F83B
S214401870013F1820114A136B23F0700313630F4B7C
S2144018809B6E13F0080FFAD00C4A136B23F4407388
S21440189043F480731363094B9B6E13F0080FFAD022
S2144018A0064A136B23F0030343F002031363034B10
S2144018B09B6E13F0080FFAD0704700BF00060E402C
S2144018C008B5024B9847024B984708BD251840007C
S2144018D0751840000123036000207047036B23F413
S2144018E07F43090289B20B43036300207047000020
S2144018F0044B0344C3F30743052B01D00020704735
S214401900012070470080FFBF70B506460C4608466B
S214401910204B984700233BB300254FF49A721E494C
S214401920002E18BF002C14BF012000201B4B9847E8
S21440193055B3236913F4803F29D180232360346054
S2144019406A68174B13402360AB68164A1A40164B1A
S21440195013436360EB6823632B8AF380EB6803F0E2
S214401960F0033371002070BD03EB83018A000F49FA
S2144019708A5C904202D00133DBB2CCE703EB8305AE
S214401980AB000D461D44C8E76FF00C0070BD6FF00D
S214401990100070BDF1184000003A4000411640006B
S2144019A07CFFFFFE6FFFF1FF10000E00EC39400099
S2144019B010B5044668B103684BB101204FF4B972C4
S2144019C00549064B98472068054B984710BD0020B0
S2144019D0F4E70020F2E700BF003A4000411640001E
S2144019E0D518400038B50D46044670B1036853B16B
S2144019F0012040F2AF120649064B98472946206818
S214401A00054B984738BD0020F3E70020F1E700BFBC
S214401A10003A400041164000DD1840002DE9F041F4
S214401A2086B007460D4604680B6801934B680293E0
S214401A3000230393049303798DF81430261C18BFB3
S214401A40012640F23122334900280CBF002006F020
S214401A500100314B9847236913F4803F22D16FF041
S214401A60130053E0002335E0507841EA002102326B
S214401A70019201330393E160D4F8108040F22222B1
S214401A8024493046244B984718F0080F38D06FF05A
S214401A901200002836DB0398AB68984202D3049ABB
S214401AA093422FD9236913F0010FDBD0A3689BB272
S214401AB0029A5AB1511C029113709DF81420012AC3
S214401AC004D90A46013102911B0A1370049B013364
S214401AD004930123002BCFD1039B049A9A42CBD385
S214401AE0F988226912F0020FC6D0019A002AC0D0A7
S214401AF0511C019111789DF814000128B4D8B8E71C
S214401B000020C6E7236913F4007FFBD006B0BDE88B
S214401B10F08100BF003A4000411640000020704768
S214401B200023012B15D810B403EBC3018A000A49E1
S214401B308A58824207D00133DBB2012BF4D9002009
S214401B405DF8044B704703EBC304A30008461844F3
S214401B50F6E70020704700BF00004020064B984242
S214401B6003D0064B984203D07047054B1960F8E700
S214401B70034B5960F8E700BF00C00040000001403A
S214401B808404402008B5C3681B6A13F0100F00D1C8
S214401B9008BD03689847FBE7F8B507460C46084675
S214401BA0274B984705468668FC60962225490120C3
S214401BB0254B984716F4004F01D046F4142666602D
S214401BC06B696361AB69A361EB682363EB69E361AF
S214401BD0102363622B69C4F8D830394620461B4B25
S214401BE0984795F90430002B0DDB5A0903F01F0384
S214401BF0012101FA03F32032154941F82230BFF3A0
S214401C004F8FBFF36F8F95F90430002B09DB5A09CD
S214401C1003F01F03012101FA03F360320C4941F837
S214401C20223095F90430002B08DB590903F01F03D6
S214401C30012202FA03F3064A42F821300020F8BD9A
S214401C40211B4000183A4000411640005D1B4000F2
S214401C5000E100E0C36805221A607047C3680222AC
S214401C601A607047C368186AC0F3004070470000A7
S214401C7008B5C068024B98470079024B984708BDA4
S214401C80211B4000B11740000020704708B5024BAA
S214401C901868024B984708BD84044020851B4000C6
S214401CA008B5024B5868024B984708BD840440204C
S214401CB0851B400038B504460D46002818BF00294D
S214401CC014BF0120002028220349044B9847256072
S214401CD020232371002038BD2C3A40004116400096
S214401CE0034B984200D07047024B1960FBE700BF99
S214401CF0008002408C04402010B5044640F22F225B
S214401D000549003018BF0120044B9847044820443A
S214401D10C0F3873010BD00BF503A40004116400027
S214401D2000C0FDBF10B504464FF42D720E4900307A
S214401D3018BF01200D4B984720460D4B984700236F
S214401D4043B140F2BE2208490020084B9847002382
S214401D50184610BD03EB43018A0006498A5C904250
S214401D60F6D00133DBB2EBE7503A40004116400074
S214401D70F91C4000443A400010B5044640F2CB22DD
S214401D801149003018BF0120104B98472046104B91
S214401D909847104BC4F8E430002363606362A36244
S214401DA0AC2222604FF4807222604FF40022226000
S214401DB000EB40008100084A0A4452686260074AC5
S214401DC02262184610BD00BF503A400041164000FF
S214401DD0251D400000415355443A40005100030041
S214401DE010B50446AE220649003018BF0120054B08
S214401DF098472046044B98470D30C0B210BD00BFF0
S214401E00503A400041164000F91C400010B50446C8
S214401E1040F289222349003018BF0120224B9847C0
S214401E20A3695A6912F0020F03D01A6912F0020F22
S214401E3018D15A6912F4007F03D01A6912F4007F51
S214401E4016D15A6912F0010F1FD01A6912F0010F0D
S214401E501BD05969154A114211D09A694FF48072C5
S214401E601A6010BD0222DA6023682046984710BDEB
S214401E704FF40072DA60A3682046984710BD626847
S214401E809969C9B22046904710BD5969074A114220
S214401E9000D110BD4FF480721A60E3682046984720
S214401EA0F7E700BF503A400041164000E00000010E
S214401EB070B50C460646D1222249003018BF012094
S214401EC0214B98472046214B9847054608B128465F
S214401ED070BDB461314620461D4B984720461D4B89
S214401EE0984743B2002B0DDB5B0900F01F00012230
S214401EF002FA00F02033184A42F82300BFF34F8F0F
S214401F00BFF36F8F2046134B984743B2002B09DB35
S214401F105B0900F01F00012202FA00F060330E4A0F
S214401F2042F8230020460B4B984743B2002BCEDBAB
S214401F305B0900F01F00012202FA00F0064A42F850
S214401F402300C4E7503A400041164000791D400047
S214401F50E11C4000E11D400000E100E070B50A4E83
S214401F60044640F213123146003018BF0120074D98
S214401F70A847A4694FF43D723146201C18BF012083
S214401F80A8475023236070BD503A40004116400099
S214401F9038B50C46054640F2B5120449003018BF25
S214401FA00120034B9847AB69DC6138BD503A40008E
S214401FB04116400010B5044640F21D220449003048
S214401FC018BF0120034B9847A36902229A6010BDB0
S214401FD0503A40004116400010B5044640F22622D2
S214401FE00549003018BF0120044B9847A3694FF4B9
S214401FF000729A6010BD00BF503A40004116400043
S21440200070B50C46164605464FF414721B49003010
S21440201018BF01201A4B9847C6B1022C18BF002C97
S21440202004D0012C0AD0032C0CD070BDAB69022220
S2144020309A60AB694FF400729A6070BDAB6901223A
S2144020409A6070BDAB690F4A9A6070BD022C18BF8B
S214402050002C07D0012C0DD0032CE6D1AB69094AE1
S214402060DA60E2E7AB690222DA60AB694FF40072ED
S214402070DA6070BDAB690122DA6070BD503A40004C
S21440208041164000E00000010020704708B5024BB2
S2144020901868024B984708BD8C0440200D1E40002F
S2144020A00E490B8801339BB20B804A6801324A6066
S2144020B00B490978C9B28A4204D3084A01211172F1
S2144020C000215160B3F57A7F07D3044B00221A8073
S2144020D0DA680132DA6001221A74704790044020B0
S2144020E048004020054A538A01339BB25382B3F5D9
S2144020F07A7F02D30022014B5A82704790044020D8
S2144021007047704700B583B001220DF107010E48B5
S2144021100E4B98470E4B1B7D23B1012B0AD003B0C4
S2144021205DF804FB9DF80730532BF8D10122084B8D
S2144021301A75F4E79DF80720064B5A70044B0022A8
S2144021401A7501225A75EAE728054020A10F40007B
S21440215090044020480040202DE9F04184B00F46CE
S21440216090468DF807000D4C03A920460C4B984727
S21440217020460C4B98470C4C4FF000756563012287
S2144021800DF107010398094EB04742463946039879
S214402190B0472563002004B0BDE8F081100540201C
S2144021A0791140006D10400000140E40710F400041
S2144021B0F0B585B00E4617468DF807000F4C03A9BC
S2144021C020460F4B984720460E4B98479DF80730C1
S2144021D063F07F0304A901F8093D0B4C4FF00075EE
S2144021E0656301220398094B98473A46314603985F
S2144021F0074B98472563002005B0F0BD10054020EA
S214402200791140006D10400000140E40710F4000E0
S214402210A10F4000044A090101EB203052F820305B
S214402220013342F8203070479405402030B4164CB5
S214402230A2694FF47A73154D03FB0151885401325D
S214402240134981FB0231D317C3EBA10303EB83038E
S2144022505900531A642202FB03F3A361E2699342D6
S21440226001D030BC70470132094981FB0231D31797
S214402270C3EBA10303EB83035900531A642202FB0A
S21440228003F3E361EDE700BF90044020940640204E
S2144022906766666670B584B003A91548154B9847BF
S2144022A0154B1B68019300251EE004AB2B4413F826
S2144022B00C4C630904F01F04012202FA04F40F4E8A
S2144022C006EB432674630DF10B0103980C4B9847BD
S2144022D0346329469DF80B000A4B9847E9B29DF8AF
S2144022E00B00094B98470135032DDEDD04B070BD69
S2144022F010054020791140006C3A4000000E0E4018
S214402300A10F40002D224000152240000F4AD369FD
S2144023109269934217D04FF47A710D4A01FB002020
S214402320C05CC0B25A1C0B4981FB0231D317C3EBC9
S214402330A10303EB83035900531A642202FB03F301
S214402340024AD3617047FF20704700BF9004402088
S214402350940640206766666610B5074C07492046D7
S214402360074B98474FF4E1312046064B98472046A6
S214402370054B984710BD00BF100540200080004028
S2144023801D104000951040006D104000024B4FF06D
S21440239000721A611A63704700140E4008B506486A
S2144023A000234370054BC360054B0361054B4361F7
S2144023B0054B984708BD00BF34164020B121400069
S2144023C05921400003214000DD09400030B5ADB042
S2144023D01C4A26A907201C4B9847A0B106AC1B4DAB
S2144023E00FCD0FC40FCD0FC42B6824F8023B1B0C37
S2144023F0237006A8164B984782B206A91548164B76
S21440240098472DB030BDDDE92A23CDE904230022CC
S214402410124BDDE92601124CA047CDE90201DDE969
S2144024202823CDE900230F4A802106A80E4B984763
S21440243006A8074B984782B206A90648064B984717
S214402440DFE700BF34164020AD0A4000B03A4000F7
S2144024508D30400028054020710F40000000594054
S214402460852C4000703A400025304000F0B5A5B0BD
S214402470734B9847734B9847734B9847734B9847A3
S214402480734C23A92046734B98472046724B984777
S214402490724C0125A562724BE36284F83050714F4E
S2144024A004F120013846704EB04738466F4B984787
S2144024B0E5636F4B236484F8445004F134016D485F
S2144024C0B0476D4B5A78D2B29B78DBB29A420BD06B
S2144024D0694B5B78DBB2022B26D16648634B984744
S2144024E0654A5378DBB293704FF00072634B1A61C3
S2144024F0A3F5C0634FF000521A614FF080421A6154
S2144025004FF000421A615248534B98475C4C5D4A24
S214402510012120465C4DA8475C4A00212046A8473A
S21440252020465B4B984706E052485A4B9847D7E7B9
S2144025304A4B1B7A5BB9584B9847484B1B7C002B41
S214402540F6D0564B98470022444B1A74F0E74A4B55
S2144025505B78DBB2012B09D0022B3AD03F4B5B7D38
S214402560012B54D000223D4B1A72E4E7424B5B7875
S2144025708DF84030394BDA6811921B88ADF84830F8
S21440258000200CE002EB0013454951F8231024AC20
S214402590234403F8461C01320F2AF3DD013003289A
S2144025A001DC0022F8E7402200213D483D4B984799
S2144025B06C4614AD0FCD0FC40FCD0FC40FCD0FC456
S2144025C095E8070084E8070010AB0FCB364CA047D1
S2144025D0C4E7294B5B788DF84030204BDA6811927F
S2144025E01A88ADF848205B8AADF84A30002407E0E8
S2144025F0E0B22E4B984724AB234403F8440C0134F6
S214402600032CF5DD10AB0FCB294CA047A6E71A4BA1
S2144026105B78DBB2012B0AD0022BA3D110A8254B46
S2144026209847102210A91648234B98479AE710A8B7
S214402630224B98474C2210A911481F4B984791E7C8
S214402640D5014000592340008D2340009D23400083
S21440265010054020791140006D1040009004402045
S214402660A1204000780540201113400099124000F8
S214402670E5204000EC0440204800402000140E4076
S2144026802805402001214000CD154000052140008E
S214402690A1154000D512400095224000CD234000B1
S2144026A09405402013304000090B40000D234000A5
S2144026B0E90B4000450C4000710F4000650B4000A0
S2144026C081F0004102E000BF83F0004330B54FEA9E
S2144026D041044FEA430594EA050F08BF90EA020F0B
S2144026E01FBF54EA000C55EA020C7FEA645C7FEA9E
S2144026F0655C00F0E2804FEA5454D4EB5555B8BFC1
S2144027006D420CDD2C4480EA020281EA030382EA31
S214402710000083EA010180EA020281EA0303362DC3
S21440272088BF30BD11F0004F4FEA01314FF4801C96
S2144027304CEA113102D0404261EB410113F0004FA8
S2144027404FEA03334CEA133302D0524263EB43035F
S21440275094EA050F00F0A780A4F10104D5F1200EFD
S2144027600DDB02FA0EFC22FA05F2801841F1000158
S21440277003FA0EF2801843FA05F359410EE0A5F12C
S21440278020050EF1200E012A03FA0EFC28BF4CF05D
S214402790020C43FA05F3C01851EBE37101F0004513
S2144027A007D54FF0000EDCF1000C7EEB00006EEB20
S2144027B00101B1F5801F1BD3B1F5001F0CD34908AA
S2144027C05FEA30004FEA3C0C04F101044FEA445201
S2144027D012F5800F80F09A80BCF1004F08BF5FEA88
S2144027E0500C50F1000041EB045141EA050130BD68
S2144027F05FEA4C0C404141EB010111F4801FA4F10B
S2144028000104E9D191F0000F04BF01460020B1FA5F
S21440281081F308BF2033A3F10B03B3F120020CDA97
S2144028200C3208DD02F1140CC2F10C0201FA0CF075
S21440283021FA02F10CE002F11402D8BFC2F1200CDA
S21440284001FA02F120FA0CFCDCBF41EA0C01904090
S214402850E41AA2BF01EB0451294330BD6FEA0404D9
S2144028601F3C1CDA0C340EDC04F11404C4F12002C4
S21440287020FA04F001FA02F340EA030021FA04F3D6
S21440288045EA030130BDC4F10C04C4F1200220FA2D
S21440289002F001FA04F340EA0300294630BD21FA6B
S2144028A004F0294630BD94F0000F83F4801306BF31
S2144028B081F480110134013D4EE77FEA645C18BF25
S2144028C07FEA655C29D094EA050F08BF90EA020FBC
S2144028D005D054EA000C04BF1946104630BD91EAB4
S2144028E0030F1EBF0021002030BD5FEA545C05D1B7
S2144028F04000494128BF41F0004130BD14F58004F6
S2144029003CBF01F5801130BD01F0004545F0FE4169
S21440291041F470014FF0000030BD7FEA645C1ABF9E
S214402920194610467FEA655C1CBF0B46024650EAD5
S214402930013406BF52EA033591EA030F41F4002101
S21440294030BD00BF90F0000F04BF0021704730B587
S2144029504FF4806404F132044FF000054FF000015C
S21440296050E700BF90F0000F04BF0021704730B51D
S2144029704FF4806404F1320410F0004548BF4042F2
S2144029804FF000013EE700BF42004FEAE2014FEA47
S21440299031014FEA02701FBF12F07F4393F07F4F22
S2144029A081F06051704792F0000F14BF93F07F4F54
S2144029B0704730B54FF4607401F0004521F0004197
S2144029C020E700BF50EA010208BF704730B54FF01D
S2144029D000050AE050EA010208BF704730B511F022
S2144029E0004502D5404261EB41014FF4806404F15A
S2144029F032045FEA915C3FF4DCAE4FF003025FEADC
S214402A00DC0C18BF03325FEADC0C18BF033202EB63
S214402A10DC02C2F1200300FA03FC20FA02F001FABD
S214402A2003FE40EA0E0021FA02F11444C1E600BF5C
S214402A3070B54FF0FF0C4CF4E06C1CEA11541DBF0F
S214402A401CEA135594EA0C0F95EA0C0F00F0DEF8DA
S214402A502C4481EA030621EA4C5123EA4C5350EABF
S214402A60013518BF52EA033541F4801143F4801310
S214402A7038D0A0FB02CE4FF00005E1FB02E506F0A1
S214402A800042E0FB03E54FF00006E1FB03569CF0F6
S214402A90000F18BF4EF0010EA4F1FF04B6F5007FFC
S214402AA064F5407404D25FEA4E0E6D4146EB06066E
S214402AB042EAC62141EA55514FEAC52040EA5E50F7
S214402AC04FEACE2EB4F1FD0C88BFBCF5E06F1ED8A1
S214402AD0BEF1004F08BF5FEA500E50F1000041EBD8
S214402AE0045170BD06F0004646EA010140EA020085
S214402AF081EA0301B4EB5C04C2BFD4EB0C0541EAA7
S214402B00045170BD41F480114FF0000E013C00F3BB
S214402B10AB8014F1360FDEBF002001F0004170BDDF
S214402B20C4F10004203C35DA0C341BDC04F11404F8
S214402B30C4F1200500FA05F320FA04F001FA05F284
S214402B4040EA020001F0004221F0004110EBD37051
S214402B5021FA04F642EB06015EEA430E08BF20EA7D
S214402B60D37070BDC4F10C04C4F1200500FA04F320
S214402B7020FA05F001FA04F240EA020001F00041B2
S214402B8010EBD37041F100015EEA430E08BF20EA25
S214402B90D37070BDC4F1200500FA05F24EEA020E6D
S214402BA020FA04F301FA05F243EA020321FA04F09C
S214402BB001F0004121FA04F220EA020000EBD37053
S214402BC05EEA430E08BF20EAD37070BD94F0000F53
S214402BD00FD101F00046400041EB010111F4801F87
S214402BE008BF013CF7D041EA060195F0000F18BF38
S214402BF0704703F00046520043EB030313F4801F74
S214402C0008BF013DF7D043EA0603704794EA0C0F2D
S214402C100CEA135518BF95EA0C0F0CD050EA410643
S214402C2018BF52EA4306D1D181EA030101F00041C0
S214402C304FF0000070BD50EA410606BF10461946E8
S214402C4052EA430619D094EA0C0F02D150EA0136F4
S214402C5013D195EA0C0F05D152EA03361CBF104635
S214402C6019460AD181EA030101F0004141F0FE41D4
S214402C7041F470014FF0000070BD41F0FE4141F458
S214402C80780170BD70B54FF0FF0C4CF4E06C1CEA58
S214402C9011541DBF1CEA135594EA0C0F95EA0C0F0D
S214402CA000F0A7F8A4EB050481EA030E52EA0335C8
S214402CB04FEA013100F088804FEA03334FF08055E9
S214402CC045EA131343EA12634FEA022245EA111516
S214402CD045EA10654FEA00260EF000419D4208BFC7
S214402CE0964244F1FD0404F5407402D25B084FEA74
S214402CF03202B61A65EB03055B084FEA32024FF420
S214402D0080104FF4002CB6EB020E75EB030E22BF7C
S214402D10B61A754640EA0C005B084FEA3202B6EB3C
S214402D20020E75EB030E22BFB61A754640EA5C00EB
S214402D305B084FEA3202B6EB020E75EB030E22BF7B
S214402D40B61A754640EA9C005B084FEA3202B6EB7C
S214402D50020E75EB030E22BFB61A754640EADC003B
S214402D6055EA060E18D04FEA051545EA16754FEA9D
S214402D7006164FEAC30343EA52734FEAC2025FEABB
S214402D801C1CC0D111F4801F0BD141EA00014FF04A
S214402D9000004FF0004CB6E711F4801F04BF01431B
S214402DA00020B4F1FD0C88BFBCF5E06F3FF6AFAE37
S214402DB0B5EB030C04BFB6EB020C5FEA500C50F1C7
S214402DC0000041EB045170BD0EF0004E4EEA11314A
S214402DD014EB5C04C2BFD4EB0C0541EA045170BD51
S214402DE041F480114FF0000E013C90E645EA060E95
S214402DF08DE60CEA135594EA0C0F08BF95EA0C0FC3
S214402E003FF43BAF94EA0C0F0AD150EA01347FF40A
S214402E1034AF95EA0C0F7FF425AF104619462CE7E1
S214402E2095EA0C0F06D152EA03353FF4FDAE104644
S214402E30194622E750EA410618BF52EA43067FF495
S214402E40C5AE50EA41047FF40DAF52EA43057FF425
S214402E50EBAE12E74FF0FF3C06E000BF4FF0010C30
S214402E6002E000BF4FF0010C4DF804CD4FEA410C94
S214402E707FEA6C5C4FEA430C18BF7FEA6C5C1BD061
S214402E8001B050EA410C0CBF52EA430C91EA030FE2
S214402E9002BF90EA020F0020704710F1000F91EA3F
S214402EA0030F58BF994208BF90422CBFD8176FEA0D
S214402EB0E37040F0010070474FEA410C7FEA6C5CDB
S214402EC002D150EA013C07D14FEA430C7FEA6C5CE2
S214402ED0D6D152EA033CD3D05DF8040B704700BF0E
S214402EE08446104662468C461946634600E000BF5C
S214402EF001B5FFF7B7FF002848BF10F1000F01BD2E
S214402F004DF808EDFFF7F4FF0CBF012000205DF8F8
S214402F1008FB00BF4DF808EDFFF7EAFF34BF01207D
S214402F2000205DF808FB00BF4DF808EDFFF7E0FF16
S214402F3094BF012000205DF808FB00BF4DF808ED67
S214402F40FFF7CEFF94BF012000205DF808FB00BFCE
S214402F504DF808EDFFF7C4FF34BF012000205DF8B0
S214402F6008FB00BF4FEA410212F5001215D211D5F8
S214402F706FF47873B3EB625212D94FEAC12343F031
S214402F80004343EA505311F0004F23FA02F018BFB3
S214402F90404270474FF00000704750EA013005D17C
S214402FA011F0004008BF6FF0004070474FF000003F
S214402FB0704700BF70B50D4E0D4CA41BA4100025E5
S214402FC0A54209D10B4E0C4C00F0CEFDA41BA4101C
S214402FD00025A54205D170BD56F8253098470135E5
S214402FE0EEE756F8253098470135F2E7743B400047
S214402FF0743B4000743B4000783B400010B5431E95
S2144030000A44914200D110BD11F8014B03F8014F1C
S214403010F7E702440346934200D1704703F8011B8A
S214403020F9E700000CB430B5174B0C1E9DB01D6878
S21440303008DA8B232B604FF0FF301DB0BDE83040E0
S21440304002B070474FF40273ADF8143014BF04F169
S214403050FF332346049307934FF6FF730290069080
S214403060ADF81630209A21AB02A92846019300F00D
S214403070CFF8431CBCBF8B232B60002CDDD0029BBB
S21440308000221A70D9E700BF50004020034613F8CC
S214403090012B002AFBD1181A0138704770B5CD1C99
S2144030A025F0030508350C2D38BF0C25002D0646A7
S2144030B001DBA94203D90C233360002070BD00F029
S2144030C0B1FB234A1468214691B9224C23681BB9A8
S2144030D0304600F027FB20602946304600F022FBB1
S2144030E0431C26D10C233360304600F09CFBE4E7BB
S2144030F00B685B1B1AD40B2B0FD90B60CD50CC182A
S214403100304600F090FB04F10B00231D20F0070032
S214403110C31A1BD05A42E25070BD8C420DBF636842
S2144031204B686360136018BF0C46E9E70C46496875
S214403130CAE7C41C24F00304A04205D0211A304636
S21440314000F0F0FA0130CDD02560D9E770BD00BF61
S214403150E4044020E80440202DE9F0478E689E4273
S21440316082460C469146984635D88A8912F4906F26
S21440317031D0256809696F1A6569022305EB450554
S21440318095FBF3F508F101033B449D4238BF1D46CD
S214403190530531D52946FFF781FF064650B90C2323
S2144031A0CAF80030A38943F04003A3814FF0FF30B4
S2144031B0BDE8F0873A462169FFF720FFA38923F44C
S2144031C0906343F08003A381266165613E44ED1B16
S2144031D02660A5604646464528BF4646324649468E
S2144031E0206800F005FBA3689B1BA36023681E4471
S2144031F026600020BDE8F0872A4600F063FB0646BE
S2144032000028E1D12169504600F00EFBC7E70000D8
S2144032102DE9F04F9DB0804603938B891C060D46E2
S21440322016460FD50B696BB94021FFF737FF28606C
S214403230286128B90C23C8F800304FF0FF30C5E0AD
S21440324040236B610023099320238DF829303023D7
S2144032508DF82A304FF0010B37463C4614F8013BB8
S214403260002B3CD1B7EB060A0BD0534632462946D4
S2144032704046FFF771FF013000F0A380099B53449E
S21440328009933B78002B00F09C8000234FF0FF32E0
S21440329004930793059206938DF853301A930522AC
S2144032A02178504800F054FA671C049BD8B9D906D8
S2144032B044BF20228DF853201A0744BF2B228DF896
S2144032C0532022782A2A16D0079A00210A20274619
S2144032D001343B78303B092B51D9C9B111E0252B3D
S2144032E0C0D02746B9E73F4A801A0BFA00F0184389
S2144032F004903C46D3E7039A111D12680391002AB6
S21440330001DB079204E0524243F002030792049323
S2144033103B782E2B0ED17B782A2B07F1010132D138
S214403320039B1A1D1B680392002BB8BF4FF0FF3358
S214403330023705932C4C39780322204600F008FAD1
S21440334038B14023001B03FA00F0049B0343049368
S2144033500137397825488DF8281006227E1C00F063
S214403360F7F9002835D0224BFBB9039B073323F0EF
S214403370070308330393099B4B4409936CE700FB10
S21440338002320121A3E70023059318460A240F467C
S21440339001313A78303A092A03D9002BCAD0059031
S2144033A0C8E704FB00200123F1E703AB00932A465D
S2144033B0104B04A94046AFF30080B0F1FF3F814672
S2144033C0D9D1AB895B063FF538AF09981DB0BDE84B
S2144033D0F08F03AB00932A46064B04A9404600F004
S2144033E081F8EAE7343B40003A3B40003E3B400031
S2144033F000000000593140002DE9F04791461F4635
S2144034008A680B69DDF820809342B8BF1346C9F836
S214403410003091F8432006460C4612B10133C9F8F5
S21440342000302368990642BFD9F800300233C9F805
S2144034300030256815F0060507D104F1190AE3683F
S214403440D9F800209B1A9D4229DB94F84330226825
S214403450003318BF012392062ED404F143023946A6
S2144034603046C047013021D02368E568D9F80020AF
S21440347003F00603042B08BFAD1AA36822690CBFED
S21440348025EAE57500259342C4BF9B1AED184FF018
S21440349000091A344D451BD10020BDE8F0870123B2
S2144034A0524639463046C047013003D14FF0FF30D0
S2144034B0BDE8F0870135C2E7E1185A1C302081F894
S2144034C04300224494F8451082F843100233C4E780
S2144034D00123224639463046C0470130E6D009F13E
S2144034E00109D7E72DE9F04317460A7E85B06E2AD4
S2144034F0984606460C460C9B01F1430E00F0BC80F5
S2144035001AD8632A2ED00AD8002A00F0C880582A33
S21440351000F08A8004F1420584F842202AE0642ABA
S21440352001D0692AF6D121681A6811F0800F23D09D
S214403530111D1960136827E0732A00F0B48008D87C
S2144035406F2A2AD0702AE5D10A6842F020020A6023
S21440355003E0752A21D0782ADCD1782284F84520E9
S2144035606E4964E01A6801F14205111D196013683E
S21440357084F842300123A3E011F0400F02F1040129
S2144035801960D7D0B2F90030002B03DA2D225B4207
S21440359084F8432062490A2217E02068196810F030
S2144035A0800F03D0081D18600B6806E010F0400F2F
S2144035B001F104001860F7D00B8859496F2A14BFF0
S2144035C00A220822002084F843006568A560002D82
S2144035D0C0F29C80206820F004002060002B3FD181
S2144035E0002D40F095807546082A0BD12368DA07EF
S2144035F008D5236962689A42DEBF302305F8013C4D
S21440360005F1FF35AEEB05032361CDF800803B4660
S21440361003AA21463046FFF7EFFE013055D14FF062
S214403620FF3005B0BDE8F08381F845203C4922686C
S214403630186812F0800F00F104051D6001D0036881
S21440364002E05506FBD50388D00744BF42F020026F
S21440365022601BB9226822F0200222601022B1E7C5
S2144036607546B3FBF2F002FB1033CB5C05F8013D28
S21440367003460028F5D1B7E708681A68496910F08C
S214403680800F04D0101D18601368196007E010F012
S214403690400F02F1040018601368F6D0198000232A
S2144036A023617546B1E71A68111D1960156862688E
S2144036B00021284600F04CF808B1401B6060636863
S2144036C02361002384F843309FE723692A4639461E
S2144036D03046C0470130A2D023689B0707D5002557
S2144036E004F11909E368039A9B1A9D4205DBE068DA
S2144036F0039B9842B8BF184693E701234A4639468B
S2144037003046C04701308AD00135EBE7002BA7D1C1
S2144037100B7884F8423004F1420565E7563B40009A
S214403720453B400038B5064C002305460846236016
S214403730FEF72CF8431C02D1236803B12B6038BD3A
S214403740741640200000000000000000000000004A
S21440375001F0FF01102A2BDB10F0070F08D010F8FD
S214403760013B013A8B422DD010F0070F42B3F6D101
S214403770F0B441EA012141EA014122F007047FF01A
S21440378000070023F0E80256083C85EA010586EA71
S214403790010685FA47F5A3FA87F586FA47F6A5FAAD
S2144037A087F68EB9EED1F0BC01F0FF0102F00702B9
S2144037B032B110F8013B013A83EA010313B1F8D164
S2144037C00020704701387047002D06BF3546033845
S2144037D0073815F0010F07D1013015F4807F02BF7E
S2144037E0013015F4C03F0130F0BC0138704700BFCF
S2144037F0884210B501EB020303D8421E99420CD111
S21440380010BD9842F9D28118D21AD34200D110BDC9
S21440381013F8014D01F8014DF7E711F8014B02F896
S214403820014FEBE77047704738B50546002945D04D
S21440383051F8043C0C1F002BB8BFE418FFF7F2FF0A
S2144038401F4A1368104633B9636014602846BDE8C3
S2144038503840FFF7E8BFA3420CD92168621893426C
S21440386004BF1A685B68636004BF52182260046035
S214403870ECE713465A680AB1A242FAD919685818B2
S214403880A0420BD120680144581882421960DDD10D
S214403890106852685A6001441960D7E702D90C2371
S2144038A02B60D3E7206821188A4204BF116852680B
S2144038B0626004BF091821605C60C7E738BD00BF7E
S2144038C0E4044020F8B5074614460E4621B9114692
S2144038D0BDE8F840FFF7E2BB22B9FFF7A5FF254653
S2144038E02846F8BD00F014F884420FD921463846E1
S2144038F0FFF7D4FB05460028F2D031462246FFF7B4
S2144039007DFB31463846FFF78FFFE9E73546E7E768
S21440391051F8040C0028A0F10400BCBF0B58C01896
S214403920704700002E2E2F68616C2F7372632F68CD
S214403930616C5F696F2E63002E2E2F68616C2F734B
S21440394072632F68616C5F72616E645F73796E63D9
S2144039502E6300002E2E2F68616C2F7372632F68C3
S214403960616C5F7370695F6D5F73796E632E630021
S2144039702E2E2F68616C2F7372632F68616C5F7494
S214403980696D65722E6300002E2E2F68616C2F7352
S21440399072632F68616C5F75736172745F6173796F
S2144039A06E632E63000000002E2E2F68616C2F750C
S2144039B074696C732F7372632F7574696C735F6C64
S2144039C06973742E630000002E2E2F68616C2F756D
S2144039D074696C732F7372632F7574696C735F723E
S2144039E0696E676275666665722E63000000000049
S2144039F0000000800100000002169604FFFF000051
S214403A002E2E2F68706C2F7370692F68706C5F73E2
S214403A1070692E63000000002E2E2F68706C2F7485
S214403A20632F68706C5F74632E6300002E2E2F68C1
S214403A30706C2F74726E672F68706C5F74726E67EE
S214403A402E63000001000000C00810005100030073
S214403A502E2E2F68706C2F75736172742F68706C81
S214403A605F75736172742E6300000000791D1E1F1F
S214403A7054656D70657261747572653A2025302E96
S214403A80326620432C2050726573737572653A20F7
S214403A9025302E3266206850612C2048756D69644A
S214403AA06974793A2025302E326625250D0A0000A5
S214403AB04572726F722072656164696E6720424D0E
S214403AC0453238302073656E736F7220646174615E
S214403AD00D0A00000000000000000000000000008A
S214403AE00000000000000000000000000000000091
S214403AF00000000000000000000000000000000081
S214403B000000000000000000000000000000000070
S214403B100000000000000000000000000000000060
S214403B200000000000000000000000000000000050
S214403B3000000000232D302B2000686C4C0065668A
S214403B4067454647003031323334353637383941A9
S214403B5042434445460030313233343536373839BF
S214403B606162636465660000F8B500BFF8BC08BCD7
S214403B709E4670478D014000F8B500BFF8BC08BCB3
S20C403B809E46704769014000B3
S214403B8800C000401700000003C00000000000000E
S214403B980000000049020000000000005D0500002B
S214403BA800000000000001401A00000003C00000AA
S214403BB8000000000000000049020000000000006D
S214403BC800000000000000000A010100010000009B
S214403BD85400402000000000F43A4000143B4000E7
S214403BE8D43A40000000000000000000000000003A
S214403BF80000000000000000000000000000000078
S214403C080000000000000000000000000000000067
S214403C180000000000000000000000000000000057
S214403C280000000000000000000000000000000047
S208403C380000000043
S804400000BB
