S00E00004144435350492E7372656362
S214400000E0184020F9024000F5024000F5024000AA
S214400010F5024000F5024000F502400000000000F6
S214400020000000000000000000000000F502400054
S214400030F502400000000000F5024000F5024000D6
S214400040F5024000F5024000F5024000F50240008F
S214400050F5024000F5024000F5024000F50240007F
S214400060F502400000000000F5024000F5024000A6
S214400070F5024000F502400089154000F5024000B8
S214400080F5024000F5024000F5024000F50240004F
S214400090F5024000F5024000F50240009D11400088
S2144000A0F5024000F5024000F5024000F50240002F
S2144000B0F5024000F5024000F5024000F50240001F
S2144000C0F5024000F5024000F5024000F50240000F
S2144000D0F5024000F5024000F5024000F5024000FF
S2144000E0F5024000F5024000F5024000F5024000EF
S2144000F0F5024000F5024000F5024000F5024000DF
S214400100F5024000F5024000F5024000F5024000CE
S214400110F5024000F502400000000000000000002C
S214400120F5024000F5024000F5024000F5024000AE
S214400130F5024000F5024000F5024000F50240009E
S214400140F5024000F5024000F5024000F50240008E
S214400150F5024000F5024000F5024000F50240007E
S214400160F5024000F502400010B5054C237833B93F
S214400170044B13B10448AFF300800123237010BD35
S2144001800401402000000000FC1940000C4B43B125
S2144001900C480D4910B5AFF300800C48036823B9EE
S2144001A010BD0A48036833B97047094B002BF7D097
S2144001B0BDE810401847064B002BF5D0184700BF47
S2144001C000000000FC19400008014020FC194000D7
S2144001D00000000008B5014B984708BD1D054000CB
S2144001E030B486B00246214B1B889BB283B90023AD
S2144001F003930493CDF8133003AB03CB10605160E8
S21440020019889B7811819372104606B030BC7047AF
S214400210164C63889BB203EB830103EB41031449FE
S2144002200B446D461868596803C519899B7A29801E
S214400230AB70618889B201310E4880FB0130CB1724
S214400240C3EBA00303EB830358000B1A9BB26380F7
S21440025023889BB2013B9BB223806B4603CB106046
S214400260516019889B7811819372CDE72001402018
S214400270440240206766666670B588B008AB03E9FE
S2144002800700184B1B889BB2092B26D8154A938823
S2144002909BB2154E03EB830103EB4103F51805AC07
S2144002A003CCF05069602188A3782981AB7291888D
S2144002B089B201310D4880FB0130CB17C3EBA00358
S2144002C003EB830358000B1A9BB2938013889BB2B0
S2144002D001339BB2138008B070BD6846044B984704
S2144002E0D4E700BF2001402044024020676666668F
S2144002F0E1014000FEE7000008B5104B104A9A4264
S21440030009D00E4B0E4A03E01168196004330432DC
S2144003100C498B42F8D30C4B02E000221A6004339F
S2144003200A4A9342F9D30A4A0A4B23F07F03936062
S214400330094B9847094B9847FEE700BF000040200E
S214400340FC1940000401402004014020E0124020F7
S21440035000ED00E000004000491840003117400022
S21440036008B5084B9B6913F4000F03D14FF4000205
S214400370044B1A61044B9847024604490448054B0F
S214400380984708BD00060E409911400000C0004046
S2144003902403402035084000114B1A6F42F4801267
S2144003A01A675A6F22F480125A674FF480125A60C6
S2144003B01A6F42F400121A675A6F22F400125A67F4
S2144003C04FF400125A601A6F42F480021A675A6F4E
S2144003D022F480025A674FF480025A60704700BF8A
S2144003E000140E40044B9B6913F4001F03D14FF4D6
S2144003F00012014B1A61704700060E4010B5084BBC
S2144004009847084B9847084C01462046074B984764
S21440041007492046074B9847074B984710BD00BFF3
S214400420E503400049104000BC0240200106400061
S214400430008000402106400099034000054BD3F859
S214400440083113F0007F04D14FF00072014BC3F81F
S2144004500021704700060E4008B5034B98470349F5
S2144004600348044B984708BD3D0440000000074041
S214400470B4024020D5054000044B9B6913F4804FDE
S21440048003D14FF48042014B1A61704700060E407C
S2144004900F4B1A6F22F400121A675A6F22F400129A
S2144004A05A674FF400125A600A4AD2F8143143F0A1
S2144004B01003C2F81431084B1A6F42F010021A6744
S2144004C05A6F42F010025A6710225A60704700BFB7
S2144004D0000E0E400080084000100E4010B582B05E
S2144004E0074B9847074B9847074B98470090102371
S2144004F0064A07490748084CA04702B010BD00BF4F
S21440050079044000910440008515400028014020B1
S21440051000800240D4024020A90A400008B5084B9B
S2144005209847084A536843F400435360064B98473D
S214400530064B9847064B9847064B984708BD00BF62
S214400540490D400050180E40FD0340006103400036
S21440055059044000DD044000EFF31083036072B698
S214400560BFF35F8F7047BFF35F8F036883F31088D6
S2144005707047000070B5164604460D46002818BF62
S214400580002914BF0120002034220449044B984718
S2144005902368324629462046984770BD901840004A
S2144005A0DD0B400070B5164604460D46002818BFC1
S2144005B0002914BF012000203D220449044B9847DF
S2144005C06368324629462046984770BD90184000DA
S2144005D0DD0B400038B50D4604462922054900305B
S2144005E018BF0120044B984729462046034B98479E
S2144005F038BD00BFA4184000DD0B4000B1114000DC
S21440060038B50D46044639220349003018BF01204C
S214400610024B9847256038BDC0184000DD0B4000AF
S21440062038B504460D46002818BF002914BF0120DF
S2144006300020402209490A4B9847204640F8045F6C
S2144006402946084B9847002807DB4FF40043A3820F
S214400650054B2361054BE360002038BDC0184000C1
S214400660DD0B40006D0E400015074000D9064000E7
S21440067010B5044657220549003018BF0120044BE8
S2144006809847201D034B984710BD00BFC018400038
S214400690DD0B4000150F400030B585B005460C46D2
S2144006A0002818BF002914BF01200020B3220749A4
S2144006B0074B98472368019363680293A3680393A4
S2144006C001A9281D034B984705B030BDC01840000F
S2144006D0DD0B4000490F400070B584B00E4615460D
S2144006E00446A3220849003018BF0120074B98470C
S2144006F0002302930196039501A9A4F10C00044B34
S214400700984704B070BD00BFC0184000DD0B4000E5
S2144007109906400070B584B00E46154604468722BA
S2144007200849003018BF0120074B9847029600231F
S2144007300193039501A9A4F10C00044B984704B01B
S21440074070BD00BFC0184000DD0B40009906400059
S21440075038B504460D46002818BF002914BF0120AE
S2144007600020BD220349044B98470C342C600020DF
S21440077038BD00BFC0184000DD0B4000F8B5076824
S21440078017B13C4600260BE00E4B9847F8BDA568CF
S2144007902B449B1A01338D68AB4209D22646246807
S2144007A034B163689342F2D8A5689B1A2B44F2E7AB
S2144007B0BC4203D03046044B9847F8BD014B98479F
S2144007C0F8BD00BFF90B4000250C4000F8B5446961
S2144007D0066901360661037E13F0010F05D1037EDC
S2144007E013F0020F01D1054609E0037E43F00203F1
S2144007F00376F8BD6F69E368204698473C469CB14F
S2144008006368F31AA26893420ED305F1140738467C
S214400810064B9847237C012BECD166603246214636
S2144008203846034B9847E5E7F8BD00BF2D0C40001F
S2144008307D07400038B504460D46002818BF0029FD
S21440084014BF012000203B220549064B9847294605
S2144008502046054B984700202061044B236038BD56
S214400860DC184000DD0B4000B1104000CD074000D2
S21440087010B5044653220949003018BF0120084BE2
S21440088098472046074B984720B92046064B98473E
S214400890002010BD6FF0100010BD00BFDC184000F7
S2144008A0DD0B4000751140006D11400070B582B000
S2144008B004460D46002818BF002914BF012000201A
S2144008C07A221D491D4B9847237E43F00103237629
S2144008D004F1140629463046194B984788B92369CF
S2144008E06B60226929463046164B9847237E03F0B4
S2144008F0FE032376237E13F0020F0ED1002002B0B3
S21440090070BD237E03F0FE0323767F220A49002033
S2144009100A4B98476FF01100F1E701A80A4B984739
S214400920237E03F0FD0323762046084B984701A814
S214400930074B98470020E2E7DC184000DD0B4000FC
S214400940E30B40007D074000590540008111400000
S2144009506705400008B500238362C3691BB1A0F158
S21440096008021046984708BD08B500238362436ACC
S2144009701BB1A0F108021046984708BD38B504469A
S214400980A0F108052C30034B9847236A0BB1284644
S214400990984738BDC50C400070B5154604460E460F
S2144009A0002818BF002902D0DAB9002000E0002055
S2144009B040F23B120D490E4B9847B4F84420B4F829
S2144009C04C309A420FD1A664A4F84C500023A4F8A9
S2144009D044300123236304F10800064B9847284619
S2144009E070BD0120E4E76FF01B0070BDF4184000B6
S2144009F0DD0B4000B114400010B50446838FB0F8BC
S214400A004420934209D0026C591C8187D15C044B28
S214400A1098472046034B984710BD034B984710BD58
S214400A208D144000B1144000D51440002DE9F0412B
S214400A3082B0174605468846002818BF002902D0CF
S214400A40A2B9002000E000204FF4AC721049114BD0
S214400A50984701A8104B9847343528460F4B98477F
S214400A60064601A80E4B9847002407E00120EBE716
S214400A700134A4B2414428460A4B98472146A64230
S214400A8001D9BC42F4D3204602B0BDE8F08100BF95
S214400A90F4184000DD0B400059054000050D4000AD
S214400AA067054000810C4000F8B515461E460446D2
S214400AB00F46002818BF002908D0131C18BF012372
S214400AC016B10BB1012002E0002000E000203A22DF
S214400AD01049114B98473246294604F134000F4BD3
S214400AE09847A0B9394604F108000D4B984703468D
S214400AF058B90C4A62600C4A22600C4AA2600C4A02
S214400B00E2600C4A22610C4A62611846F8BD6FF0FA
S214400B100C03FAE7F4184000DD0B40003D0C4000A3
S214400B20AD1340002D0A400099094000F9094000E5
S214400B307D094000550940006909400010B504464B
S214400B4061220649003018BF0120054B984704F142
S214400B500800044B9847002010BD00BFF418400022
S214400B60DD0B40005914400070B50C46164605464D
S214400B7083221749003018BF0120164B9847012C96
S214400B8010D024B1022C18D06FF00C0070BDAE62AD
S214400B90321C18BF0122012105F108000E4B984770
S214400BA0002070BD6E62321C18BF0122022105F182
S214400BB00800094B9847002070BDEE62321C18BFF3
S214400BC00122032105F10800034B9847002070BD21
S214400BD0F4184000DD0B4000FD14400000B900BE94
S214400BE0704703681BB18B4203D01B68FAE70020AE
S214400BF0704701207047000038B504460D46064B46
S214400C00984780F0010039220449C0B2044B984707
S214400C1023682B60256038BDE30B40001419400064
S214400C20DD0B400003680B600160704703681BB132
S214400C301A680260184670470020704770B515461F
S214400C4004460E46002818BF002902D07AB9002074
S214400C5000E0002028220849084B98476B1E1D429A
S214400C6007D163600020A060E060266070BD012070
S214400C70F0E76FF00C0070BD34194000DD0B40000B
S214400C8038B504460D46002818BF002914BF012079
S214400C900020402209490A4B9847E268A3689A42D6
S214400CA009D0226861680B40D35C2B70A36801337F
S214400CB0A360002038BD6FF0090038BD34194000ED
S214400CC0DD0B400038B50D46044651220B49003036
S214400CD018BF01200A4B98472268E36861680B40BA
S214400CE0D554E368A2689A1A61688A4201D9591AAB
S214400CF0A1600133E360002038BD00BF34194000D6
S214400D00DD0B400010B5044667220549003018BF89
S214400D100120044B9847E068A368C01A10BD00BF86
S214400D2034194000DD0B400043B2002B09DB5B0961
S214400D3000F01F00012202FA00F04033014A42F858
S214400D402300704700E100E000B583B001A80E4BD9
S214400D5098470E4AD2F8883043F47003C2F8883079
S214400D60BFF34F8FBFF36F8F01A8094B9847094ACF
S214400D70136823F4706343F4C0631360064B9847CC
S214400D8003B05DF804FB00BF5905400000ED00E0ED
S214400D9067054000000C0E40390E40000E490A6AB6
S214400DA022F002020D4B13430B620B4B9B6E13F06B
S214400DB0010FFAD0084B196A094A0A431A62996A1F
S214400DC0084A0A409A62084A9A62034B9B6E13F09E
S214400DD0020FFAD0704700BF00060E40013E3700B3
S214400DE000003701FFFF00F8013F1820114A136B3F
S214400DF023F0700313630F4B9B6E13F0080FFAD06B
S214400E000C4A136B23F4407343F480731363094B0B
S214400E109B6E13F0080FFAD0064A136B23F00303B9
S214400E2043F002031363034B9B6E13F0080FFAD094
S214400E30704700BF00060E4008B5024B9847024B6D
S214400E40984708BD9D0D4000ED0D4000012303600E
S214400E5000207047044B0344C3F30743052B01D0DF
S214400E6000207047012070470080FFBF70B50646DF
S214400E700C460846204B984700233BB300254FF4CA
S214400E809A721E49002E18BF002C14BF0120002065
S214400E901B4B984755B3236913F4803F29D18023D1
S214400EA0236034606A68174B13402360AB68164A69
S214400EB01A40164B13436360EB6823632B8AF38018
S214400EC0EB6803F0F0033371002070BD03EB830141
S214400ED08A000F498A5C904202D00133DBB2CCE7ED
S214400EE003EB8305AB000D461D44C8E76FF00C00CE
S214400EF070BD6FF0100070BD550E40006C1940007C
S214400F00DD0B40007CFFFFFE6FFFF1FF10000E0080
S214400F105819400010B5044668B103684BB101202B
S214400F204FF4B9720549064B98472068054B9847D9
S214400F3010BD0020F4E70020F2E700BF6C19400027
S214400F40DD0B40004D0E40002DE9F04186B00746CF
S214400F500D4604680B6801934B6802930023039385
S214400F60049303798DF81430261C18BF012640F2EE
S214400F703122334900280CBF002006F00100314BD7
S214400F809847236913F4803F22D16FF0130053E053
S214400F90002335E0507841EA0021023201920133C5
S214400FA00393E160D4F8108040F222222449304670
S214400FB0244B984718F0080F38D06FF012000028DE
S214400FC036DB0398AB68984202D3049A93422FD9F3
S214400FD0236913F0010FDBD0A3689BB2029A5AB183
S214400FE0511C029113709DF81420012A04D90A4618
S214400FF0013102911B0A1370049B013304930123B1
S214401000002BCFD1039B049A9A42CBD3F98822690E
S21440101012F0020FC6D0019A002AC0D0511C01918E
S21440102011789DF814000128B4D8B8E70020C6E728
S214401030236913F4007FFBD006B0BDE8F08100BF03
S2144010406C194000DD0B40000020704700233BB188
S2144010500020704703EBC304A300084618440CE086
S21440106010B403EBC3018A0005498A588242F1D086
S2144010700133DBB2002BF4D000205DF8044B704700
S21440108000004020034B984200D07047024B196046
S214401090FBE700BF00C000403801402008B5C368E9
S2144010A01B6A13F0100F00D108BD03689847FBE792
S2144010B0F8B507460C460846274B984705468668C7
S2144010C0FC60912225490120254B984716F4004F95
S2144010D001D046F4142666606B696361AB69A36110
S2144010E0EB682363EB69E361102363622B69C4F802
S2144010F0D830394620461B4B984795F90430002B8C
S2144011000DDB5A0903F01F03012101FA03F32032D5
S214401110154941F82230BFF34F8FBFF36F8F95F9D3
S2144011200430002B09DB5A0903F01F03012101FAA2
S21440113003F360320C4941F8223095F90430002B15
S21440114008DB590903F01F03012202FA03F3064A9B
S21440115042F821300020F8BD4D1040008419400070
S214401160DD0B40008510400000E100E0C36805222A
S2144011701A607047C368186AC0F3004070470000A2
S21440118008B5C068024B98470079024B984708BD9F
S2144011904D104000290D40000020704708B5024B16
S2144011A01868024B984708BD380140209D10400003
S2144011B038B504460D46002818BF002914BF012044
S2144011C0002028220349044B98472560202323719A
S2144011D0002038BD98194000DD0B4000034B984274
S2144011E000D07047024B1960FBE700BF008002400A
S2144011F03C01402010B5044640F22F2205490030FD
S21440120018BF0120044B984704482044C0F3873059
S21440121010BD00BFBC194000DD0B400000C0FDBF44
S21440122010B504464FF42D720E49003018BF012009
S2144012300D4B984720460D4B9847002343B140F24C
S214401240BE2208490020084B98470023184610BD88
S21440125003EB43018A0006498A5C9042F6D001338C
S214401260DBB2EBE7BC194000DD0B4000F511400057
S214401270B019400010B5044640F2CB221149003068
S21440128018BF0120104B98472046104B9847104BEC
S214401290C4F8E430002363606362A362AC22226039
S2144012A04FF4807222604FF40022226000EB400030
S2144012B08100084A0A4452686260074A2262184619
S2144012C010BD00BFBC194000DD0B4000211240009D
S2144012D000415355B01940005100030010B5044674
S2144012E0AE220649003018BF0120054B98472046DD
S2144012F0044B98470D30C0B210BD00BFBC1940002B
S214401300DD0B4000F511400010B5044640F289223E
S2144013102349003018BF0120224B9847A3695A69D9
S21440132012F0020F03D01A6912F0020F18D15A6950
S21440133012F4007F03D01A6912F4007F16D15A695E
S21440134012F0010F1FD01A6912F0010F1BD0596915
S214401350154A114211D09A694FF480721A6010BD36
S2144013600222DA6023682046984710BD4FF4007288
S214401370DA60A3682046984710BD62689969C9B28A
S2144013802046904710BD5969074A114200D110BD0A
S2144013904FF480721A60E36820469847F7E700BF2C
S2144013A0BC194000DD0B4000E000000170B50C4663
S2144013B00646D1222249003018BF0120214B9847CB
S2144013C02046214B9847054608B1284670BDB46173
S2144013D0314620461D4B984720461D4B984743B202
S2144013E0002B0DDB5B0900F01F00012202FA00F023
S2144013F02033184A42F82300BFF34F8FBFF36F8F56
S2144014002046134B984743B2002B09DB5B0900F09C
S2144014101F00012202FA00F060330E4A42F8230011
S21440142020460B4B984743B2002BCEDB5B0900F0BF
S2144014301F00012202FA00F0064A42F82300C4E7E1
S214401440BC194000DD0B400075124000DD11400025
S214401450DD12400000E100E070B50A4E044640F25E
S21440146013123146003018BF0120074DA847A46923
S2144014704FF43D723146201C18BF0120A847502328
S214401480236070BDBC194000DD0B400038B50C46EB
S214401490054640F2B5120449003018BF0120034B00
S2144014A09847AB69DC6138BDBC194000DD0B400095
S2144014B010B5044640F21D220449003018BF0120F2
S2144014C0034B9847A36902229A6010BDBC1940009E
S2144014D0DD0B400010B5044640F226220549003098
S2144014E018BF0120044B9847A3694FF400729A60D6
S2144014F010BD00BFBC194000DD0B400070B50C4667
S214401500164605464FF414721B49003018BF01209A
S2144015101A4B9847C6B1022C18BF002C04D0012C99
S2144015200AD0032C0CD070BDAB6902229A60AB691E
S2144015304FF400729A6070BDAB6901229A6070BD2C
S214401540AB690F4A9A6070BD022C18BF002C07D0BA
S214401550012C0DD0032CE6D1AB69094ADA60E2E7EC
S214401560AB690222DA60AB694FF40072DA6070BD94
S214401570AB690122DA6070BDBC194000DD0B40004B
S214401580E00000010020704708B5024B1868024B87
S214401590984708BD3C014020091340000D490B8880
S2144015A001339BB20B804A6801324A600A49097887
S2144015B0C9B28A4204D3074A012111720021516000
S2144015C0B3F57A7F05D3034B00221A80DA680132DE
S2144015D0DA607047400140202400402070470000F9
S2144015E000B583B0022201A90648074B98479DF8EC
S2144015F00430532B02D003B05DF804FB0122034BAA
S2144016001A74F8E7D4024020A50540004001402067
S21440161030B4164C62694FF47A73154D03FB015192
S21440162088540132134981FB0231D317C3EBA1031F
S21440163003EB83035900531A642202FB03F36361EE
S214401640A269934201D030BC70470132094981FB00
S2144016500231D317C3EBA10303EB83035900531A9C
S214401660642202FB03F3A361EDE700BF4001402084
S214401670400340206766666670B584B003A9134889
S214401680134B9847134B1B680193002519E004AB96
S2144016902B4413F80C4C630904F01F04012202FA91
S2144016A004F40D4E06EB432674630DF10B010398CC
S2144016B00A4B9847346329469DF80B00084B9847D9
S2144016C00135032DE3DD04B070BD00BFBC024020F1
S2144016D051074000D8194000000E0E40A5054000B6
S2144016E0111640000F4A93695269934217D04FF43F
S2144016F07A710D4A01FB0020C05CC0B25A1C0B49EF
S21440170081FB0231D317C3EBA10303EB83035900DC
S214401710531A642202FB03F3024A93617047FF2088
S214401720704700BF40014020400340206766666621
S21440173030B587B0304B9847304901254D62304B25
S2144017408B6281F82C502F4C1C3120462E4B9847EC
S21440175020462E4B98472E4B4FF080521A614FF042
S21440176000521A614FF080421A614FF000421A61EF
S2144017702848294B9847294C294A29462046294D2E
S214401780A847294A00212046A8472046274B984785
S21440179015E0E0B2264B9847E31D06AA134403F82B
S2144017A0180C0134032CF4DD9DE80700214B9847C4
S2144017B0124B1B7C012B15D00022104B1A721E4B6D
S2144017C098470E4B1B7A002BF9D01C4B5B788DF854
S2144017D000300A4BDA68CDF801201B88ADF805309A
S2144017E00024DFE703A8164B98470B2203A90B48B3
S2144017F0144B9847E0E700BFD50140004001402029
S2144018009D15400024034020AD084000710840006C
S214401810000E0E40BC02402071064000D40240201C
S214401820DD154000690B4000E11540003D0B4000CF
S214401830E51640007902400079164000240040201A
S214401840E10140007505400070B50D4E0D4CA41BDF
S214401850A4100025A54209D10B4E0C4C00F0BEF852
S214401860A41BA4100025A54205D170BD56F825300E
S21440187098470135EEE756F8253098470135F2E7A8
S214401880E8194000E8194000E8194000EC1940000B
S2144018902E2E2F68616C2F7372632F68616C5F69A0
S2144018A06F2E63002E2E2F68616C2F7372632F6825
S2144018B0616C5F72616E645F73796E632E63000065
S2144018C02E2E2F68616C2F7372632F68616C5F7366
S2144018D070695F6D5F73796E632E63002E2E2F687E
S2144018E0616C2F7372632F68616C5F74696D65728B
S2144018F02E6300002E2E2F68616C2F7372632F6844
S214401900616C5F75736172745F6173796E632E6329
S214401910000000002E2E2F68616C2F7574696C7362
S2144019202F7372632F7574696C735F6C6973742E52
S214401930630000002E2E2F68616C2F7574696C73DF
S2144019402F7372632F7574696C735F72696E67620A
S21440195075666665722E6300000000000000008019
S2144019600100000002DC9604FFFF00002E2E2F68C8
S214401970706C2F7370692F68706C5F7370692E631C
S214401980000000002E2E2F68706C2F74632F687036
S2144019906C5F74632E6300002E2E2F68706C2F745D
S2144019A0726E672F68706C5F74726E672E6300008D
S2144019B001000000C0081000510003002E2E2F68C2
S2144019C0706C2F75736172742F68706C5F7573617D
S2144019D072742E63000000001C1D1E1FF8B500BF69
S2144019E0F8BC08BC9E4670478D014000F8B500BF65
S2104019F0F8BC08BC9E46704769014000E9
S2144019FC00C000401700000003C0000000000000BC
S214401A0C0000000049020000000000005D050000D8
S214401A1C000000000101000059455300596F7572D3
S214401A2C206D6573736167653A2000000000000006
S214401A3C0000000000000000000000000000000055
S214401A4C0000000000000000000000000000000045
S214401A5C0000000000000000000000000000000035
S214401A6C0000000000000000000000000000000025
S214401A7C0000000000000000000000000000000015
S214401A8C0000000000000000000000000000000005
S214401A9C00000000000000000000000000000000F5
S214401AAC00000000000000000000000000000000E5
S214401ABC00000000000000000000000000000000D5
S214401ACC00000000000000000000000000000000C5
S214401ADC00000000000000000000000000000000B5
S214401AEC00000000000000000000000000000000A5
S208401AFC00000000A1
S804400000BB
