:020000040040BA
:1000000090064020E5014000E1014000E101400090
:10001000E1014000E1014000E1014000000000007A
:10002000000000000000000000000000E1014000AE
:10003000E101400000000000E1014000E10140005A
:10004000E1014000E1014000E1014000E101400028
:10005000E1014000E1014000E1014000E101400018
:10006000E101400000000000E1014000E10140002A
:10007000E1014000E1014000E1014000E1014000F8
:10008000E1014000E1014000E1014000E1014000E8
:10009000E1014000E1014000E10140006D0C400041
:1000A000E1014000E1014000E1014000E1014000C8
:1000B000E1014000E1014000E1014000E1014000B8
:1000C000E1014000E1014000E1014000E1014000A8
:1000D000E1014000E1014000E1014000E101400098
:1000E000E1014000E1014000E1014000E101400088
:1000F000E1014000E1014000E1014000E101400078
:10010000E1014000E1014000E1014000E101400067
:10011000E1014000E101400000000000000000009B
:10012000E1014000E1014000E1014000E101400047
:10013000E1014000E1014000E1014000E101400037
:10014000E1014000E1014000E1014000E101400027
:10015000E1014000E1014000E1014000E101400017
:10016000E1014000E101400010B5054C237833B9AE
:10017000044B13B10448AFF300800123237010BD7A
:100180002400402000000000D41040000C4B43B17C
:100190000C480D4910B5AFF300800C48036823B933
:1001A00010BD0A48036833B97047094B002BF7D0DC
:1001B000BDE810401847064B002BF5D0184700BF8C
:1001C00000000000D410400028004020D41040005F
:1001D0000000000008B5014B984708BDA903400086
:1001E000FEE7000008B5104B104A9A4209D00E4BAA
:1001F0000E4A03E011681960043304320C498B4243
:10020000F8D30C4B02E000221A6004330A4A9342EE
:10021000F9D30A4A0A4B23F07F039360094B9847AE
:10022000094B9847FEE700BF00004020D410400073
:1002300024004020240040208C00402000ED00E0FD
:10024000000040004D0F40000D0F400008B5084B66
:100250009B6913F4000F03D14FF40002044B1A61A1
:10026000044B9847024604490448054B984708BD8B
:1002700000060E40690C400000C0004070004020A5
:1002800091064000114B1A6F42F480121A675A6FA0
:1002900022F480125A674FF480125A601A6F42F4A7
:1002A00000121A675A6F22F400125A674FF40012B4
:1002B0005A601A6F42F480021A675A6F22F4800261
:1002C0005A674FF480025A60704700BF00140E4016
:1002D000044B9B6913F4001F03D14FF40012014B30
:1002E0001A61704700060E4010B5084B9847084B3E
:1002F0009847084C01462046074B98470749204637
:10030000074B9847074B984710BD00BFD1024000EC
:10031000450B40004C0040205D0440000080004040
:100320007D04400085024000054BD3F8083113F0EE
:10033000007F04D14FF00072014BC3F800217047D9
:1003400000060E4008B5034B984703490348044B89
:10035000984708BD290340000000074044004020A2
:1003600031044000044B9B6913F0800F02D18022BE
:10037000014B1A61704700BF00060E4008B5054BDF
:100380009847054B9847024604490548054B98474E
:1003900008BD00BF65034000AD0E400000080E40E0
:1003A000640040209D07400008B5084B9847084A64
:1003B000536843F400435360064B9847064B9847F5
:1003C000064B9847064B984708BD00BF45084000BC
:1003D00050180E40E90240004D0240004503400025
:1003E0007D034000EFF31083036072B6BFF35F8FAD
:1003F0007047BFF35F8F036883F310887047000076
:1004000070B5164604460D46002818BF002914BFD3
:10041000012000203D220449044B9847636832467E
:1004200029462046984770BD940F4000E5074000DC
:1004300038B50D46044629220549003018BF012071
:10044000044B984729462046034B984738BD00BFC8
:10045000A80F4000E5074000810C400038B50D466C
:10046000044639220349003018BF0120024B984747
:10047000256038BDC40F4000E507400038B504468C
:100480000D46002818BF002914BF0120002040227B
:1004900009490A4B9847204640F8045F2946084B13
:1004A0009847002807DB4FF40043A382054B2361E4
:1004B000054BE360002038BDC40F4000E507400055
:1004C00069094000710540003505400010B504463B
:1004D00057220549003018BF0120044B9847201DC2
:1004E000034B984710BD00BFC40F4000E507400014
:1004F000110A400030B585B005460C46002818BFEB
:10050000002914BF01200020B3220749074B984758
:100510002368019363680293A368039301A9281DCC
:10052000034B984705B030BDC40F4000E5074000BD
:10053000450A400070B584B00E4615460446A32215
:100540000849003018BF0120074B98470023029349
:100550000196039501A9A4F10C00044B984704B03F
:1005600070BD00BFC40F4000E5074000F504400027
:1005700070B584B00E4615460446872208490030FF
:1005800018BF0120074B984702960023019303955B
:1005900001A9A4F10C00044B984704B070BD00BF42
:1005A000C40F4000E5074000F504400038B504469C
:1005B0000D46002818BF002914BF01200020BD22CD
:1005C0000349044B98470C342C60002038BD00BF11
:1005D000C40F4000E5074000F8B5076817B13C4676
:1005E00000260BE00E4B9847F8BDA5682B449B1ADC
:1005F00001338D68AB4209D22646246834B1636862
:100600009342F2D8A5689B1A2B44F2E7BC4203D070
:100610003046044B9847F8BD014B9847F8BD00BFE2
:10062000010840002D084000F8B54469066901360C
:100630000661037E13F0010F05D1037E13F0020F54
:1006400001D1054609E0037E43F002030376F8BDBD
:100650006F69E368204698473C469CB16368F31A8B
:10066000A26893420ED305F114073846064B98470B
:10067000237C012BECD16660324621463846034B81
:100680009847E5E7F8BD00BF35084000D9054000B0
:1006900038B504460D46002818BF002914BF0120B4
:1006A00000203B220549064B984729462046054B2A
:1006B000984700202061044B236038BDE00F4000C4
:1006C000E5074000AD0B400029064000F8B516468E
:1006D00005460F46002818BF002902D00ABB00209B
:1006E00000E00020F1221049104B984705F1080462
:1006F00020460F4B98470028F8D00025795D20460A
:100700000C4B984720460A4B98470028FAD00135F1
:10071000B542F3D32046084B98470028FAD0284624
:10072000F8BD0120DEE700BFF80F4000E5074000FC
:10073000350E4000ED0D40005D0E40002DE9F0410A
:10074000174605468846002818BF002902D0D2B9AE
:10075000002000E000204FF486720C490C4B9847B3
:10076000002605F1080420460A4B98470028F8D0D7
:100770002046094B984708F806000136BE42F0D3E0
:100780003046BDE8F0810120E5E700BFF80F4000EA
:10079000E5074000850E4000110E400038B50446C4
:1007A0000D46002818BF002914BF01200020342264
:1007B0000749084B9847294604F10800064B98471B
:1007C000034618B9054A6260054A2260184638BDDA
:1007D000F80F4000E5074000B50D40003D07400020
:1007E000CD06400000B900BE704703681BB18B42C4
:1007F00003D01B68FAE70020704701207047000013
:1008000038B504460D46064B984780F00100392262
:100810000449C0B2044B984723682B60256038BD5B
:10082000EB07400014104000E507400003680B6030
:100830000160704703681BB11A6802601846704770
:100840000020704700B583B001A80E4B98470E4AB0
:10085000D2F8883043F47003C2F88830BFF34F8F6A
:10086000BFF36F8F01A8094B9847094A136823F417
:10087000706343F4C0631360064B984703B05DF8A0
:1008800004FB00BFE503400000ED00E0F30340007F
:10089000000C0E40350940000E490A6A22F002029F
:1008A0000D4B13430B620B4B9B6E13F0010FFAD0F1
:1008B000084B196A094A0A431A62996A084A0A40A7
:1008C0009A62084A9A62034B9B6E13F0020FFAD0A9
:1008D000704700BF00060E40013E370000003701A0
:1008E000FFFF00F8013F1820114A136B23F070033B
:1008F00013630F4B9B6E13F0080FFAD00C4A136B67
:1009000023F4407343F480731363094B9B6E13F01D
:10091000080FFAD0064A136B23F0030343F00203D7
:100920001363034B9B6E13F0080FFAD0704700BFA0
:1009300000060E4008B5024B9847024B984708BD89
:1009400099084000E9084000012303600020704737
:10095000044B0344C3F30743052B01D00020704729
:10096000012070470080FFBF70B506460C46084660
:10097000204B984700233BB300254FF49A721E4941
:10098000002E18BF002C14BF012000201B4B9847DD
:1009900055B3236913F4803F29D180232360346049
:1009A0006A68174B13402360AB68164A1A40164B0F
:1009B00013436360EB6823632B8AF380EB6803F0D7
:1009C000F0033371002070BD03EB83018A000F49EF
:1009D0008A5C904202D00133DBB2CCE703EB8305A3
:1009E000AB000D461D44C8E76FF00C0070BD6FF002
:1009F000100070BD5109400048104000E50740005C
:100A00007CFFFFFE6FFFF1FF10000E00341040006E
:100A100010B5044668B103684BB101204FF4B972B8
:100A20000549064B98472068054B984710BD0020A4
:100A3000F4E70020F2E700BF48104000E50740005F
:100A4000490940002DE9F04186B007460D4604688B
:100A50000B6801934B68029300230393049303797B
:100A60008DF81430261C18BF012640F2312233497C
:100A700000280CBF002006F00100314B9847236985
:100A800013F4803F22D16FF0130053E0002335E0D0
:100A9000507841EA00210232019201330393E16070
:100AA000D4F8108040F2222224493046244B984743
:100AB00018F0080F38D06FF01200002836DB0398CA
:100AC000AB68984202D3049A93422FD9236913F05A
:100AD000010FDBD0A3689BB2029A5AB1511C02915C
:100AE00013709DF81420012A04D90A46013102919D
:100AF0001B0A1370049B013304930123002BCFD1F5
:100B0000039B049A9A42CBD3F988226912F0020F10
:100B1000C6D0019A002AC0D0511C019111789DF8CD
:100B200014000128B4D8B8E70020C6E7236913F4FD
:100B3000007FFBD006B0BDE8F08100BF4810400048
:100B4000E50740000020704700233BB100207047BC
:100B500003EBC304A300084618440CE010B403EBF5
:100B6000C3018A0005498A588242F1D00133DBB2C1
:100B7000002BF4D000205DF8044B704700004020AB
:100B8000034B984200D07047024B1960FBE700BF4F
:100B900000C000404000402008B5C3681B6A13F045
:100BA000100F00D108BD03689847FBE7F8B507466A
:100BB0000C460846274B984705468668FC609122FC
:100BC00025490120254B984716F4004F01D046F4E3
:100BD000142666606B696361AB69A361EB6823638C
:100BE000EB69E361102363622B69C4F8D83039469E
:100BF00020461B4B984795F90430002B0DDB5A0912
:100C000003F01F03012101FA03F32032154941F8D3
:100C10002230BFF34F8FBFF36F8F95F90430002B55
:100C200009DB5A0903F01F03012101FA03F36032C3
:100C30000C4941F8223095F90430002B08DB5909A2
:100C400003F01F03012202FA03F3064A42F821309F
:100C50000020F8BD490B400060104000E50740004F
:100C6000810B400000E100E00020704708B5024B16
:100C70001868024B984708BD40004020990B40007F
:100C800038B504460D46002818BF002914BF0120BE
:100C9000002028220349044B984725602023237114
:100CA000002038BD74104000E507400010B5044630
:100CB00040F219221249003018BF0120114B984709
:100CC000114B9C4213D003F500739C4211D003F5E5
:100CD00080539C420FD003F500739C420DD003F566
:100CE00000739C4201D0FF2010BD042010BD0020E5
:100CF00010BD012010BD022010BD032010BD00BF9B
:100D000098104000E507400000080E4010B504466A
:100D10004FF427720E49003018BF01200D4B984741
:100D200020460D4B9847002343B140F2A6220849C4
:100D30000020084B98470023184610BD03EB4301E1
:100D40008A0006498A5C9042F6D00133DBB2EBE7B9
:100D500098104000E5074000AD0C40008C104000AA
:100D600010B5044640F2B3220D49003018BF0120EF
:100D70000C4B984720460C4B98470C4BC4F8E4307A
:100D8000AC2323604FF48073236000EB40008200AB
:100D9000074B13445B686360F4232362002010BD9B
:100DA00098104000E50740000D0D400000524155ED
:100DB0008C104000F8B50C46094E0746A922314672
:100DC000003018BF0120074DA847AA223146201C39
:100DD00018BF0120A8473C602046034B9847F8BD48
:100DE00098104000E5074000610D400038B50C4602
:100DF000054640F295120449003018BF0120034B0C
:100E000098472B68DC6138BD98104000E50740002A
:100E100010B5044640F2A7120449003018BF012063
:100E2000034B984723689869C0B210BD98104000E2
:100E3000E507400010B504464FF4D872054900306C
:100E400018BF0120044B984723685869C0F340003D
:100E500010BD00BF98104000E507400010B50446E3
:100E600040F2B9120549003018BF0120044B9847E1
:100E700023685869C0F3402010BD00BF981040009F
:100E8000E507400010B5044640F2CB12054900309A
:100E900018BF0120044B98472368586900F00100EF
:100EA00010BD00BF98104000E507400000207047CB
:100EB00070B584B003A91048104B9847104B1B68BD
:100EC0000193002613E004AB334413F80C5C6A0969
:100ED00005F01F0301259D400A4C04EB4224656385
:100EE000022202A90398084B984725630136032E76
:100EF000E9DD04B070BD00BF4C004020AD054000EE
:100F0000B0104000000E0E400104400008B50A4B2E
:100F100098470A4B4FF080521A614FF000521A6105
:100F20004FF080421A614FF000421A610448054BAD
:100F30009847054B9847FCE7D5014000000E0E404E
:100F40004C004020CD044000B10E400070B50D4E65
:100F50000D4CA41BA4100025A54209D10B4E0C4C2E
:100F600000F0A8F8A41BA4100025A54205D170BD6F
:100F700056F8253098470135EEE756F82530984762
:100F80000135F2E7C0104000C0104000C010400022
:100F9000C41040002E2E2F68616C2F7372632F686F
:100FA000616C5F696F2E63002E2E2F68616C2F734A
:100FB00072632F68616C5F72616E645F73796E63D8
:100FC0002E6300002E2E2F68616C2F7372632F68C2
:100FD000616C5F7370695F6D5F73796E632E630020
:100FE0002E2E2F68616C2F7372632F68616C5F7493
:100FF000696D65722E6300002E2E2F68616C2F7351
:1010000072632F68616C5F75736172745F73796E60
:10101000632E63002E2E2F68616C2F7574696C73BC
:101020002F7372632F7574696C735F6C6973742EA0
:1010300063000000000000000000008001000000CC
:1010400002DC9604FFFF00002E2E2F68706C2F73B9
:1010500070692F68706C5F7370692E630000000008
:101060002E2E2F68706C2F74632F68706C5F746302
:101070002E6300002E2E2F68706C2F74726E672FF7
:1010800068706C5F74726E672E6300000000000071
:1010900000080000F40000002E2E2F68706C2F75E1
:1010A0006172742F68706C5F756172742E630000DA
:1010B0001C1D1E1FF8B500BFF8BC08BC9E4670473B
:1010C0008D014000F8B500BFF8BC08BC9E467047D3
:0410D0006901400072
:1010D40000C000401700000001C000000000000034
:1010E400000000009F240000000000003E490000B2
:0410F40000000000F8
:0400000500400000B7
:00000001FF
