:020000040040BA
:10000000A8284020E5014000E1014000E101400056
:10001000E1014000E1014000E1014000000000007A
:10002000000000000000000000000000E1014000AE
:10003000E101400000000000E1014000E10140005A
:10004000E1014000E1014000E1014000E101400028
:10005000E1014000E1014000E1014000E101400018
:10006000E101400000000000E101400031134000C8
:10007000E1014000E1014000191A4000E1014000A7
:10008000E1014000E1014000E1014000E1014000E8
:10009000E1014000E1014000E1014000E1014000D8
:1000A000E1014000E1014000E1014000E1014000C8
:1000B000E1014000E1014000E1014000E1014000B8
:1000C000E1014000E1014000E1014000E1014000A8
:1000D000E1014000E1014000E1014000E101400098
:1000E000E1014000E1014000E1014000E101400088
:1000F000E1014000E1014000E1014000E101400078
:10010000E1014000E1014000E1014000E101400067
:10011000E1014000E101400000000000000000009B
:10012000E1014000E1014000E1014000E101400047
:10013000E1014000E1014000E1014000E101400037
:10014000E1014000E1014000E1014000E101400027
:10015000E1014000E1014000E1014000E101400017
:10016000E1014000E101400010B5054C237833B9AE
:10017000044B13B10448AFF300800123237010BD7A
:10018000DC01402000000000D43140000C4B43B1A2
:100190000C480D4910B5AFF300800C48036823B933
:1001A00010BD0A48036833B97047094B002BF7D0DC
:1001B000BDE810401847064B002BF5D0184700BF8C
:1001C00000000000D4314000E0014020D431400064
:1001D0000000000008B5014B984708BDB50340007A
:1001E000FEE7000008B5104B104A9A4209D00E4BAA
:1001F0000E4A03E011681960043304320C498B4243
:10020000F8D30C4B02E000221A6004330A4A9342EE
:10021000F9D30A4A0A4B23F07F039360094B9847AE
:10022000094B9847FEE700BF00004020D431400052
:10023000DC014020DC014020A822402000ED00E04D
:10024000000040002D1A4000490840000122014BE7
:100250001A607047F8014020034B04225A611A6665
:10026000C3F890201A60704700100E40114B1A6FAF
:1002700042F480121A675A6F22F480125A674FF4C0
:1002800080125A601A6F42F400121A675A6F22F4F1
:1002900000125A674FF400125A601A6F42F480023B
:1002A0001A675A6F22F480025A674FF480025A602C
:1002B000704700BF00140E40044B9B6913F4001FED
:1002C00003D14FF40012014B1A61704700060E4033
:1002D00010B5084B9847084B9847084C01462046F4
:1002E000074B984707492046074B9847074B9847C5
:1002F00010BD00BFB9024000691640008C224020AA
:10030000750B400000800040950B40006D024000DE
:10031000044B9B6913F4804F03D14FF48042014B8F
:100320001A61704700060E400F4B1A6F22F400123C
:100330001A675A6F22F400125A674FF400125A607B
:100340000A4AD2F8143143F01003C2F81431084BB2
:100350001A6F42F010021A675A6F42F010025A6781
:1003600010225A60704700BF000E0E400080084007
:1003700000100E4010B582B0074B9847074B9847C6
:10038000074B984700901023064A07490748084C36
:10039000A04702B010BD00BF110340002903400078
:1003A000151A4000FC014020008002403C22402001
:1003B000450E400008B5244B9847244B9B6913F425
:1003C000806F03D14FF48062204B1A611F4B9B69F1
:1003D00013F4006F03D14FF400621C4B1A611C4AE6
:1003E000536843F400435360A2F525624FF40003C1
:1003F000136313611360174B0821196319611960A6
:1004000015494FF00070086308610860A1F500719C
:100410004FF0804008630861086001215163116159
:10042000116004225A611A66C3F890201A600B4BBF
:1004300098470B4B98470B4B98470B4B98470B49EA
:1004400022200B4B984708BDDD10400000060E40EF
:1004500050180E4000100E4000140E40590240008B
:10046000D102400075034000250A40004D024000C3
:10047000590A4000044A936B03F40003D94301F482
:100480000001116353637047000E0E400122014BBF
:100490001A6070470C0240207047000000B583B01E
:1004A0008DF8070001220DF107010748074B984717
:1004B0000128F7D100210448054B98470028F9D1BD
:1004C00003B05DF804FB00BF3C224020150B400048
:1004D000790F400038B50546002403E0285D044B41
:1004E000984701342846034B9847A042F6D838BDB8
:1004F0009D044000251B40000A4B1B680BB90020DF
:10050000704700B583B001220DF107010648074B83
:1005100098470022034B1A609DF8070003B05DF86E
:1005200004FB00BF0C0240203C224020450B400051
:1005300000B583B00A4B1B68002BFBD001220DF1E4
:1005400007010848084B98479DF80700074B984754
:100550000022034B1A609DF8070003B05DF804FB0E
:100560000C0240203C224020450B40009D044000EE
:1005700038B505460024047006E000232B5538BD2D
:10058000013C0948094B9847094B98470A28F4D081
:10059000082814BF00230123002C08BF0023002BD0
:1005A000EED128550134EFE7542D4000D50440002A
:1005B0003105400070B5A0B03E4D6A683E496846BE
:1005C0003E4B984768463E4CA04720236B603D4811
:1005D000A047002404E03C48394B984718E0013418
:1005E000344B5B689C4219DA324B03EB84039A6804
:1005F00036496846314B98476846314B98476342C5
:1006000004F0070503F0070358BF5D42072DE2D051
:10061000032DE4D12E482A4B9847E0E72A48284C7E
:10062000A0472C4D55F8F02C2B496846234EB04777
:100630006846A04755F8EC2C28496846B0476846FC
:10064000A04755F8E82C26496846B0476846A047B9
:100650002D2345F8E83C2348A047002404E01A482D
:10066000174B98471AE001341A4B53F8E83C9C4268
:100670001ADA184B03EB840353F8E42C1A49684642
:100680000E4B984768460E4B9847634204F00705A7
:1006900003F0070358BF5D42072DE0D0032DE2D1E0
:1006A0000B48074B9847DEE70748054B984720B0B3
:1006B00070BD00BF0C024020582D4000851A40003C
:1006C000D50440006C2D4000282E40007C2D4000B9
:1006D000802D400004134020842D4000A02D4000B8
:1006E000B82D4000D42D4000F02D4000F0B583B06F
:1006F00007460A4E01A93046094B9847094C4FF06E
:10070000007565633046084B9847022239460198C8
:10071000064B9847256303B0F0BD00BF8C224020F4
:10072000C50C400000140E40E50B4000150B4000C6
:1007300030B583B00546074C01A92046064B9847C3
:100740002046064B9847022229460198044B9847B9
:1007500003B030BD8C224020C50C4000E50B4000AA
:10076000450B400030B591B000222D4B1A602D4D45
:100770002B681A128DF800208DF8013068462A4C3B
:10078000A0476B681A128DF800208DF8013068467A
:10079000A047AB681A128DF800208DF8013068462A
:1007A000A0474FF08042214B5A630822A3F5007303
:1007B0005A630122A3F500731A6302E01C4B9847A9
:1007C000F8B9174B1B68002BF8D06846194B9847AF
:1007D0009DF800309DF8012042EA0322D208164914
:1007E0006846164B98476846154B9847154B0122AB
:1007F0005A631A6300220A4B1A600D4B984700286F
:10080000DFD001220F4B5A634FF0007203F5C06333
:100810001A634FF08042A3F500731A6311B030BD24
:10082000F801402000004020ED06400000120E407C
:10083000F904400031074000F82D4000851A4000BF
:10084000D5044000000E0E4070B598B040F6FF434E
:10085000039340F6FF53029340F6FF6301933F4B2F
:1008600098473F4C3F4A012120463F4DA8473F4A09
:1008700000212046A8473E4A02212046A84720469C
:100880003C4B98472EE003AB6A463B4904A83B4CDF
:10089000A04727E002AB6A46374904A8374CA04777
:1008A00020E001AB6A46344904A8344CA04719E063
:1008B000334B984716E0334B984733480024446045
:1008C0004FF48056324621460830304DA847304814
:1008D00040F8F04C40F8EC4C40F8E84C32462146E9
:1008E000E438A8472B482C4CA047039A2B4904A86E
:1008F0002B4DA84704A8A047029A2A4904A8A84754
:1009000004A8A047019A284904A8A84704A8A0471A
:100910002648A0472648A0472648A0472648A04783
:1009200000238DF810302548A04704A8244B984791
:100930009DF81030313B062BD4D801A252F823F099
:100940008708400095084000A3084000B108400017
:10095000E5084000B7084000BB084000D501400052
:100960003C22402075044000050F40008D044000EB
:1009700099044000D90E4000DC2E4000CD1A400002
:1009800065074000B50540000C024020751A400084
:10099000041340200C2E4000D50440002C2E4000B3
:1009A000851A4000542E40007C2E4000A42E4000AA
:1009B000B02E4000BC2E4000CC2E4000D82E40006F
:1009C00071054000EFF31083036072B6BFF35F8FD1
:1009D0007047BFF35F8F036883F310887047000090
:1009E00038B50125002407E00D4A52F83330B3B181
:1009F000984738BD0139CDB2AC4210D82B195B10E5
:100A000013F0FF010BD1DBB2054A02EBC3025268BF
:100A10008242E9D08242EDD20131CCB2ECE738BD5E
:100A20002022402008B500231BB10848084B9847F6
:100A300008BD084A02EBC3014FF0FF3048600021B7
:100A400042F8331001339BB2EEE700BFE1094000EA
:100A50003D13400020224020F0B583B0054600231E
:100A600063B10026C9B1002E43D100230BBB274A36
:100A700052F83320B2B10133DBB2F7E71846234A0C
:100A800002EBC3025268AA4202D00133DBB2E7E7AD
:100A90001E4B43F830100126E4E78EB328461C4B6A
:100AA00098472BE0194A42F8331002EBC300456027
:100AB0000126002201E00132D2B2002A08BF002B39
:100AC00017D19E46114901EBC300476801EBC201F3
:100AD00049688F42EFD2B1F1FF3FECD00B4C04EBF1
:100AE000C20003C88DE8030004EBC30484E80300DC
:100AF000E1E746B101212846054B984703B0F0BD18
:100B00006FF00C00FAE76FF00C00F7E720224020AE
:100B10005D13400070B5164604460D46002818BF08
:100B2000002914BF0120002034220449044B9847B7
:100B30002368324629462046984770BDE42E40007F
:100B4000C50F400070B5164604460D46002818BF74
:100B5000002914BF012000203D220449044B98477E
:100B60006368324629462046984770BDE42E40000F
:100B7000C50F400038B50D46044639220349003000
:100B800018BF0120024B9847256038BDF82E400061
:100B9000C50F400038B504460D46002818BF00298F
:100BA00014BF01200020402209490A4B98472046E3
:100BB00040F8045F2946084B9847002807DB4FF4AC
:100BC0000043A382054B2361054BE360002038BD41
:100BD000F82E4000C50F40008D144000890C4000E5
:100BE0004D0C400010B5044657220549003018BF8F
:100BF0000120044B9847201D034B984710BD00BFB0
:100C0000F82E4000C50F40003515400030B585B0C6
:100C100005460C46002818BF002914BF01200020FB
:100C2000B3220749074B98472368019363680293EF
:100C3000A368039301A9281D034B984705B030BD55
:100C4000F82E4000C50F40006915400070B584B013
:100C50000E4615460446A3220849003018BF01205D
:100C6000074B9847002302930196039501A9A4F12D
:100C70000C00044B984704B070BD00BFF82E400034
:100C8000C50F40000D0C400070B584B00E461546EF
:100C9000044687220849003018BF0120074B9847B7
:100CA000029600230193039501A9A4F10C00044BC3
:100CB000984704B070BD00BFF82E4000C50F40003B
:100CC0000D0C400038B504460D46002818BF002919
:100CD00014BF01200020BD220349044B98470C3467
:100CE0002C60002038BD00BFF82E4000C50F40002A
:100CF00008B500238362C3691BB1A0F10802104646
:100D0000984708BD08B500238362436A1BB1A0F170
:100D100008021046984708BD38B50446A0F10805FA
:100D20002C30034B9847236A0BB12846984738BDAF
:100D30005510400070B5154604460E46002818BFF1
:100D4000002902D0DAB9002000E0002040F23B1276
:100D50000D490E4B9847B4F84420B4F84C309A42F1
:100D60000FD1A664A4F84C500023A4F8443001230A
:100D7000236304F10800064B9847284670BD012004
:100D8000E4E76FF01B0070BD142F4000C50F40005A
:100D90004119400010B50446838FB0F844209342B7
:100DA00009D0026C591C8187D15C044B98472046BE
:100DB000034B984710BD034B984710BD1D194000C9
:100DC00041194000651940002DE9F04182B01746F5
:100DD00005468846002818BF002902D0A2B9002085
:100DE00000E000204FF4AC721049114B984701A865
:100DF000104B9847343528460F4B9847064601A8B4
:100E00000E4B9847002407E00120EBE70134A4B221
:100E1000414428460A4B98472146A64201D9BC4284
:100E2000F4D3204602B0BDE8F08100BF142F40008B
:100E3000C50F4000C509400095104000D30940008F
:100E400011104000F8B515461E4604460F4600280E
:100E500018BF002908D0131C18BF012316B10BB10D
:100E6000012002E0002000E000203A221049114B4E
:100E700098473246294604F134000F4B9847A0B9F1
:100E8000394604F108000D4B9847034658B90C4AFF
:100E900062600C4A22600C4AA2600C4AE2600C4A72
:100EA00022610C4A62611846F8BD6FF00C03FAE744
:100EB000142F4000C50F4000CD0F40003D184000EA
:100EC000C90D4000350D4000950D4000190D400042
:100ED000F10C4000050D400010B5044661220649A2
:100EE000003018BF0120054B984704F10800044B5F
:100EF0009847002010BD00BF142F4000C50F4000D0
:100F0000E918400070B50C4616460546832217497D
:100F1000003018BF0120164B9847012C10D024B187
:100F2000022C18D06FF00C0070BDAE62321C18BFDE
:100F30000122012105F108000E4B9847002070BDE9
:100F40006E62321C18BF0122022105F10800094B14
:100F50009847002070BDEE62321C18BF01220321A9
:100F600005F10800034B9847002070BD142F400086
:100F7000C50F40008D19400038B50D46044640F2BB
:100F80000B120D49003018BF01200C4B98474DB192
:100F9000236B2B60B4F84430AB8004F13400084B71
:100FA0009847E880236B13F0010F01D1002038BD72
:100FB0006FF0030038BD00BF142F4000C50F400084
:100FC0009510400000B900BE7047000070B515468E
:100FD00004460E46002818BF002902D07AB9002026
:100FE00000E0002028220849084B98476B1E1D424C
:100FF00007D163600020A060E060266070BD012022
:10100000F0E76FF00C0070BD342F4000C50F4000BA
:1010100038B504460D46002818BF002914BF01202A
:101020000020402209490A4B9847E268A3689A4287
:1010300009D0226861680B40D35C2B70A368013330
:10104000A360002038BD6FF0090038BD342F400088
:10105000C50F400038B50D46044651220B490030FB
:1010600018BF01200A4B98472268E36861680B406B
:10107000D554E368A2689A1A61688A4201D9591A5C
:10108000A1600133E360002038BD00BF342F400071
:10109000C50F400010B5044667220549003018BF4F
:1010A0000120044B9847E068A368C01A10BD00BF38
:1010B000342F4000C50F40000346064A126822B193
:1010C000044A10680344136070470349014A1160E1
:1010D000F6E700BF28224020A828402000B583B0B2
:1010E00001A80E4B98470E4AD2F8883043F470039B
:1010F000C2F88830BFF34F8FBFF36F8F01A8094B41
:101100009847094A136823F4706343F4A06313609B
:10111000064B984703B05DF804FB00BFC5094000CB
:1011200000ED00E0D3094000000C0E4059144000CF
:1011300030B400258D4210D2012200231F2B0AD883
:1011400050F82540224202D152000133F6E703EB6A
:10115000451030BC70470135ECE74FF0FF30F8E741
:1011600010B586B000230193029303930493059373
:101170001B4B1868F8221B49003018BF01201A4B7E
:1011800098471A4AD36C926C134002931FE0144B99
:101190001B6820469847631104F01F04012202FADD
:1011A00004F406AA02EB830353F8142C22EA040287
:1011B00043F8142C052101A80D4B98470446B4F1BF
:1011C000FF3FE4D1094AD16C936C0B4002932BB1E1
:1011D000052101A8064B98470446F0E706B010BD6C
:1011E0002C2240207C2F4000C50F400000100E40F4
:1011F0003111400010B50446D2220549003018BF15
:101200000120044B984704482044C0F3472010BDF8
:101210007C2F4000C50F400000F2F1BF10B504461E
:10122000E0220D49003018BF01200C4B98472046A2
:101230000B4B9847002313B14FF0FF3010BDC3EBA9
:10124000C3018A0007498A5C904202D00133DBB2B5
:10125000F1E758B210BD00BF7C2F4000C50F400021
:10126000F5114000582F400038B504464FF4AA72DB
:101270002949003018BF0120284B98472046284BA9
:101280009847002843DB274DC200111A8B002B44DE
:101290009968C4F8B010D968C4F8C0101B69C4F8C4
:1012A000C4300023C4F8D030101A83002B445B698B
:1012B000C4F8D43020461C4B9847284490F91C3081
:1012C000002B0CDB5A0903F01F0001218140203262
:1012D000164840F82210BFF34F8FBFF36F8F002BDB
:1012E00008DB5A0903F01F000121814060320F48DA
:1012F00040F82210002B0DDB590903F01F030122D7
:1013000002FA03F3094A42F82130002038BD6FF099
:10131000100038BD002038BD7C2F4000C50F4000B4
:101320001D124000582F4000F511400000E100E080
:1013300008B5014B984708BD6111400010B504463F
:101340000348044B9847044B1C60002010BD00BFAD
:1013500000100E40691240002C2240202DE9F0417F
:1013600004460F46DFF8508040F2A11241469F2804
:101370008CBF002001200E4EB047E5B2C32241468B
:101380009F2D8CBF00200120B0476D09094B03EB56
:10139000452504F01F0437B9012303FA04F46C64F3
:1013A0000020BDE8F081012303FA04F42C64F7E780
:1013B000C50F4000000E0E407C2F40000E490A6A07
:1013C00022F002020D4B13430B620B4B9B6E13F08A
:1013D000010FFAD0084B196A094A0A431A62996A3E
:1013E000084A0A409A62084A9A62034B9B6E13F0BD
:1013F000020FFAD0704700BF00060E40013E3700D2
:1014000000003701FFFF00F8013F1820114A136B5D
:1014100023F0700313630F4B9B6E13F0080FFAD089
:101420000C4A136B23F4407343F480731363094B2A
:101430009B6E13F0080FFAD0064A136B23F00303D8
:1014400043F002031363034B9B6E13F0080FFAD0B3
:10145000704700BF00060E4008B5024B9847024B8C
:10146000984708BDBD1340000D14400001230360E0
:1014700000207047044B0344C3F30743052B01D0FE
:1014800000207047012070470080FFBF70B50646FE
:101490000C460846204B984700233BB300254FF4E9
:1014A0009A721E49002E18BF002C14BF0120002084
:1014B0001B4B984755B3236913F4803F29D18023F0
:1014C000236034606A68174B13402360AB68164A88
:1014D0001A40164B13436360EB6823632B8AF38037
:1014E000EB6803F0F0033371002070BD03EB830160
:1014F0008A000F498A5C904202D00133DBB2CCE70C
:1015000003EB8305AB000D461D44C8E76FF00C00EC
:1015100070BD6FF0100070BD75144000AC2F40001E
:10152000C50F40007CFFFFFE6FFFF1FF10000E00B3
:10153000982F400010B5044668B103684BB10120F4
:101540004FF4B9720549064B98472068054B9847F8
:1015500010BD0020F4E70020F2E700BFAC2F4000F0
:10156000C50F40006D1440002DE9F04186B00746DC
:101570000D4604680B6801934B68029300230393A4
:10158000049303798DF81430261C18BF012640F20D
:101590003122334900280CBF002006F00100314BF6
:1015A0009847236913F4803F22D16FF0130053E072
:1015B000002335E0507841EA0021023201920133E4
:1015C0000393E160D4F8108040F22222244930468F
:1015D000244B984718F0080F38D06FF012000028FD
:1015E00036DB0398AB68984202D3049A93422FD912
:1015F000236913F0010FDBD0A3689BB2029A5AB1A2
:10160000511C029113709DF81420012A04D90A4636
:10161000013102911B0A1370049B013304930123CF
:10162000002BCFD1039B049A9A42CBD3F98822692D
:1016300012F0020FC6D0019A002AC0D0511C0191AD
:1016400011789DF814000128B4D8B8E70020C6E747
:10165000236913F4007FFBD006B0BDE8F08100BF22
:10166000AC2F4000C50F400000207047034B98424C
:1016700000D07047024B1960FBE700BF00800240BA
:101680003022402010B5044640F22F220549003098
:1016900018BF0120044B984704482044C0F387300A
:1016A00010BD00BFD02F4000C50F400000C0FDBFDF
:1016B00010B504464FF42D720E49003018BF0120BA
:1016C0000D4B984720460D4B9847002343B140F2FD
:1016D000BE2208490020084B98470023184610BD39
:1016E00003EB43018A0006498A5C9042F6D001333D
:1016F000DBB2EBE7D02F4000C50F4000851640005D
:10170000C42F400010B5044640F2CB2211490030EE
:1017100018BF0120104B98472046104B9847104B9C
:10172000C4F8E430002363606362A362AC222260E9
:101730004FF4807222604FF40022226000EB4000E0
:101740008100084A0A4452686260074A22621846C9
:1017500010BD00BFD02F4000C50F4000B1164000A3
:1017600000415355C42F40005100030010B50446FA
:10177000AE220649003018BF0120054B984720468D
:10178000044B98470D30C0B210BD00BFD02F4000B1
:10179000C50F40008516400010B5044640F289226E
:1017A0002349003018BF0120224B9847A3695A698A
:1017B00012F0020F03D01A6912F0020F18D15A6901
:1017C00012F4007F03D01A6912F4007F16D15A690F
:1017D00012F0010F1FD01A6912F0010F1BD05969C6
:1017E000154A114211D09A694FF480721A6010BDE7
:1017F0000222DA6023682046984710BD4FF4007239
:10180000DA60A3682046984710BD62689969C9B23A
:101810002046904710BD5969074A114200D110BDBA
:101820004FF480721A60E36820469847F7E700BFDC
:10183000D02F4000C50F4000E000000170B50C46FD
:101840000646D1222249003018BF0120214B98477B
:101850002046214B9847054608B1284670BDB46123
:10186000314620461D4B984720461D4B984743B2B2
:10187000002B0DDB5B0900F01F00012202FA00F0D3
:101880002033184A42F82300BFF34F8FBFF36F8F06
:101890002046134B984743B2002B09DB5B0900F04D
:1018A0001F00012202FA00F060330E4A42F82300C2
:1018B00020460B4B984743B2002BCEDB5B0900F070
:1018C0001F00012202FA00F0064A42F82300C4E792
:1018D000D02F4000C50F4000051740006D16400096
:1018E0006D17400000E100E070B50A4E044640F27A
:1018F00013123146003018BF0120074DA847A469D4
:101900004FF43D723146201C18BF0120A8475023D8
:10191000236070BDD02F4000C50F400038B50C4685
:10192000054640F2B5120449003018BF0120034BB0
:101930009847AB69DC6138BDD02F4000C50F40002F
:1019400010B5044640F21D220449003018BF0120A2
:10195000034B9847A36902229A6010BDD02F400024
:10196000C50F400010B5044640F22622054900305C
:1019700018BF0120044B9847A3694FF400729A6086
:1019800010BD00BFD02F4000C50F400070B50C4601
:10199000164605464FF414721B49003018BF01204B
:1019A0001A4B9847C6B1022C18BF002C04D0012C4A
:1019B0000AD0032C0CD070BDAB6902229A60AB69CF
:1019C0004FF400729A6070BDAB6901229A6070BDDD
:1019D000AB690F4A9A6070BD022C18BF002C07D06B
:1019E000012C0DD0032CE6D1AB69094ADA60E2E79D
:1019F000AB690222DA60AB694FF40072DA6070BD45
:101A0000AB690122DA6070BDD02F4000C50F4000E5
:101A1000E00000010020704708B5024B1868024B37
:101A2000984708BD302240209917400070B50D4EF0
:101A30000D4CA41BA4100025A54209D10B4E0C4C43
:101A400001F0B8FBA41BA4100025A54205D170BD70
:101A500056F8253098470135EEE756F82530984777
:101A60000135F2E7C0314000C0314000C0314000D4
:101A7000C431400002440346934200D1704703F84A
:101A8000011BF9E70EB400B59CB04FF402711DAB19
:101A9000ADF81410029006906FF000410A480491CE
:101AA00007914FF6FF7153F8042BADF8161000683C
:101AB000019302A900F0F8F8029B00221A701CB0F2
:101AC0005DF804EB03B070470C0040200EB430B555
:101AD0009CB01FAC4FF4017254F8045BADF81420B5
:101AE0000290069000F01EF80B4B039007900B93AA
:101AF0000A48019400230F9314934FF6FF73ADF837
:101B000016302A46234602A9006800F01BFA1CB0D2
:101B1000BDE8304003B07047211B40000C0040205E
:101B200000207047034613F8012B002AFBD1181A36
:101B30000138704770B5CD1C25F0030508350C2D14
:101B400038BF0C25002D064601DBA94203D90C2322
:101B50003360002070BD01F070F8234A14682146FC
:101B600091B9224C23681BB9304600F02DFE20604D
:101B70002946304600F028FE431C26D10C23336052
:101B8000304601F05BF8E4E70B685B1B1AD40B2BC3
:101B90000FD90B60CD50CC18304601F04FF804F14E
:101BA0000B00231D20F00700C31A1BD05A42E2503D
:101BB00070BD8C420DBF63684B686360136018BFD3
:101BC0000C46E9E70C464968CAE7C41C24F0030444
:101BD000A04205D0211A304600F0F6FD0130CDD0EC
:101BE0002560D9E770BD00BF342240203822402054
:101BF0002DE9F0478E689E4282460C4691469846F3
:101C000035D88A8912F4906F31D0256809696F1A26
:101C10006569022305EB450595FBF3F508F1010322
:101C20003B449D4238BF1D46530531D52946FFF739
:101C300081FF064650B90C23CAF80030A38943F04F
:101C40004003A3814FF0FF30BDE8F0873A46216999
:101C500000F0CEFFA38923F4906343F08003A381B7
:101C6000266165613E44ED1B2660A56046464645FB
:101C700028BF464632464946206800F0C4FFA368A4
:101C80009B1BA36023681E4426600020BDE8F087EC
:101C90002A4601F023F806460028E1D12169504682
:101CA00000F0CEFFC7E700002DE9F04F9DB0804661
:101CB00003938B891C060D4616460FD50B696BB92D
:101CC0004021FFF737FF2860286128B90C23C8F8A6
:101CD00000304FF0FF30C5E040236B6100230993D3
:101CE00020238DF8293030238DF82A304FF0010B56
:101CF00037463C4614F8013B002B3CD1B7EB060AB3
:101D00000BD05346324629464046FFF771FF01305B
:101D100000F0A380099B534409933B78002B00F00B
:101D20009C8000234FF0FF320493079305920693A3
:101D30008DF853301A9305222178504800F008FF9F
:101D4000671C049BD8B9D90644BF20228DF85320C4
:101D50001A0744BF2B228DF8532022782A2A16D046
:101D6000079A00210A20274601343B78303B092B93
:101D700051D9C9B111E0252BC0D02746B9E73F4A58
:101D8000801A0BFA00F0184304903C46D3E7039AFC
:101D9000111D12680391002A01DB079204E05242F0
:101DA00043F00203079204933B782E2B0ED17B78ED
:101DB0002A2B07F1010132D1039B1A1D1B680392E4
:101DC000002BB8BF4FF0FF33023705932C4C397806
:101DD0000322204600F0BCFE38B14023001B03FA6A
:101DE00000F0049B034304930137397825488DF8AC
:101DF000281006227E1C00F0ABFE002835D0224BB6
:101E0000FBB9039B073323F0070308330393099BB4
:101E10004B4409936CE700FB02320121A3E7002346
:101E2000059318460A240F4601313A78303A092AB8
:101E300003D9002BCAD00590C8E704FB002001237A
:101E4000F1E703AB00932A46104B04A94046AFF3D9
:101E50000080B0F1FF3F8146D9D1AB895B063FF5E9
:101E600038AF09981DB0BDE8F08F03AB00932A4648
:101E7000064B04A9404600F02FFAEAE74C30400038
:101E8000523040005630400000000000F11B40007E
:101E900038B54B1C144603D14FF0FF35284638BDEA
:101EA000938923F020039381536B5268CDB28BB199
:101EB000A36B9A4208DA23685A1E226003F8015C79
:101EC000636801336360E9E7214600F0DFFD002825
:101ED000F1D0E1E72169236851B1994208D213F8A2
:101EE000011C8D4204D1013B013223606260D5E7C1
:101EF000E36304F1440363630323A363234622647F
:101F000003F8465F23600123DCE710B50C46496BFC
:101F100069B104F14403994201D000F091FE236CB1
:101F200063600020606313B1E36B236010BD23691D
:101F3000236000236360A38943F02003A3814FF053
:101F4000FF3010BD2DE9F04FADF5257D0DF10C08EA
:101F50000193002346934793A04BA293DFF884920A
:101F60009F4BCDF8208106460C46A39392460A2744
:101F70009AF80030002B00F02F8100F0C5FD9AF890
:101F800000B05844437813F0080343D1BBF1250F48
:101F90000AF1010540F09980459343939AF8013086
:101FA0002A2B03D1102343930AF102052978A1F1CA
:101FB0003002092AAA4605F1010541D903228948C0
:101FC00000F0C6FD38B1A0EB090301209840439B07
:101FD00018434390AA469AF80030672B0AF101058E
:101FE0004AD8652B80F0B780472B2FD8452B80F03F
:101FF000B280002B00F08280252B66D0032349930A
:10200000449745E0479901314791616801330139AF
:10201000616023606368002B0BDD00F075FD2368B1
:102020001978084441780D07ECD40AF10105AA4655
:102030009EE7A39B2146304698470028EDD0F4E761
:10204000459B07FB0313303B4593AFE75B2B61D008
:102050000CD8582BD2D1439A42F4007243921022EA
:1020600044926F2BB4BF0323042310E0632B5CD096
:10207000642BC3D14497F4E7702B42D01DD86E2B4C
:1020800059D043D8692BB9D10023449303234993F2
:102090006368002B61DD439B59066FD5499B022B7A
:1020A0007CDC01AB224643A9304600F035FA01281A
:1020B00000F092800228BAD11DE0752BDAD0782B7F
:1020C000C9D0732B9AD10223E1E76368002B0CDDA2
:1020D00023681A7893457FD1013362682360479B58
:1020E000013A013362604793A1E7A39B2146304642
:1020F00098470028ECD04698002863D14FF0FF3075
:1021000066E0439A42F020024392A4E708234493F6
:102110000423BCE72946404600F066FB439B43F09E
:102120004003439305460123B1E7439B43F040033B
:1021300043930023ABE7439AD0063FF578AF12F004
:10214000010F019A479B02F104010191126814BF2B
:10215000138013606BE7052399E7A39B2146304664
:102160009847002897D0C6E7479A0132479262689D
:10217000013A002A62600ADD0133236000F0C4FCEA
:1021800023681A78104442781207EDD486E7A39B9F
:102190002146304698470028F0D0ACE7042B06DCF7
:1021A00001AB224643A9304600F01AFA7FE70E4BF6
:1021B000002B3FF43CAF01AB224643A93046AFF3BE
:1021C000008074E7A38913F0400F18BF4FF0FF3071
:1021D0000DF5257DBDE8F08F4698F9E7911E40008A
:1021E0000B1F400052304000000000002DE9F04776
:1021F00091461F468A680B69DDF820809342B8BF7C
:102200001346C9F8003091F8432006460C4612B137
:102210000133C9F800302368990642BFD9F800306D
:102220000233C9F80030256815F0060507D104F11E
:10223000190AE368D9F800209B1A9D4229DB94F81B
:1022400043302268003318BF012392062ED404F1D4
:10225000430239463046C047013021D02368E56843
:10226000D9F8002003F00603042B08BFAD1AA368B9
:1022700022690CBF25EAE57500259342C4BF9B1A6D
:10228000ED184FF000091A344D451BD10020BDE870
:10229000F0870123524639463046C047013003D10A
:1022A0004FF0FF30BDE8F0870135C2E7E1185A1C56
:1022B000302081F84300224494F8451082F84310FE
:1022C0000233C4E70123224639463046C047013075
:1022D000E6D009F10109D7E72DE9F04317460A7E58
:1022E00085B06E2A984606460C460C9B01F1430EBB
:1022F00000F0BC801AD8632A2ED00AD8002A00F039
:10230000C880582A00F08A8004F1420584F84220EF
:102310002AE0642A01D0692AF6D121681A6811F0EE
:10232000800F23D0111D1960136827E0732A00F075
:10233000B48008D86F2A2AD0702AE5D10A6842F002
:1023400020020A6003E0752A21D0782ADCD17822A5
:1023500084F845206E4964E01A6801F14205111DB8
:102360001960136884F842300123A3E011F0400F94
:1023700002F104011960D7D0B2F90030002B03DA62
:102380002D225B4284F8432062490A2217E020682C
:10239000196810F0800F03D0081D18600B6806E064
:1023A00010F0400F01F104001860F7D00B88594974
:1023B0006F2A14BF0A220822002084F843006568AF
:1023C000A560002DC0F29C80206820F004002060F1
:1023D000002B3FD1002D40F095807546082A0BD187
:1023E0002368DA0708D5236962689A42DEBF302382
:1023F00005F8013C05F1FF35AEEB05032361CDF88F
:1024000000803B4603AA21463046FFF7EFFE01302D
:1024100055D14FF0FF3005B0BDE8F08381F845207D
:102420003C492268186812F0800F00F104051D6015
:1024300001D0036802E05506FBD50388D00744BFEE
:1024400042F0200222601BB9226822F020022260A2
:102450001022B1E77546B3FBF2F002FB1033CB5C00
:1024600005F8013D03460028F5D1B7E708681A686A
:10247000496910F0800F04D0101D186013681960AE
:1024800007E010F0400F02F1040018601368F6D066
:102490001980002323617546B1E71A68111D196080
:1024A000156862680021284600F052FB08B1401B05
:1024B000606063682361002384F843309FE72369E9
:1024C0002A4639463046C0470130A2D023689B07D0
:1024D00007D5002504F11909E368039A9B1A9D4268
:1024E00005DBE068039B9842B8BF184693E70123D9
:1024F0004A4639463046C04701308AD00135EBE7BD
:10250000002BA7D10B7884F8423004F1420565E72F
:102510006E3040005D3040002DE9F04115468A687C
:1025200080460C4632B98A69002A0CBF01224FF05E
:10253000FF328A602268D1065FBF1A68111D1960D8
:1025400017680026A369DBB1012B07D12B686269EC
:102550001B78D35CA3B9002E32D106E0022B07D042
:10256000002E2DD1A369012B2AD10120BDE8F081D5
:1025700000F0CAFA2B681B78184443781B07EFD485
:102580002368DA065EBF2B681B783B702A686B688D
:1025900002F101022A60A26803F1FF3302F1FF3267
:1025A0006B6006F1010658BF0137A26042B1002BF3
:1025B000C8DCD4F880312946404698470028C1D06D
:1025C000236813F0100305D1E2680132E260A269CA
:1025D00002B13B7023691E4426610020BDE8F081F2
:1025E0002DE9F04F9A46744B0C468346164693E805
:1025F000070087B003ABA76883E807006F4BA169AA
:102600006F4A032918BF1A467B1EB3F5AE7F84BFFD
:1026100040F25D13A3602368009243F4506388BFC7
:102620006FF4AE7504F11C0923608CBF7F1900277D
:102630004B464FF000080193316803AB022253F878
:102640002800097800F084FA019B28B3B8F1010F43
:1026500056D162682AB908226260226842F4007288
:102660002260226822F4A0622260A268511EA1604A
:1026700092B13268511C316012781A705D1C736817
:10268000013B002B736006DCD4F88031314658469C
:102690009847002876D12B4608F10108B8F1030FBE
:1026A000C9D162680AB90A226260626845496069F4
:1026B0000193891A00F098F8019B4FF000081D461D
:1026C000A368002B38D0316860690A78805C0028E4
:1026D00032D0302A226821D110051FD508F1010817
:1026E00017B10133013FA3607368013B002B736096
:1026F0001BDD336801333360A368013BA360DFE770
:10270000B8F1020FB1D1226802F4C061B1F5007FC7
:10271000C2D11021616042F48072A5E722F41062F8
:1027200022600B782B700135DEE7D4F8803131461A
:10273000584698470028DFD02368D9050CD54D4569
:1027400008D915F8011CD4F87C3132465846984710
:102750006F1E3D464D452CD0226812F010021ED14E
:102760002A706368009E49465846B0472268DAF8E6
:10277000003012F0200F08D01A1DCAF800201B6884
:10278000186009E04FF00008D6E7D207F4D51A1D0B
:10279000CAF800201B681880E3680133E360A5EBEA
:1027A0000905A844256945442561002007B0BDE816
:1027B000F08F0120FAE700BF80304000692A400016
:1027C000492940009C30400038B5064C002305469E
:1027D00008462360FEF770FC431C02D1236803B156
:1027E0002B6038BDA422402070B50B785E2B13BF40
:1027F0004A1C8A1C4B78002108BF0121441E00F1AD
:10280000FF0504F8011FA542FBD113B9013A104698
:1028100070BD81F00104C45411460D782D2D01F1D5
:10282000010206D05D2DF2D00DB90A46EFE72B4626
:10283000F1E74E785D2EFAD0B342F8DC0231013375
:102840009E42C454FBDCE8E72DE9F84F80468946F8
:1028500092461F468B465D460A9815F8014B00F0DC
:1028600050F92044467816F008060BD12D2C0BD1D8
:102870002C7801260BF1020567B1102F14D1302CF2
:102880000AD011E0AB46E6E72B2C04BF2C780BF105
:102890000205F1E7302C27D12B7803F0DF03582B0A
:1028A0004BD16C7810270235002E0CBF6FF0004121
:1028B0004FF000410022B1FBF7FE104607FB1E1C43
:1028C000A4F13003092B11D81C46A7421DDD531C6F
:1028D00007D0864516D301D1A44513DB00FB074082
:1028E000012215F8014BEBE70A27DDE7A4F14103CC
:1028F000192B01D8373CE8E7A4F16103192B04D860
:10290000573CE2E74FF0FF32EBE7531C08D122239C
:10291000C8F800300846BAF1000F07D1BDE8F88FBB
:1029200006B14042BAF1000F0CD022B1013DCAF805
:102930000050BDE8F88F4D46F9E73024002FB3D1A1
:102940000827B1E7BDE8F88F37B5064C064D246877
:10295000246A002C08BF2C460094FFF775FF03B0D3
:1029600030BD00BF0C004020700040202DE9F04732
:102970008046894692461E460F463D46089815F801
:10298000014B00F0BEF82044437813F008030AD14D
:102990002D2C0AD12C780123BD1C5EB1102E13D131
:1029A000302C09D010E02F46E7E72B2C04BF2C7801
:1029B000BD1CF2E7302C25D12A7802F0DF02582A1C
:1029C0004AD16C78102602354FF0FF310027B1FB59
:1029D000F6F106FB01FE6FEA0E0E3846A4F1300256
:1029E000092A11D81446A6421DDD002F18DB8142AA
:1029F00016D301D1A64513DB00FB0640012715F8CD
:102A0000014BEBE70A26DFE7A4F14102192A01D8BE
:102A1000373CE8E7A4F16102192A04D8573CE2E701
:102A20004FF0FF37EBE7002F09DA2223C8F8003018
:102A30004FF0FF30BAF1000F07D1BDE8F08703B1C6
:102A40004042BAF1000F0CD027B1013DCAF8005046
:102A5000BDE8F0874D46F9E73024002EB4D10826B2
:102A6000B2E7BDE8F087000037B5064C064D246894
:102A7000246A002C08BF2C460094FFF777FF03B0B0
:102A800030BD00BF0C004020700040202DE9F04117
:102A90000C46496B04F1440399421ED14FF4806106
:102AA000FFF748F818B94FF0FF30BDE8F0814FF458
:102AB0008063A36394F84630606380F8FF3394F832
:102AC000453080F8FE3394F8443080F8FD3300F24E
:102AD000FD3020600020BDE8F081A66B77003A460B
:102AE00000F0FCF805460028DDD000EB06080146A2
:102AF0003246404600F07CF8C4F800806563A76366
:102B0000E8E7D0F8EC007047044B054A1B681B6AE5
:102B1000002B08BF1346D3F8EC0070470C00402090
:102B20007000402082B001B901A942B14BB11378C5
:102B30000B601278101C18BF012002B070471046BD
:102B4000FBE76FF00100F8E7000000000000000064
:102B500001F0FF01102A2BDB10F0070F08D010F84E
:102B6000013B013A8B422DD010F0070F42B3F6D152
:102B7000F0B441EA012141EA014122F007047FF06B
:102B800000070023F0E80256083C85EA010586EAC2
:102B9000010685FA47F5A3FA87F586FA47F6A5FAFE
:102BA00087F68EB9EED1F0BC01F0FF0102F007020A
:102BB00032B110F8013B013A83EA010313B1F8D1B5
:102BC0000020704701387047002D06BF3546033896
:102BD000073815F0010F07D1013015F4807F02BFCF
:102BE000013015F4C03F0130F0BC0138704700BF20
:102BF00010B5431E0A44914200D110BD11F8014B9B
:102C000003F8014FF7E7884210B501EB020303D840
:102C1000421E99420CD110BD9842F9D28118D21AA5
:102C2000D34200D110BD13F8014D01F8014DF7E773
:102C300011F8014B02F8014FEBE7704770470000B5
:102C400038B50546002945D051F8043C0C1F002B2F
:102C5000B8BFE418FFF7F1FF1F4A1368104633B9F5
:102C6000636014602846BDE83840FFF7E7BFA34221
:102C70000CD921686218934204BF1A685B686360CC
:102C800004BF521822600460ECE713465A680AB188
:102C9000A242FAD919685818A0420BD12068014401
:102CA000581882421960DDD1106852685A60014498
:102CB0001960D7E702D90C232B60D3E720682118CD
:102CC0008A4204BF11685268626004BF091821601B
:102CD0005C60C7E738BD00BF34224020F8B5074626
:102CE00014460E4621B91146BDE8F840FEF722BF52
:102CF00022B9FFF7A5FF25462846F8BD00F021F8C8
:102D000084420FD921463846FEF714FF05460028B5
:102D1000F2D031462246FFF76BFF31463846FFF7C7
:102D20008FFFE9E73546E7E749B1FF2A85BF8A23E8
:102D300003600A704FF0FF3098BF012070470846CB
:102D4000704751F8040C0028A0F10400BCBF0B58D8
:102D5000C01870470820080041444320434F554E97
:102D600054203D2025640D0A00000000414443200A
:102D700044415441203A0D0A0000000025303458E7
:102D8000200000004C6F776572204469736372699C
:102D900020436F756E74203D2025640D0A000000ED
:102DA0005A65726F2043726F737320436F756E7430
:102DB000203D2025640D0A0055707065722044691D
:102DC0007363726920436F756E74203D2025640D16
:102DD0000A0000005570706572204469736372695F
:102DE0002054696D65286D73656329203A0D0A00CA
:102DF00025346420000000004144435F56616C7537
:102E000065203D20253034580A0000000D0A0D0AC7
:102E10002D2D2D2D2D6164635F636F6E74726F6C49
:102E2000206D656E752D2D2D0D0A0000313A7365EC
:102E30007420444143204F555430285A65726F43E3
:102E4000726F7373293A20203078253034580D0A78
:102E500000000000323A73657420444143204F550E
:102E60005431284C6F776572446573637269293AEF
:102E70003078253034580D0A00000000333A73656D
:102E80007420444143204F55543228557070657268
:102E9000446573637269293A3078253034580D0AD5
:102EA00000000000343A73746172740D0A0000006F
:102EB000353A2A73746F700D0A000000363A446187
:102EC000746120526561640D0A000000373A526552
:102ED0007365740D0A0000003E2000002564202563
:102EE000780000002E2E2F68616C2F7372632F689C
:102EF000616C5F696F2E63002E2E2F68616C2F73DB
:102F000072632F68616C5F7370695F6D5F73796E58
:102F1000632E63002E2E2F68616C2F7372632F68EF
:102F2000616C5F75736172745F6173796E632E6338
:102F3000000000002E2E2F68616C2F7574696C7371
:102F40002F7372632F7574696C735F72696E676239
:102F500075666665722E63000100000004000000C3
:102F60000400000004000000000000000400000055
:102F7000000000000A0B0C10110000002E2E2F681C
:102F8000706C2F70696F2F68706C5F70696F5F6510
:102F900078742E6300000000000000000000008034
:102FA0000100000002DC9604FFFF00002E2E2F68B7
:102FB000706C2F7370692F68706C5F7370692E630B
:102FC0000000000001000000C008100051000300D4
:102FD0002E2E2F68706C2F75736172742F68706C51
:102FE0005F75736172742E630000000000000000C2
:102FF00000000000000000000000000000000000D1
:1030000000000000000000000000000000000000C0
:1030100000000000000000000000000000000000B0
:1030200000000000000000000000000000000000A0
:103030000000000000000000000000000000000090
:10304000000000000000000000000000232D302BD5
:103050002000686C4C006566674546470030313299
:1030600033343536373839414243444546003031F0
:10307000323334353637383961626364656600004F
:103080009E304000A1304000A4304000412D4661F8
:103090002D66383930313233343536375D002B2DDB
:1030A000003030007858004300504F534958002EEC
:1030B0000000202020202020202020282828282828
:1030C0002020202020202020202020202020202000
:1030D0002020881010101010101010101010101058
:1030E0001010040404040404040404041010101058
:1030F0001010104141414141410101010101010113
:103100000101010101010101010101010110101082
:1031100010101042424242424202020202020202E5
:103120000202020202020202020202020210101055
:10313000102000000000000000000000000000005F
:10314000000000000000000000000000000000007F
:10315000000000000000000000000000000000006F
:10316000000000000000000000000000000000005F
:10317000000000000000000000000000000000004F
:10318000000000000000000000000000000000003F
:10319000000000000000000000000000000000002F
:1031A000000000000000000000000000000000001F
:1031B00000000000F8B500BFF8BC08BC9E46704790
:1031C0008D014000F8B500BFF8BC08BC9E467047B2
:0431D0006901400051
:1031D400FF0C0000FF0D0000FF0E00001000402057
:1031E400000000000C3040002C304000EC2F400068
:1031F40000000000000000000000000000000000CB
:1032040000000000000000000000000000000000BA
:1032140000000000000000000000000000000000AA
:10322400000000000000000000000000000000009A
:10323400000000000000000000000000000000008A
:103244004300000000000000000000000000000037
:10325400000000000000000000000000000000006A
:103264004300000000000000000000000000000017
:10327400000000000000000000000000000000004A
:1032840043000000000000000000000000000000F7
:10329400000000000000000000000000000000002A
:1032A40043000000000000000000000000000000D7
:1032B400000000000000000000000000000000000A
:1032C40043000000000000000000000000000000B7
:1032D40000000000000000000000000000000000EA
:1032E4004300000000000000000000000000000097
:1032F40000000000000000000000000000000000CA
:103304004300000000000000000000000000000076
:1033140000000000000000000000000000000000A9
:10332400292D4000252B400000000000B130400052
:10333400AF30400051304000513040005130400027
:103344005130400051304000513040005130400075
:103354005130400051304000FFFFFFFFFFFFFFFFEF
:10336400FFFFFFFFFFFF00000100415343494900F5
:103374000000000000000000000000000000000049
:1033840000000000000000000000415343494900D0
:103394000000000000000000000000000000000029
:0C33A4000000000000000000000000001D
:0400000500400000B7
:00000001FF
